{
  "_format": "hh-sol-artifact-1",
  "contractName": "MagicWorldGame",
  "sourceName": "contracts/MagicWorldGame.sol",
  "abi": [
    {
      "inputs": [
        {
          "internalType": "address",
          "name": "_tokenAddress",
          "type": "address"
        }
      ],
      "stateMutability": "nonpayable",
      "type": "constructor"
    },
    {
      "inputs": [],
      "name": "AccessControlBadConfirmation",
      "type": "error"
    },
    {
      "inputs": [
        {
          "internalType": "address",
          "name": "account",
          "type": "address"
        },
        {
          "internalType": "bytes32",
          "name": "neededRole",
          "type": "bytes32"
        }
      ],
      "name": "AccessControlUnauthorizedAccount",
      "type": "error"
    },
    {
      "inputs": [],
      "name": "EnforcedPause",
      "type": "error"
    },
    {
      "inputs": [],
      "name": "ExpectedPause",
      "type": "error"
    },
    {
      "inputs": [],
      "name": "ReentrancyGuardReentrantCall",
      "type": "error"
    },
    {
      "inputs": [
        {
          "internalType": "address",
          "name": "token",
          "type": "address"
        }
      ],
      "name": "SafeERC20FailedOperation",
      "type": "error"
    },
    {
      "anonymous": false,
      "inputs": [
        {
          "indexed": true,
          "internalType": "address",
          "name": "previousAdmin",
          "type": "address"
        },
        {
          "indexed": true,
          "internalType": "address",
          "name": "newAdmin",
          "type": "address"
        }
      ],
      "name": "AdminTransferred",
      "type": "event"
    },
    {
      "anonymous": false,
      "inputs": [
        {
          "indexed": false,
          "internalType": "uint256",
          "name": "oldPeriod",
          "type": "uint256"
        },
        {
          "indexed": false,
          "internalType": "uint256",
          "name": "newPeriod",
          "type": "uint256"
        }
      ],
      "name": "CooldownPeriodUpdated",
      "type": "event"
    },
    {
      "anonymous": false,
      "inputs": [
        {
          "indexed": true,
          "internalType": "address",
          "name": "player",
          "type": "address"
        },
        {
          "indexed": false,
          "internalType": "uint256",
          "name": "attemptedAmount",
          "type": "uint256"
        },
        {
          "indexed": false,
          "internalType": "uint256",
          "name": "currentReceived",
          "type": "uint256"
        },
        {
          "indexed": false,
          "internalType": "uint256",
          "name": "dailyLimit",
          "type": "uint256"
        }
      ],
      "name": "DailyLimitExhausted",
      "type": "event"
    },
    {
      "anonymous": false,
      "inputs": [
        {
          "indexed": false,
          "internalType": "uint256",
          "name": "oldLimit",
          "type": "uint256"
        },
        {
          "indexed": false,
          "internalType": "uint256",
          "name": "newLimit",
          "type": "uint256"
        }
      ],
      "name": "DailyLimitUpdated",
      "type": "event"
    },
    {
      "anonymous": false,
      "inputs": [
        {
          "indexed": true,
          "internalType": "uint256",
          "name": "distributionId",
          "type": "uint256"
        },
        {
          "indexed": false,
          "internalType": "uint256",
          "name": "unclaimedAmount",
          "type": "uint256"
        },
        {
          "indexed": true,
          "internalType": "enum MagicWorldGame.AllocationType",
          "name": "vaultType",
          "type": "uint8"
        }
      ],
      "name": "DistributionFinalized",
      "type": "event"
    },
    {
      "anonymous": false,
      "inputs": [
        {
          "indexed": true,
          "internalType": "address",
          "name": "admin",
          "type": "address"
        },
        {
          "indexed": false,
          "internalType": "uint256",
          "name": "amount",
          "type": "uint256"
        }
      ],
      "name": "EmergencyWithdraw",
      "type": "event"
    },
    {
      "anonymous": false,
      "inputs": [
        {
          "indexed": false,
          "internalType": "uint256",
          "name": "oldSize",
          "type": "uint256"
        },
        {
          "indexed": false,
          "internalType": "uint256",
          "name": "newSize",
          "type": "uint256"
        }
      ],
      "name": "MaxBatchSizeUpdated",
      "type": "event"
    },
    {
      "anonymous": false,
      "inputs": [
        {
          "indexed": true,
          "internalType": "uint256",
          "name": "distributionId",
          "type": "uint256"
        },
        {
          "indexed": false,
          "internalType": "bytes32",
          "name": "merkleRoot",
          "type": "bytes32"
        },
        {
          "indexed": false,
          "internalType": "uint256",
          "name": "totalAllocated",
          "type": "uint256"
        },
        {
          "indexed": true,
          "internalType": "enum MagicWorldGame.AllocationType",
          "name": "vaultType",
          "type": "uint8"
        },
        {
          "indexed": false,
          "internalType": "uint256",
          "name": "startTime",
          "type": "uint256"
        },
        {
          "indexed": false,
          "internalType": "uint256",
          "name": "endTime",
          "type": "uint256"
        }
      ],
      "name": "MerkleDistributionCreated",
      "type": "event"
    },
    {
      "anonymous": false,
      "inputs": [
        {
          "indexed": false,
          "internalType": "address",
          "name": "account",
          "type": "address"
        }
      ],
      "name": "Paused",
      "type": "event"
    },
    {
      "anonymous": false,
      "inputs": [
        {
          "indexed": true,
          "internalType": "address",
          "name": "distributor",
          "type": "address"
        },
        {
          "indexed": false,
          "internalType": "address[]",
          "name": "recipients",
          "type": "address[]"
        },
        {
          "indexed": false,
          "internalType": "uint256[]",
          "name": "amounts",
          "type": "uint256[]"
        },
        {
          "indexed": false,
          "internalType": "string",
          "name": "reason",
          "type": "string"
        }
      ],
      "name": "RewardsDistributed",
      "type": "event"
    },
    {
      "anonymous": false,
      "inputs": [
        {
          "indexed": true,
          "internalType": "bytes32",
          "name": "role",
          "type": "bytes32"
        },
        {
          "indexed": true,
          "internalType": "bytes32",
          "name": "previousAdminRole",
          "type": "bytes32"
        },
        {
          "indexed": true,
          "internalType": "bytes32",
          "name": "newAdminRole",
          "type": "bytes32"
        }
      ],
      "name": "RoleAdminChanged",
      "type": "event"
    },
    {
      "anonymous": false,
      "inputs": [
        {
          "indexed": true,
          "internalType": "bytes32",
          "name": "role",
          "type": "bytes32"
        },
        {
          "indexed": true,
          "internalType": "address",
          "name": "account",
          "type": "address"
        },
        {
          "indexed": true,
          "internalType": "address",
          "name": "sender",
          "type": "address"
        }
      ],
      "name": "RoleGranted",
      "type": "event"
    },
    {
      "anonymous": false,
      "inputs": [
        {
          "indexed": true,
          "internalType": "bytes32",
          "name": "role",
          "type": "bytes32"
        },
        {
          "indexed": true,
          "internalType": "address",
          "name": "account",
          "type": "address"
        },
        {
          "indexed": true,
          "internalType": "address",
          "name": "sender",
          "type": "address"
        }
      ],
      "name": "RoleRevoked",
      "type": "event"
    },
    {
      "anonymous": false,
      "inputs": [
        {
          "indexed": true,
          "internalType": "address",
          "name": "player",
          "type": "address"
        },
        {
          "indexed": false,
          "internalType": "uint256",
          "name": "amount",
          "type": "uint256"
        },
        {
          "indexed": false,
          "internalType": "uint256",
          "name": "itemId",
          "type": "uint256"
        }
      ],
      "name": "TokensBurned",
      "type": "event"
    },
    {
      "anonymous": false,
      "inputs": [
        {
          "indexed": true,
          "internalType": "uint256",
          "name": "distributionId",
          "type": "uint256"
        },
        {
          "indexed": true,
          "internalType": "address",
          "name": "user",
          "type": "address"
        },
        {
          "indexed": false,
          "internalType": "uint256",
          "name": "amount",
          "type": "uint256"
        },
        {
          "indexed": false,
          "internalType": "uint256",
          "name": "totalClaimed",
          "type": "uint256"
        }
      ],
      "name": "TokensClaimed",
      "type": "event"
    },
    {
      "anonymous": false,
      "inputs": [
        {
          "indexed": false,
          "internalType": "address",
          "name": "account",
          "type": "address"
        }
      ],
      "name": "Unpaused",
      "type": "event"
    },
    {
      "anonymous": false,
      "inputs": [
        {
          "indexed": true,
          "internalType": "address",
          "name": "distributor",
          "type": "address"
        },
        {
          "indexed": false,
          "internalType": "enum MagicWorldGame.AllocationType",
          "name": "vaultType",
          "type": "uint8"
        },
        {
          "indexed": false,
          "internalType": "address[]",
          "name": "recipients",
          "type": "address[]"
        },
        {
          "indexed": false,
          "internalType": "uint256[]",
          "name": "amounts",
          "type": "uint256[]"
        },
        {
          "indexed": false,
          "internalType": "string",
          "name": "reason",
          "type": "string"
        }
      ],
      "name": "VaultDistributed",
      "type": "event"
    },
    {
      "anonymous": false,
      "inputs": [
        {
          "indexed": false,
          "internalType": "uint256",
          "name": "totalSupply",
          "type": "uint256"
        },
        {
          "indexed": false,
          "internalType": "uint256",
          "name": "partnerAllocation",
          "type": "uint256"
        }
      ],
      "name": "VaultsInitialized",
      "type": "event"
    },
    {
      "inputs": [],
      "name": "DEFAULT_ADMIN_ROLE",
      "outputs": [
        {
          "internalType": "bytes32",
          "name": "",
          "type": "bytes32"
        }
      ],
      "stateMutability": "view",
      "type": "function"
    },
    {
      "inputs": [],
      "name": "GAME_ADMIN_ROLE",
      "outputs": [
        {
          "internalType": "bytes32",
          "name": "",
          "type": "bytes32"
        }
      ],
      "stateMutability": "view",
      "type": "function"
    },
    {
      "inputs": [],
      "name": "REWARD_DISTRIBUTOR_ROLE",
      "outputs": [
        {
          "internalType": "bytes32",
          "name": "",
          "type": "bytes32"
        }
      ],
      "stateMutability": "view",
      "type": "function"
    },
    {
      "inputs": [
        {
          "internalType": "uint256",
          "name": "amount",
          "type": "uint256"
        },
        {
          "internalType": "uint256",
          "name": "itemId",
          "type": "uint256"
        }
      ],
      "name": "burnForPurchase",
      "outputs": [],
      "stateMutability": "nonpayable",
      "type": "function"
    },
    {
      "inputs": [
        {
          "internalType": "uint256",
          "name": "distributionId",
          "type": "uint256"
        },
        {
          "internalType": "uint256",
          "name": "totalAmount",
          "type": "uint256"
        },
        {
          "internalType": "bytes32[]",
          "name": "proof",
          "type": "bytes32[]"
        }
      ],
      "name": "claimFromMerkle",
      "outputs": [],
      "stateMutability": "nonpayable",
      "type": "function"
    },
    {
      "inputs": [
        {
          "internalType": "uint256",
          "name": "",
          "type": "uint256"
        },
        {
          "internalType": "address",
          "name": "",
          "type": "address"
        }
      ],
      "name": "claimed",
      "outputs": [
        {
          "internalType": "uint256",
          "name": "",
          "type": "uint256"
        }
      ],
      "stateMutability": "view",
      "type": "function"
    },
    {
      "inputs": [],
      "name": "cooldownPeriod",
      "outputs": [
        {
          "internalType": "uint256",
          "name": "",
          "type": "uint256"
        }
      ],
      "stateMutability": "view",
      "type": "function"
    },
    {
      "inputs": [],
      "name": "currentDay",
      "outputs": [
        {
          "internalType": "uint256",
          "name": "",
          "type": "uint256"
        }
      ],
      "stateMutability": "view",
      "type": "function"
    },
    {
      "inputs": [],
      "name": "dailyRewardLimit",
      "outputs": [
        {
          "internalType": "uint256",
          "name": "",
          "type": "uint256"
        }
      ],
      "stateMutability": "view",
      "type": "function"
    },
    {
      "inputs": [
        {
          "internalType": "address",
          "name": "",
          "type": "address"
        }
      ],
      "name": "dailyRewardsReceived",
      "outputs": [
        {
          "internalType": "uint256",
          "name": "",
          "type": "uint256"
        }
      ],
      "stateMutability": "view",
      "type": "function"
    },
    {
      "inputs": [
        {
          "internalType": "enum MagicWorldGame.AllocationType",
          "name": "vaultType",
          "type": "uint8"
        },
        {
          "internalType": "address[]",
          "name": "recipients",
          "type": "address[]"
        },
        {
          "internalType": "uint256",
          "name": "amount",
          "type": "uint256"
        },
        {
          "internalType": "string",
          "name": "reason",
          "type": "string"
        }
      ],
      "name": "distributeEqualFromVault",
      "outputs": [],
      "stateMutability": "nonpayable",
      "type": "function"
    },
    {
      "inputs": [
        {
          "internalType": "enum MagicWorldGame.AllocationType",
          "name": "vaultType",
          "type": "uint8"
        },
        {
          "internalType": "address[]",
          "name": "recipients",
          "type": "address[]"
        },
        {
          "internalType": "uint256[]",
          "name": "amounts",
          "type": "uint256[]"
        },
        {
          "internalType": "string",
          "name": "reason",
          "type": "string"
        }
      ],
      "name": "distributeFromVault",
      "outputs": [],
      "stateMutability": "nonpayable",
      "type": "function"
    },
    {
      "inputs": [
        {
          "internalType": "uint256",
          "name": "",
          "type": "uint256"
        }
      ],
      "name": "distributions",
      "outputs": [
        {
          "internalType": "bytes32",
          "name": "merkleRoot",
          "type": "bytes32"
        },
        {
          "internalType": "uint256",
          "name": "totalAllocated",
          "type": "uint256"
        },
        {
          "internalType": "uint256",
          "name": "totalClaimed",
          "type": "uint256"
        },
        {
          "internalType": "uint256",
          "name": "startTime",
          "type": "uint256"
        },
        {
          "internalType": "uint256",
          "name": "endTime",
          "type": "uint256"
        },
        {
          "internalType": "enum MagicWorldGame.AllocationType",
          "name": "vaultType",
          "type": "uint8"
        },
        {
          "internalType": "bool",
          "name": "finalized",
          "type": "bool"
        }
      ],
      "stateMutability": "view",
      "type": "function"
    },
    {
      "inputs": [
        {
          "internalType": "uint256",
          "name": "amount",
          "type": "uint256"
        }
      ],
      "name": "emergencyWithdraw",
      "outputs": [],
      "stateMutability": "nonpayable",
      "type": "function"
    },
    {
      "inputs": [
        {
          "internalType": "uint256",
          "name": "distributionId",
          "type": "uint256"
        }
      ],
      "name": "finalizeDistribution",
      "outputs": [],
      "stateMutability": "nonpayable",
      "type": "function"
    },
    {
      "inputs": [],
      "name": "getAllVaultStats",
      "outputs": [
        {
          "components": [
            {
              "internalType": "uint256",
              "name": "totalAllocated",
              "type": "uint256"
            },
            {
              "internalType": "uint256",
              "name": "spent",
              "type": "uint256"
            },
            {
              "internalType": "uint256",
              "name": "remaining",
              "type": "uint256"
            }
          ],
          "internalType": "struct MagicWorldGame.AllocationVault",
          "name": "playerTasks",
          "type": "tuple"
        },
        {
          "components": [
            {
              "internalType": "uint256",
              "name": "totalAllocated",
              "type": "uint256"
            },
            {
              "internalType": "uint256",
              "name": "spent",
              "type": "uint256"
            },
            {
              "internalType": "uint256",
              "name": "remaining",
              "type": "uint256"
            }
          ],
          "internalType": "struct MagicWorldGame.AllocationVault",
          "name": "socialFollowers",
          "type": "tuple"
        },
        {
          "components": [
            {
              "internalType": "uint256",
              "name": "totalAllocated",
              "type": "uint256"
            },
            {
              "internalType": "uint256",
              "name": "spent",
              "type": "uint256"
            },
            {
              "internalType": "uint256",
              "name": "remaining",
              "type": "uint256"
            }
          ],
          "internalType": "struct MagicWorldGame.AllocationVault",
          "name": "socialPosters",
          "type": "tuple"
        },
        {
          "components": [
            {
              "internalType": "uint256",
              "name": "totalAllocated",
              "type": "uint256"
            },
            {
              "internalType": "uint256",
              "name": "spent",
              "type": "uint256"
            },
            {
              "internalType": "uint256",
              "name": "remaining",
              "type": "uint256"
            }
          ],
          "internalType": "struct MagicWorldGame.AllocationVault",
          "name": "ecosystemFund",
          "type": "tuple"
        }
      ],
      "stateMutability": "view",
      "type": "function"
    },
    {
      "inputs": [
        {
          "internalType": "uint256",
          "name": "distributionId",
          "type": "uint256"
        },
        {
          "internalType": "address",
          "name": "user",
          "type": "address"
        },
        {
          "internalType": "uint256",
          "name": "totalAmount",
          "type": "uint256"
        },
        {
          "internalType": "bytes32[]",
          "name": "proof",
          "type": "bytes32[]"
        }
      ],
      "name": "getClaimableAmount",
      "outputs": [
        {
          "internalType": "uint256",
          "name": "claimable",
          "type": "uint256"
        },
        {
          "internalType": "bool",
          "name": "isValid",
          "type": "bool"
        }
      ],
      "stateMutability": "view",
      "type": "function"
    },
    {
      "inputs": [
        {
          "internalType": "uint256",
          "name": "distributionId",
          "type": "uint256"
        },
        {
          "internalType": "address",
          "name": "user",
          "type": "address"
        }
      ],
      "name": "getClaimedAmount",
      "outputs": [
        {
          "internalType": "uint256",
          "name": "",
          "type": "uint256"
        }
      ],
      "stateMutability": "view",
      "type": "function"
    },
    {
      "inputs": [],
      "name": "getContractStats",
      "outputs": [
        {
          "internalType": "uint256",
          "name": "totalDistributed",
          "type": "uint256"
        },
        {
          "internalType": "uint256",
          "name": "playersCount",
          "type": "uint256"
        },
        {
          "internalType": "uint256",
          "name": "contractBalance",
          "type": "uint256"
        }
      ],
      "stateMutability": "view",
      "type": "function"
    },
    {
      "inputs": [
        {
          "internalType": "uint256",
          "name": "distributionId",
          "type": "uint256"
        }
      ],
      "name": "getDistributionInfo",
      "outputs": [
        {
          "internalType": "bytes32",
          "name": "merkleRoot",
          "type": "bytes32"
        },
        {
          "internalType": "uint256",
          "name": "totalAllocated",
          "type": "uint256"
        },
        {
          "internalType": "uint256",
          "name": "totalClaimed",
          "type": "uint256"
        },
        {
          "internalType": "uint256",
          "name": "startTime",
          "type": "uint256"
        },
        {
          "internalType": "uint256",
          "name": "endTime",
          "type": "uint256"
        },
        {
          "internalType": "enum MagicWorldGame.AllocationType",
          "name": "vaultType",
          "type": "uint8"
        },
        {
          "internalType": "bool",
          "name": "finalized",
          "type": "bool"
        },
        {
          "internalType": "bool",
          "name": "isActive",
          "type": "bool"
        },
        {
          "internalType": "uint256",
          "name": "unclaimedAmount",
          "type": "uint256"
        }
      ],
      "stateMutability": "view",
      "type": "function"
    },
    {
      "inputs": [
        {
          "internalType": "address",
          "name": "player",
          "type": "address"
        }
      ],
      "name": "getPlayerStats",
      "outputs": [
        {
          "internalType": "uint256",
          "name": "dailyReceived",
          "type": "uint256"
        },
        {
          "internalType": "uint256",
          "name": "totalEarned",
          "type": "uint256"
        },
        {
          "internalType": "uint256",
          "name": "lastReward",
          "type": "uint256"
        }
      ],
      "stateMutability": "view",
      "type": "function"
    },
    {
      "inputs": [
        {
          "internalType": "bytes32",
          "name": "role",
          "type": "bytes32"
        }
      ],
      "name": "getRoleAdmin",
      "outputs": [
        {
          "internalType": "bytes32",
          "name": "",
          "type": "bytes32"
        }
      ],
      "stateMutability": "view",
      "type": "function"
    },
    {
      "inputs": [
        {
          "internalType": "enum MagicWorldGame.AllocationType",
          "name": "vaultType",
          "type": "uint8"
        }
      ],
      "name": "getVaultInfo",
      "outputs": [
        {
          "internalType": "uint256",
          "name": "totalAllocated",
          "type": "uint256"
        },
        {
          "internalType": "uint256",
          "name": "spent",
          "type": "uint256"
        },
        {
          "internalType": "uint256",
          "name": "remaining",
          "type": "uint256"
        }
      ],
      "stateMutability": "view",
      "type": "function"
    },
    {
      "inputs": [
        {
          "internalType": "address",
          "name": "account",
          "type": "address"
        }
      ],
      "name": "grantDistributorRole",
      "outputs": [],
      "stateMutability": "nonpayable",
      "type": "function"
    },
    {
      "inputs": [
        {
          "internalType": "address",
          "name": "account",
          "type": "address"
        }
      ],
      "name": "grantGameAdminRole",
      "outputs": [],
      "stateMutability": "nonpayable",
      "type": "function"
    },
    {
      "inputs": [
        {
          "internalType": "bytes32",
          "name": "role",
          "type": "bytes32"
        },
        {
          "internalType": "address",
          "name": "account",
          "type": "address"
        }
      ],
      "name": "grantRole",
      "outputs": [],
      "stateMutability": "nonpayable",
      "type": "function"
    },
    {
      "inputs": [
        {
          "internalType": "bytes32",
          "name": "role",
          "type": "bytes32"
        },
        {
          "internalType": "address",
          "name": "account",
          "type": "address"
        }
      ],
      "name": "hasRole",
      "outputs": [
        {
          "internalType": "bool",
          "name": "",
          "type": "bool"
        }
      ],
      "stateMutability": "view",
      "type": "function"
    },
    {
      "inputs": [
        {
          "internalType": "uint256",
          "name": "totalSupply",
          "type": "uint256"
        },
        {
          "internalType": "uint256",
          "name": "partnerAllocation",
          "type": "uint256"
        }
      ],
      "name": "initializeVaults",
      "outputs": [],
      "stateMutability": "nonpayable",
      "type": "function"
    },
    {
      "inputs": [
        {
          "internalType": "address",
          "name": "account",
          "type": "address"
        }
      ],
      "name": "isDistributor",
      "outputs": [
        {
          "internalType": "bool",
          "name": "",
          "type": "bool"
        }
      ],
      "stateMutability": "view",
      "type": "function"
    },
    {
      "inputs": [
        {
          "internalType": "address",
          "name": "account",
          "type": "address"
        }
      ],
      "name": "isGameAdmin",
      "outputs": [
        {
          "internalType": "bool",
          "name": "",
          "type": "bool"
        }
      ],
      "stateMutability": "view",
      "type": "function"
    },
    {
      "inputs": [
        {
          "internalType": "address",
          "name": "",
          "type": "address"
        }
      ],
      "name": "lastMajorReward",
      "outputs": [
        {
          "internalType": "uint256",
          "name": "",
          "type": "uint256"
        }
      ],
      "stateMutability": "view",
      "type": "function"
    },
    {
      "inputs": [
        {
          "internalType": "address",
          "name": "",
          "type": "address"
        }
      ],
      "name": "lastRewardDate",
      "outputs": [
        {
          "internalType": "uint256",
          "name": "",
          "type": "uint256"
        }
      ],
      "stateMutability": "view",
      "type": "function"
    },
    {
      "inputs": [],
      "name": "magicWorldGems",
      "outputs": [
        {
          "internalType": "contract IMagicWorldGems",
          "name": "",
          "type": "address"
        }
      ],
      "stateMutability": "view",
      "type": "function"
    },
    {
      "inputs": [],
      "name": "maxBatchSize",
      "outputs": [
        {
          "internalType": "uint256",
          "name": "",
          "type": "uint256"
        }
      ],
      "stateMutability": "view",
      "type": "function"
    },
    {
      "inputs": [],
      "name": "nextDistributionId",
      "outputs": [
        {
          "internalType": "uint256",
          "name": "",
          "type": "uint256"
        }
      ],
      "stateMutability": "view",
      "type": "function"
    },
    {
      "inputs": [],
      "name": "pause",
      "outputs": [],
      "stateMutability": "nonpayable",
      "type": "function"
    },
    {
      "inputs": [],
      "name": "paused",
      "outputs": [
        {
          "internalType": "bool",
          "name": "",
          "type": "bool"
        }
      ],
      "stateMutability": "view",
      "type": "function"
    },
    {
      "inputs": [
        {
          "internalType": "bytes32",
          "name": "role",
          "type": "bytes32"
        },
        {
          "internalType": "address",
          "name": "callerConfirmation",
          "type": "address"
        }
      ],
      "name": "renounceRole",
      "outputs": [],
      "stateMutability": "nonpayable",
      "type": "function"
    },
    {
      "inputs": [
        {
          "internalType": "address",
          "name": "account",
          "type": "address"
        }
      ],
      "name": "revokeDistributorRole",
      "outputs": [],
      "stateMutability": "nonpayable",
      "type": "function"
    },
    {
      "inputs": [
        {
          "internalType": "address",
          "name": "account",
          "type": "address"
        }
      ],
      "name": "revokeGameAdminRole",
      "outputs": [],
      "stateMutability": "nonpayable",
      "type": "function"
    },
    {
      "inputs": [
        {
          "internalType": "bytes32",
          "name": "role",
          "type": "bytes32"
        },
        {
          "internalType": "address",
          "name": "account",
          "type": "address"
        }
      ],
      "name": "revokeRole",
      "outputs": [],
      "stateMutability": "nonpayable",
      "type": "function"
    },
    {
      "inputs": [
        {
          "internalType": "uint256",
          "name": "newPeriod",
          "type": "uint256"
        }
      ],
      "name": "setCooldownPeriod",
      "outputs": [],
      "stateMutability": "nonpayable",
      "type": "function"
    },
    {
      "inputs": [
        {
          "internalType": "uint256",
          "name": "newLimit",
          "type": "uint256"
        }
      ],
      "name": "setDailyRewardLimit",
      "outputs": [],
      "stateMutability": "nonpayable",
      "type": "function"
    },
    {
      "inputs": [
        {
          "internalType": "uint256",
          "name": "newSize",
          "type": "uint256"
        }
      ],
      "name": "setMaxBatchSize",
      "outputs": [],
      "stateMutability": "nonpayable",
      "type": "function"
    },
    {
      "inputs": [
        {
          "internalType": "bytes32",
          "name": "merkleRoot",
          "type": "bytes32"
        },
        {
          "internalType": "uint256",
          "name": "totalAllocated",
          "type": "uint256"
        },
        {
          "internalType": "enum MagicWorldGame.AllocationType",
          "name": "vaultType",
          "type": "uint8"
        },
        {
          "internalType": "uint256",
          "name": "durationInDays",
          "type": "uint256"
        }
      ],
      "name": "setMerkleDistribution",
      "outputs": [
        {
          "internalType": "uint256",
          "name": "distributionId",
          "type": "uint256"
        }
      ],
      "stateMutability": "nonpayable",
      "type": "function"
    },
    {
      "inputs": [
        {
          "internalType": "bytes4",
          "name": "interfaceId",
          "type": "bytes4"
        }
      ],
      "name": "supportsInterface",
      "outputs": [
        {
          "internalType": "bool",
          "name": "",
          "type": "bool"
        }
      ],
      "stateMutability": "view",
      "type": "function"
    },
    {
      "inputs": [],
      "name": "totalPlayersRewarded",
      "outputs": [
        {
          "internalType": "uint256",
          "name": "",
          "type": "uint256"
        }
      ],
      "stateMutability": "view",
      "type": "function"
    },
    {
      "inputs": [],
      "name": "totalRewardsDistributed",
      "outputs": [
        {
          "internalType": "uint256",
          "name": "",
          "type": "uint256"
        }
      ],
      "stateMutability": "view",
      "type": "function"
    },
    {
      "inputs": [
        {
          "internalType": "address",
          "name": "",
          "type": "address"
        }
      ],
      "name": "totalRewardsEarned",
      "outputs": [
        {
          "internalType": "uint256",
          "name": "",
          "type": "uint256"
        }
      ],
      "stateMutability": "view",
      "type": "function"
    },
    {
      "inputs": [
        {
          "internalType": "address",
          "name": "newAdmin",
          "type": "address"
        }
      ],
      "name": "transferAdmin",
      "outputs": [],
      "stateMutability": "nonpayable",
      "type": "function"
    },
    {
      "inputs": [],
      "name": "unpause",
      "outputs": [],
      "stateMutability": "nonpayable",
      "type": "function"
    },
    {
      "inputs": [
        {
          "internalType": "enum MagicWorldGame.AllocationType",
          "name": "",
          "type": "uint8"
        }
      ],
      "name": "vaults",
      "outputs": [
        {
          "internalType": "uint256",
          "name": "totalAllocated",
          "type": "uint256"
        },
        {
          "internalType": "uint256",
          "name": "spent",
          "type": "uint256"
        },
        {
          "internalType": "uint256",
          "name": "remaining",
          "type": "uint256"
        }
      ],
      "stateMutability": "view",
      "type": "function"
    },
    {
      "inputs": [],
      "name": "vaultsInitialized",
      "outputs": [
        {
          "internalType": "bool",
          "name": "",
          "type": "bool"
        }
      ],
      "stateMutability": "view",
      "type": "function"
    }
  ],
  "bytecode": "0x60a0346200013257601f620036d138819003918201601f19168301916001600160401b0383118484101762000137578084926020946040528339810103126200013257516001600160a01b0381169081900362000132576001600255683635c9adc5dea00000600e5560c8600f55610e106010558015620000ed5760805262000088336200014d565b506200009433620001cd565b50620000a0336200026f565b50620151804204600c556040516133a490816200030d8239608051818181610331015281816105eb0152818161088e01528181610a8a01528181610bf2015281816118fe015261224d0152f35b60405162461bcd60e51b815260206004820152601a60248201527f4d57473a20496e76616c696420746f6b656e20616464726573730000000000006044820152606490fd5b600080fd5b634e487b7160e01b600052604160045260246000fd5b6001600160a01b031660008181527fad3228b676f7d3cd4284a5443f17f1962b36e491b30a40b2405849e597ba5fb5602052604081205490919060ff16620001c957818052816020526040822081835260205260408220600160ff198254161790553391600080516020620036b18339815191528180a4600190565b5090565b6001600160a01b031660008181527f34187b4df4dde90344524af04b4bfa2b494efae448e1c13d6ef6a07e1075558160205260408120549091907f9b7946abd96dccbe6cfc6cc2c13300ab429d93e16fa72dc459eeccda73817f089060ff166200026a57808352826020526040832082845260205260408320600160ff19825416179055600080516020620036b1833981519152339380a4600190565b505090565b6001600160a01b031660008181527f9e607de338c7d6508550727646d2998939f27517879a7dd916362b3520e3948760205260408120549091907fb814ff4a26ea3ec5cd1fa579daad86324826254265f3acfec78303a19845b4499060ff166200026a57808352826020526040832082845260205260408320600160ff19825416179055600080516020620036b1833981519152339380a460019056fe6080604081815260048036101561001557600080fd5b600092833560e01c90816301ffc9a7146123dd5750806304646a49146123be5780630eac4b80146120eb578063120aa87714611d1d57806318c8ea30146120c15780631c7a0356146120895780631e7113fd14612051578063248a9ca3146120285780632913daa0146120095780632b26a6bf14611f1d5780632c1e711614611efe5780632f2ff15d14611ed557806332e4bb0a14611eac57806336568abe14611e655780633f4ba83a14611dfc5780634487d3df14611d8857806344c5418214611d5e5780634867b6db14611d1d5780634c07e4b514611a185780634fd66eae146119c05780635312ea8e146118be5780635c9302c91461189f5780635c975abb1461187b5780635d3f33961461182857806375829def14611729578063775c286914611705578063795be4b9146116e657806380ea3de1146115fe5780638456cb59146115a4578063887941d8146114a15780638bba2a0a146114635780638f0c86fa1461141057806391aa50aa146113f157806391cdd6af1461139e57806391d148541461135957806395f52f4e146111e6578063982b195a146111a8578063a217fddf1461118d578063ab96c50714610ed8578063b4b20e4314610e2f578063b5d8568714610ae2578063be22d27d14610ab9578063bf8d7c0f14610a75578063c2d8fe9c14610745578063cafed8f01461070d578063d547741f146106cf578063d8d8065d14610681578063dfe6b5d6146105b2578063e08ed6221461048a578063e4f24cb014610452578063e67063a2146102ec578063ee172546146102c95763f8f36c521461026a57600080fd5b346102c55760803660031901126102c557610283612461565b606435936001600160401b0385116102c257506102a76102b4939436908401612431565b9290916044359135612998565b825191825215156020820152f35b80fd5b8280fd5b5050346102e857816003193601126102e857602090600a549051908152f35b5080fd5b509190346102e8576102fd366124b0565b610308929192612b0d565b610310612aec565b61031b83151561271f565b81516370a0823160e01b815233868201526020907f00000000000000000000000000000000000000000000000000000000000000006001600160a01b0316908281602481855afa80156104485786908890610412575b61037d9250101561275e565b83516323b872dd60e01b83820152336024820152306044820152606480820187905281529660a08801906001600160401b038211898310176103fd5750966103ea917fccbea4088a3b7ae9ca2d15fab9a9742a4075b4d7247768a1eecea917565aba009697988652613286565b82519485528401523392a2600160025580f35b604190634e487b7160e01b6000525260246000fd5b50508281813d8311610441575b61042981836125b6565b8101031261043c578561037d9151610371565b600080fd5b503d61041f565b85513d89823e3d90fd5b5050346102e85760203660031901126102e85760209181906001600160a01b0361047a612477565b1681526009845220549051908152f35b509190346102e85760203660031901126102e85782358252826020528082208151916104b583612557565b815483526001820154936020840194855260028301549180850192835260038401549360608601948552600588820154916080880192835201549460a087019261050260ff881685612713565b60ff60c089019760081c16159687158152876105a6575b8761059b575b61052c8a5188519061263c565b985199519651925193519451958b8710156105885750518151998a5260208a0196909652880152606087015260808601526101209550901515906105749060a086019061248d565b60c0840152151560e0830152610100820152f35b634e487b7160e01b815260218c52602490fd5b83514210975061051f565b82514210159750610519565b508290346102e857816003193601126102e857600a54600b5484516370a0823160e01b81523093810193909352939092906020836024817f00000000000000000000000000000000000000000000000000000000000000006001600160a01b03165afa9182156106765791610640575b519283526020830193909352506040810191909152606090f35b0390f35b90506020823d60201161066e575b8161065b602093836125b6565b8101031261043c5761063c915190610622565b3d915061064e565b9051903d90823e3d90fd5b5082346102c25760203660031901126102c2578135918210156102c257506106a8906124f3565b80546001820154600290920154925190815260208101919091526040810191909152606090f35b5090346102c557806003193601126102c557610709913561070460016106f3612461565b938387528660205286200154612cbf565b612e74565b5080f35b5050346102e85760203660031901126102e85760209181906001600160a01b03610735612477565b1681526006845220549051908152f35b50346102c55760803660031901126102c557803590808210156109b6576001600160401b0392602435848111610a71576107829036908401612431565b60449291923595606435908111610a6d576107a090369086016124c6565b9390966107ab612c75565b6107b3612b0d565b6107bb612aec565b6107c960ff6011541661266c565b8215610a32576107dd600f54841115612834565b6107e881151561271f565b808302928084048203610a1d5790839291610813899695600261080a896124f3565b015410156126b8565b61081b6130ca565b8a610825826125d7565b92610832875194856125b6565b82845261083e836125d7565b99602096602086019b601f1901368d37835b8581106109ba575061088a600261088160019c600161086e826124f3565b0161087a86825461265f565b90556124f3565b0191825461263c565b90557f00000000000000000000000000000000000000000000000000000000000000006001600160a01b031690813b156109b65783918991838351809681958294633985effb60e01b84528301526108e78c8b60448501916128f6565b90602483015203925af180156109ac57610994575b5050602092610924916109148796989751809c61248d565b6080858c015260808b01916128f6565b92888403908901525191828152019492885b8281106109815789897fdb8733350f75af374f65fbaa45b4c7307ab9fa3742e248e9656d243d576695508a806109768c8c83820360608501523396612963565b0390a2600160025580f35b8451875295810195938101938301610936565b61099d906125a3565b6109a8578a386108fc565b8a80fd5b87513d84823e3d90fd5b8380fd5b9092949596979899506001919350610a00856109df6109da848a8d612877565b61289d565b6109f1858060a01b03821615156128b1565b6109fb82826130e1565b6131e7565b84610a0b8289612984565b5201918b989796959493918e93610850565b601187634e487b7160e01b6000525260246000fd5b835162461bcd60e51b815260208188015260156024820152744d57473a20456d70747920726563697069656e747360581b6044820152606490fd5b8780fd5b8580fd5b5050346102e857816003193601126102e857517f00000000000000000000000000000000000000000000000000000000000000006001600160a01b03168152602090f35b5050346102e857816003193601126102e8576020905160008051602061332f8339815191528152f35b5090346102c557600319916080368401126109b65780359181831015610e2b576001600160401b03602435818111610e2757610b219036908501612431565b9190604435828111610e2357610b3a9036908701612431565b939092606435908111610e1f57610b5490369088016124c6565b969098610b5f612c75565b610b67612b0d565b610b6f612aec565b610b7d60ff6011541661266c565b858303610ddc578215610da5578a90610b9a600f54851115612834565b818a835b898110610d7d575081600261080a610bb5936124f3565b610bbd6130ca565b825b858110610d3257506001610bd28c6124f3565b01610bde82825461265f565b9055610bee60026108818d6124f3565b90557f00000000000000000000000000000000000000000000000000000000000000006001600160a01b0316803b156102c5578883610c5c9582519687958694859363446b4ad960e11b8552840152610c4b604484018b8d6128f6565b908382030160248401528c8c61293f565b03925af18015610d2857610cd9575b509361097693610cab9693610cbc610cc9947fdb8733350f75af374f65fbaa45b4c7307ab9fa3742e248e9656d243d576695509a9885519a8b809b61248d565b608060208b015260808a01916128f6565b928784039088015261293f565b9083820360608501523396612963565b93610cab9693610cbc610cc9947fdb8733350f75af374f65fbaa45b4c7307ab9fa3742e248e9656d243d576695509a98949c610d17610976996125a3565b9c94989a5094505093965093610c6b565b86513d8c823e3d90fd5b600191929350610d73610d496109da83898b612877565b610d54838c8c612877565b3590610d68858060a01b03821615156128b1565b6109f182151561271f565b01908c9291610bbf565b92935050610d99600191610d92848b8b612877565b359061265f565b9101908a8d9392610b9e565b865162461bcd60e51b815260208184015260116024820152704d57473a20456d7074792061727261797360781b6044820152606490fd5b865162461bcd60e51b8152602081840152601a60248201527f4d57473a204172726179206c656e677468206d69736d617463680000000000006044820152606490fd5b8980fd5b8880fd5b8680fd5b8480fd5b50346102c55760203660031901126102c557803590610e4c612c2b565b670de0b6b3a76400008210610e955750907f207c4cbdf55ec315a13f0d5e047732ec5d947da056e706593aa509909941cedf91600e549080600e5582519182526020820152a180f35b606490602084519162461bcd60e51b8352820152601860248201527f4d57473a204461696c79206c696d697420746f6f206c6f7700000000000000006044820152fd5b509190346102e857610ee9366124b0565b610ef1612bd3565b60119460ff86541661114a578215611107578282116110ba57610f14828461263c565b9560328702918715928881046032148417156110a857606490049260058902898104600514821715611096576064900491600f8a02918a8304600f14171561108457509083610f98899a610f9384610f9360647fd635368012f1fd9be4fded88393d0328b0d060bcc0416fc5cf379a4202f177ad9e980495869461263c565b61263c565b918851610fa481612588565b86815260026020978b8984019780895281850192835280805260038b5220925183556001965187840155519101556002895191610fe083612588565b8083528c8b8985019180835281860193845288815260038b522093518455518684015551910155600288519161101583612588565b8083528683018c81528a8401918252828d52600388528a8d2093518455518584015551910155600287519161104983612588565b8083528583018b81528984019182526003808d528752898c2093518455518484015551910155815460ff19161790558351928352820152a180f35b634e487b7160e01b8952839052602488fd5b634e487b7160e01b8952838352602489fd5b634e487b7160e01b8852828252602488fd5b608490602085519162461bcd60e51b8352820152602160248201527f4d57473a20506172746e657220616c6c6f636174696f6e20746f6f206c6172676044820152606560f81b6064820152fd5b606490602085519162461bcd60e51b8352820152601960248201527f4d57473a20496e76616c696420746f74616c20737570706c79000000000000006044820152fd5b606490602085519162461bcd60e51b8352820152601f60248201527f4d57473a205661756c747320616c726561647920696e697469616c697a6564006044820152fd5b5050346102e857816003193601126102e85751908152602090f35b83346102c25760203660031901126102c2576107096111c5612477565b6111cd612bd3565b6111e16001600160a01b03821615156127f1565b612fda565b5090346102c55760203660031901126102c55781359081845282602052808420906112138254151561250c565b6005820180549260ff8460081c1661131d578581015442106112e3579061125260ff9261010061ff00198716178355600260018201549101549061263c565b93846112a6575b505416938085101561129357507ff449a87b497725252ea005acdf851c029934dd8df9f5798e4a77e3bb93a5af0a9160209151908152a380f35b634e487b7160e01b865260219052602485fd5b6112b383600292166124f3565b016112bf85825461265f565b905560016112cf838354166124f3565b016112db85825461263c565b905538611259565b825162461bcd60e51b815260208188015260146024820152731355d1ce88139bdd08195e1c1a5c9959081e595d60621b6044820152606490fd5b825162461bcd60e51b815260208188015260166024820152751355d1ce88105b1c9958591e48199a5b985b1a5e995960521b6044820152606490fd5b50346102c557816003193601126102c5578160209360ff92611379612461565b903582528186528282206001600160a01b039091168252855220549151911615158152f35b5082346102c25760203660031901126102c2578135918210156102c257506113c86113cd916124f3565b6127c9565b80516020808301519284015193519182528101919091526040810191909152606090f35b5050346102e857816003193601126102e857602090600e549051908152f35b5050346102e85760203660031901126102e85760ff81602093611431612477565b6000805160206132ef83398151915282528186528282206001600160a01b039091168252855220549151911615158152f35b83346102c25760203660031901126102c257610709611480612477565b611488612bd3565b61149c6001600160a01b03821615156127f1565b612f51565b5050346102e857816003193601126102e857906115a2610180926114c36127aa565b506114cc6127aa565b506114d56127aa565b506114de6127aa565b50828052600360205261158381842060018552611566838620956002815261154a61152d61152761152161151b89808720966003815220976127c9565b9a6127c9565b936127c9565b946127c9565b955180986040809180518452602081015160208501520151910152565b80516060880152602081015160808801526040015160a0870152565b805160c0860152602081015160e086015260400151610100850152565b8051610120840152602081015161014084015260400151610160830152565bf35b5050346102e857816003193601126102e85760207f62e78cea01bee320cd4e420270b5ea74000d11b0c9f74754ebdbfc544b05a258916115e2612c2b565b6115ea612b0d565b600160ff198154161760015551338152a180f35b50346102c55760203660031901126102c55780359061161b612c2b565b603c82106116a35762093a8082116116675750907f98eaabfe135a9c40c420208962bf81e7926b4d6df3e23502164c0554b7b3522491601054908060105582519182526020820152a180f35b606490602084519162461bcd60e51b835282015260166024820152754d57473a20436f6f6c646f776e20746f6f206c6f6e6760501b6044820152fd5b606490602084519162461bcd60e51b8352820152601760248201527f4d57473a20436f6f6c646f776e20746f6f2073686f72740000000000000000006044820152fd5b5050346102e857816003193601126102e857602090600d549051908152f35b5050346102e857816003193601126102e85760209060ff6011541690519015158152f35b50346102c55760203660031901126102c557611743612477565b9061174c612bd3565b6001600160a01b0382169283156117e5573384146117a257505061176f90612ed7565b5061177933612df8565b50337ff8ccb027dfcd135e000e9d45e6cc2d662578a8825d4c45b5e32e0adf67e79ec68380a380f35b906020606492519162461bcd60e51b8352820152601f60248201527f4d57473a204e65772061646d696e2069732063757272656e742061646d696e006044820152fd5b906020606492519162461bcd60e51b8352820152601e60248201527f4d57473a204e65772061646d696e206973207a65726f206164647265737300006044820152fd5b5050346102e85760203660031901126102e85760ff81602093611849612477565b60008051602061332f83398151915282528186528282206001600160a01b039091168252855220549151911615158152f35b5050346102e857816003193601126102e85760209060ff6001541690519015158152f35b5050346102e857816003193601126102e857602090600c549051908152f35b5090346102c5576020806003193601126109b6578235916118dd612bd3565b6118e883151561271f565b80516370a0823160e01b815230948101949094527f00000000000000000000000000000000000000000000000000000000000000006001600160a01b03168285602481845afa80156119b65784958791611981575b509361197791611970827f5fafa99d0643513820be26656b45130b01e1c03062e1266bf36f88cbd3bd969597101561275e565b3390612b82565b519283523392a280f35b809550848092503d83116119af575b61199a81836125b6565b81010312610a7157925184939061197761193d565b503d611990565b82513d88823e3d90fd5b5050346102e85760203660031901126102e8576001600160a01b036119e3612477565b168252600660209081528183205460098252828420546008835293839020549251908152908101929092526040820152606090f35b5090346102c55760803660031901126102c557602492604435908335908535858410156102e85760643595611a5160ff6011541661266c565b60008051602061332f8339815191528352602097838952868420338552895260ff87852054168015611d02575b15611cc0578415611c7e578215611c455760018810611c0357611aa683600261080a896124f3565b6001611ab1876124f3565b01611abd84825461265f565b90556002611aca876124f3565b01611ad684825461263c565b9055600d5497611ae589612704565b600d556201518090818102918183041490151715611bf157869291611b0b8a924261265f565b9560058c888c5191611b1c83612557565b8b83528d8184018b8152818501918783528a606087019442865260808801968752611b4b60a089019e8f612713565b60c088019b8a8d528a525287209451855551600185015551600284015551600383015551868201550194519380851015611be15750505092827f8e210f11d37bb0287c23659184ec508814ef9e5548aa658a1146827803ae13db959260809560ff61ff008d9a97549251151560081b1692169061ffff19161717905587519283528983015242878301526060820152a351908152f35b634e487b7160e01b825260219052fd5b50634e487b7160e01b84526011825283fd5b865162461bcd60e51b81529182018990526017908201527f4d57473a204475726174696f6e20746f6f2073686f72740000000000000000006044820152606490fd5b865162461bcd60e51b81529182018990526014908201527326aba39d102d32b9379030b63637b1b0ba34b7b760611b6044820152606490fd5b865162461bcd60e51b81529182018990526018908201527f4d57473a20496e76616c6964206d65726b6c6520726f6f7400000000000000006044820152606490fd5b865162461bcd60e51b81529182018990526018908201527f4d57473a2043616c6c6572206973206e6f742061646d696e00000000000000006044820152606490fd5b50838052838952868420338552895260ff8785205416611a7e565b50346102c557816003193601126102c5576020928291611d3b612461565b90358252600585528282206001600160a01b039091168252845220549051908152f35b83346102c25760203660031901126102c257610709611d7b612477565b611d83612bd3565b612d71565b5090346102c55760203660031901126102c5578060ff9160e0948435815284602052208054936001820154926002830154906005600385015493850154940154948151978852602088015286015260608501526080840152611def60a0840183831661248d565b60081c16151560c0820152f35b50346102c557826003193601126102c557611e15612c2b565b6001549060ff821615611e57575060ff1916600155513381527f5db9ee0a495bf2e6ff9c91a7834c1ba4fdd244a5e8aa4e537bd38aeae4b073aa90602090a180f35b8251638dfc202b60e01b8152fd5b509190346102e857806003193601126102e857611e80612461565b90336001600160a01b03831603611e9d5750610709919235612e74565b5163334bd91960e11b81528390fd5b5050346102e857816003193601126102e857602090516000805160206132ef8339815191528152f35b5090346102c557806003193601126102c5576107099135611ef960016106f3612461565b613063565b5050346102e857816003193601126102e857602090600b549051908152f35b50346102c55760203660031901126102c557803590611f3a612c2b565b8115611fc6576101f48211611f835750907f6b141d34195f1cbfa2080571bebbe19ad6d201cc0d1d53c70550795d14a4be8391600f549080600f5582519182526020820152a180f35b606490602084519162461bcd60e51b8352820152601f60248201527f4d57473a2042617463682073697a652065786365656473206d6178696d756d006044820152fd5b606490602084519162461bcd60e51b8352820152602060248201527f4d57473a2042617463682073697a65206d75737420626520706f7369746976656044820152fd5b5050346102e857816003193601126102e857602090600f549051908152f35b50346102c55760203660031901126102c557816020936001923581528085522001549051908152f35b5050346102e85760203660031901126102e85760209181906001600160a01b03612079612477565b1681526007845220549051908152f35b5050346102e85760203660031901126102e85760209181906001600160a01b036120b1612477565b1681526008845220549051908152f35b83346102c25760203660031901126102c2576107096120de612477565b6120e6612bd3565b612ce5565b508290346102e85760603660031901126102e8578035602493843560449384356001600160401b038111610e27576121269036908301612431565b919095612131612aec565b612139612b0d565b8588526020928284528589209788549061215482151561250c565b60ff60058b015460081c1661237c57848a015442101561233a5760038a015442106122f85787513360601b6bffffffffffffffffffffffff1916878201908152601481018990526121cf9493926121ca929091906121bf81603484015b03601f1981018352826125b6565b5190209336916125ee565b612b2b565b156122c45785885260058352848820338952835284882054988985111561228d5750505060026122237fa99e56daf7b172944ed4142b79056ff30b8c461557290c222948987fede4389a959697988461263c565b9686895260058352848920338a52835283858a20550161224487825461265f565b905561227a86337f00000000000000000000000000000000000000000000000000000000000000006001600160a01b0316612b82565b82519586528501523393a3600160025580f35b906015744d57473a204e6f7468696e6720746f20636c61696d60581b9260649588519562461bcd60e51b8752860152840152820152fd5b7126aba39d1024b73b30b634b210383937b7b360711b9060128a60649588519562461bcd60e51b8752860152840152820152fd5b50865162461bcd60e51b8152808501869052601d818d01527f4d57473a20446973747269627574696f6e206e6f74207374617274656400000081850152606490fd5b50865162461bcd60e51b81528085018690526019818d01527f4d57473a20446973747269627574696f6e20657870697265640000000000000081850152606490fd5b50865162461bcd60e51b8152808501869052601b818d01527f4d57473a20446973747269627574696f6e2066696e616c697a6564000000000081850152606490fd5b5050346102e857816003193601126102e8576020906010549051908152f35b925050346102c55760203660031901126102c5573563ffffffff60e01b81168091036102c55760209250637965db0b60e01b8114908115612420575b5015158152f35b6301ffc9a760e01b14905038612419565b9181601f8401121561043c578235916001600160401b03831161043c576020808501948460051b01011161043c57565b602435906001600160a01b038216820361043c57565b600435906001600160a01b038216820361043c57565b90600482101561249a5752565b634e487b7160e01b600052602160045260246000fd5b604090600319011261043c576004359060243590565b9181601f8401121561043c578235916001600160401b03831161043c576020838186019501011161043c57565b600481101561249a576000526003602052604060002090565b1561251357565b606460405162461bcd60e51b815260206004820152602060248201527f4d57473a20446973747269627574696f6e20646f6573206e6f742065786973746044820152fd5b60e081019081106001600160401b0382111761257257604052565b634e487b7160e01b600052604160045260246000fd5b606081019081106001600160401b0382111761257257604052565b6001600160401b03811161257257604052565b90601f801991011681019081106001600160401b0382111761257257604052565b6001600160401b0381116125725760051b60200190565b92916125f9826125d7565b9161260760405193846125b6565b829481845260208094019160051b810192831161043c57905b82821061262d5750505050565b81358152908301908301612620565b9190820391821161264957565b634e487b7160e01b600052601160045260246000fd5b9190820180921161264957565b1561267357565b60405162461bcd60e51b815260206004820152601b60248201527f4d57473a205661756c7473206e6f7420696e697469616c697a656400000000006044820152606490fd5b156126bf57565b60405162461bcd60e51b815260206004820152601f60248201527f4d57473a20496e73756666696369656e74207661756c742062616c616e6365006044820152606490fd5b60001981146126495760010190565b600482101561249a5752565b1561272657565b60405162461bcd60e51b815260206004820152601060248201526f1355d1ce8816995c9bc8185b5bdd5b9d60821b6044820152606490fd5b1561276557565b60405162461bcd60e51b815260206004820152601960248201527f4d57473a20496e73756666696369656e742062616c616e6365000000000000006044820152606490fd5b604051906127b782612588565b60006040838281528260208201520152565b906040516127d681612588565b60406002829480548452600181015460208501520154910152565b156127f857565b60405162461bcd60e51b81526020600482015260146024820152731355d1ce88125b9d985b1a59081858d8dbdd5b9d60621b6044820152606490fd5b1561283b57565b60405162461bcd60e51b81526020600482015260146024820152734d57473a20426174636820746f6f206c6172676560601b6044820152606490fd5b91908110156128875760051b0190565b634e487b7160e01b600052603260045260246000fd5b356001600160a01b038116810361043c5790565b156128b857565b60405162461bcd60e51b81526020600482015260166024820152751355d1ce88125b9d985b1a59081c9958da5c1a595b9d60521b6044820152606490fd5b9190808252602080920192916000805b83821061291557505050505090565b9091929394853560018060a01b0381168091036102c5578152830194830193929160010190612906565b81835290916001600160fb1b03831161043c5760209260051b809284830137010190565b908060209392818452848401376000828201840152601f01601f1916010190565b80518210156128875760209160051b010190565b939192936000948186526004602052604093848720918551926129ba84612557565b805484526001810154602085015260028101548785015260038101546060850190815260ff60056004840154936080880194855201546129ff82821660a08901612713565b60081c161515918260c0870152855115928315612ae4575b508215612ad8575b508115612acd575b50612ac157906121ca612a76939287516020810190612a69816121b18d8c8690916034926bffffffffffffffffffffffff199060601b16825260148201520190565b51902093519236916125ee565b15612ab8578452600560209081528285206001600160a01b039092168552528220549081811115612ab157612aab925061263c565b90600190565b5050612aab565b50505050908190565b50505050505050908190565b905051421038612a27565b51421015915038612a1f565b925038612a17565b6002805414612afb5760028055565b604051633ee5aeb560e01b8152600490fd5b60ff60015416612b1957565b60405163d93c066560e01b8152600490fd5b929091906000915b8451831015612b7a57612b468386612984565b5190600082821015612b695750600052602052600160406000205b920191612b33565b604091600193825260205220612b61565b915092501490565b60405163a9059cbb60e01b60208201526001600160a01b03909216602483015260448083019390935291815260808101916001600160401b0383118284101761257257612bd192604052613286565b565b3360009081527fad3228b676f7d3cd4284a5443f17f1962b36e491b30a40b2405849e597ba5fb5602052604081205460ff1615612c0d5750565b6044906040519063e2517d3f60e01b82523360048301526024820152fd5b3360009081527f34187b4df4dde90344524af04b4bfa2b494efae448e1c13d6ef6a07e10755581602052604090205460008051602061332f8339815191529060ff1615612c0d5750565b3360009081527f9e607de338c7d6508550727646d2998939f27517879a7dd916362b3520e3948760205260409020546000805160206132ef8339815191529060ff1615612c0d5750565b80600052600060205260406000203360005260205260ff6040600020541615612c0d5750565b6001600160a01b031660008181527f9e607de338c7d6508550727646d2998939f27517879a7dd916362b3520e3948760205260408120549091906000805160206132ef8339815191529060ff1615612d6c5780835282602052604083208284526020526040832060ff19815416905560008051602061334f833981519152339380a4600190565b505090565b6001600160a01b031660008181527f34187b4df4dde90344524af04b4bfa2b494efae448e1c13d6ef6a07e10755581602052604081205490919060008051602061332f8339815191529060ff1615612d6c5780835282602052604083208284526020526040832060ff19815416905560008051602061334f833981519152339380a4600190565b6001600160a01b031660008181527fad3228b676f7d3cd4284a5443f17f1962b36e491b30a40b2405849e597ba5fb5602052604081205490919060ff1615612e705781805281602052604082208183526020526040822060ff198154169055339160008051602061334f8339815191528180a4600190565b5090565b9060009180835282602052604083209160018060a01b03169182845260205260ff604084205416600014612d6c5780835282602052604083208284526020526040832060ff19815416905560008051602061334f833981519152339380a4600190565b6001600160a01b031660008181527fad3228b676f7d3cd4284a5443f17f1962b36e491b30a40b2405849e597ba5fb5602052604081205490919060ff16612e7057818052816020526040822081835260205260408220600160ff19825416179055339160008051602061330f8339815191528180a4600190565b6001600160a01b031660008181527f9e607de338c7d6508550727646d2998939f27517879a7dd916362b3520e3948760205260408120549091906000805160206132ef8339815191529060ff16612d6c57808352826020526040832082845260205260408320600160ff1982541617905560008051602061330f833981519152339380a4600190565b6001600160a01b031660008181527f34187b4df4dde90344524af04b4bfa2b494efae448e1c13d6ef6a07e10755581602052604081205490919060008051602061332f8339815191529060ff16612d6c57808352826020526040832082845260205260408320600160ff1982541617905560008051602061330f833981519152339380a4600190565b9060009180835282602052604083209160018060a01b03169182845260205260ff60408420541615600014612d6c57808352826020526040832082845260205260408320600160ff1982541617905560008051602061330f833981519152339380a4600190565b620151804204600c5481116130dc5750565b600c55565b60018060a01b0316600090808252602092600784526040832054600c54146000146131dd576006845261311881604085205461265f565b600e54106131985768056bc75e2d63100000111561313557505050565b815260088252604090205460105461314c9161265f565b42106131555750565b6064906040519062461bcd60e51b825280600483015260248201527f4d57473a20436f6f6c646f776e20706572696f64206e6f7420656c61707365646044820152fd5b60405162461bcd60e51b815260048101859052601960248201527f4d57473a204461696c79206c696d6974206578636565646564000000000000006044820152606490fd5b613118818461265f565b60018060a01b03166000818152600960206007815260409384842054600c540361326d575b6006825284842061321e87825461265f565b905580845282825284842061323487825461265f565b905580845260088252428585205561324e86600a5461265f565b600a5583525220541461325d57565b613268600b54612704565b600b55565b600682528385812055600c54600783528585205561320c565b906000602091828151910182855af1156132e2576000513d6132d957506001600160a01b0381163b155b6132b75750565b604051635274afe760e01b81526001600160a01b039091166004820152602490fd5b600114156132b0565b6040513d6000823e3d90fdfeb814ff4a26ea3ec5cd1fa579daad86324826254265f3acfec78303a19845b4492f8788117e7eff1d82e926ec794901d17c78024a50270940304540a733656f0d9b7946abd96dccbe6cfc6cc2c13300ab429d93e16fa72dc459eeccda73817f08f6391f5c32d9c69d2a47ea670b442974b53935d1edc7fd64eb21e047a839171ba26469706673582212207c2249548ffa3d7288764a181bcdc84be7876620500e4faa21f02c85d57824f764736f6c634300081800332f8788117e7eff1d82e926ec794901d17c78024a50270940304540a733656f0d",
  "linkReferences": {},
  "deployedLinkReferences": {}
}