{
  "_format": "hh-sol-artifact-1",
  "contractName": "MagicWorldGems",
  "sourceName": "contracts/MagicWorldGems.sol",
  "abi": [
    {
      "inputs": [
        {
          "internalType": "string",
          "name": "name",
          "type": "string"
        },
        {
          "internalType": "string",
          "name": "symbol",
          "type": "string"
        },
        {
          "internalType": "uint256",
          "name": "totalSupply",
          "type": "uint256"
        }
      ],
      "stateMutability": "nonpayable",
      "type": "constructor"
    },
    {
      "inputs": [],
      "name": "AccessControlBadConfirmation",
      "type": "error"
    },
    {
      "inputs": [
        {
          "internalType": "address",
          "name": "account",
          "type": "address"
        },
        {
          "internalType": "bytes32",
          "name": "neededRole",
          "type": "bytes32"
        }
      ],
      "name": "AccessControlUnauthorizedAccount",
      "type": "error"
    },
    {
      "inputs": [
        {
          "internalType": "address",
          "name": "spender",
          "type": "address"
        },
        {
          "internalType": "uint256",
          "name": "allowance",
          "type": "uint256"
        },
        {
          "internalType": "uint256",
          "name": "needed",
          "type": "uint256"
        }
      ],
      "name": "ERC20InsufficientAllowance",
      "type": "error"
    },
    {
      "inputs": [
        {
          "internalType": "address",
          "name": "sender",
          "type": "address"
        },
        {
          "internalType": "uint256",
          "name": "balance",
          "type": "uint256"
        },
        {
          "internalType": "uint256",
          "name": "needed",
          "type": "uint256"
        }
      ],
      "name": "ERC20InsufficientBalance",
      "type": "error"
    },
    {
      "inputs": [
        {
          "internalType": "address",
          "name": "approver",
          "type": "address"
        }
      ],
      "name": "ERC20InvalidApprover",
      "type": "error"
    },
    {
      "inputs": [
        {
          "internalType": "address",
          "name": "receiver",
          "type": "address"
        }
      ],
      "name": "ERC20InvalidReceiver",
      "type": "error"
    },
    {
      "inputs": [
        {
          "internalType": "address",
          "name": "sender",
          "type": "address"
        }
      ],
      "name": "ERC20InvalidSender",
      "type": "error"
    },
    {
      "inputs": [
        {
          "internalType": "address",
          "name": "spender",
          "type": "address"
        }
      ],
      "name": "ERC20InvalidSpender",
      "type": "error"
    },
    {
      "inputs": [],
      "name": "EnforcedPause",
      "type": "error"
    },
    {
      "inputs": [],
      "name": "ExpectedPause",
      "type": "error"
    },
    {
      "anonymous": false,
      "inputs": [
        {
          "indexed": true,
          "internalType": "address",
          "name": "account",
          "type": "address"
        },
        {
          "indexed": true,
          "internalType": "address",
          "name": "by",
          "type": "address"
        },
        {
          "indexed": false,
          "internalType": "uint256",
          "name": "timestamp",
          "type": "uint256"
        },
        {
          "indexed": false,
          "internalType": "string",
          "name": "reason",
          "type": "string"
        }
      ],
      "name": "AddressBlacklisted",
      "type": "event"
    },
    {
      "anonymous": false,
      "inputs": [
        {
          "indexed": true,
          "internalType": "address",
          "name": "account",
          "type": "address"
        },
        {
          "indexed": true,
          "internalType": "address",
          "name": "by",
          "type": "address"
        },
        {
          "indexed": false,
          "internalType": "uint256",
          "name": "timestamp",
          "type": "uint256"
        }
      ],
      "name": "AddressUnblacklisted",
      "type": "event"
    },
    {
      "anonymous": false,
      "inputs": [
        {
          "indexed": true,
          "internalType": "address",
          "name": "previousAdmin",
          "type": "address"
        },
        {
          "indexed": true,
          "internalType": "address",
          "name": "newAdmin",
          "type": "address"
        }
      ],
      "name": "AdminTransferred",
      "type": "event"
    },
    {
      "anonymous": false,
      "inputs": [
        {
          "indexed": true,
          "internalType": "address",
          "name": "owner",
          "type": "address"
        },
        {
          "indexed": true,
          "internalType": "address",
          "name": "spender",
          "type": "address"
        },
        {
          "indexed": false,
          "internalType": "uint256",
          "name": "value",
          "type": "uint256"
        }
      ],
      "name": "Approval",
      "type": "event"
    },
    {
      "anonymous": false,
      "inputs": [
        {
          "indexed": true,
          "internalType": "address",
          "name": "operator",
          "type": "address"
        },
        {
          "indexed": false,
          "internalType": "uint256",
          "name": "totalAmount",
          "type": "uint256"
        },
        {
          "indexed": false,
          "internalType": "uint256",
          "name": "recipientCount",
          "type": "uint256"
        }
      ],
      "name": "BatchTransfer",
      "type": "event"
    },
    {
      "anonymous": false,
      "inputs": [
        {
          "indexed": true,
          "internalType": "address",
          "name": "operator",
          "type": "address"
        },
        {
          "indexed": false,
          "internalType": "address[]",
          "name": "recipients",
          "type": "address[]"
        },
        {
          "indexed": false,
          "internalType": "uint256",
          "name": "amount",
          "type": "uint256"
        }
      ],
      "name": "BatchTransferEqual",
      "type": "event"
    },
    {
      "anonymous": false,
      "inputs": [
        {
          "indexed": false,
          "internalType": "address",
          "name": "account",
          "type": "address"
        }
      ],
      "name": "Paused",
      "type": "event"
    },
    {
      "anonymous": false,
      "inputs": [
        {
          "indexed": true,
          "internalType": "bytes32",
          "name": "role",
          "type": "bytes32"
        },
        {
          "indexed": true,
          "internalType": "bytes32",
          "name": "previousAdminRole",
          "type": "bytes32"
        },
        {
          "indexed": true,
          "internalType": "bytes32",
          "name": "newAdminRole",
          "type": "bytes32"
        }
      ],
      "name": "RoleAdminChanged",
      "type": "event"
    },
    {
      "anonymous": false,
      "inputs": [
        {
          "indexed": true,
          "internalType": "bytes32",
          "name": "role",
          "type": "bytes32"
        },
        {
          "indexed": true,
          "internalType": "address",
          "name": "account",
          "type": "address"
        },
        {
          "indexed": true,
          "internalType": "address",
          "name": "sender",
          "type": "address"
        }
      ],
      "name": "RoleGranted",
      "type": "event"
    },
    {
      "anonymous": false,
      "inputs": [
        {
          "indexed": true,
          "internalType": "bytes32",
          "name": "role",
          "type": "bytes32"
        },
        {
          "indexed": true,
          "internalType": "address",
          "name": "account",
          "type": "address"
        },
        {
          "indexed": true,
          "internalType": "address",
          "name": "sender",
          "type": "address"
        }
      ],
      "name": "RoleRevoked",
      "type": "event"
    },
    {
      "anonymous": false,
      "inputs": [
        {
          "indexed": true,
          "internalType": "address",
          "name": "from",
          "type": "address"
        },
        {
          "indexed": true,
          "internalType": "address",
          "name": "to",
          "type": "address"
        },
        {
          "indexed": false,
          "internalType": "uint256",
          "name": "value",
          "type": "uint256"
        }
      ],
      "name": "Transfer",
      "type": "event"
    },
    {
      "anonymous": false,
      "inputs": [
        {
          "indexed": true,
          "internalType": "address",
          "name": "account",
          "type": "address"
        },
        {
          "indexed": true,
          "internalType": "address",
          "name": "by",
          "type": "address"
        },
        {
          "indexed": false,
          "internalType": "uint256",
          "name": "effectiveTime",
          "type": "uint256"
        }
      ],
      "name": "UnblacklistRequested",
      "type": "event"
    },
    {
      "anonymous": false,
      "inputs": [
        {
          "indexed": false,
          "internalType": "uint256",
          "name": "oldTimelock",
          "type": "uint256"
        },
        {
          "indexed": false,
          "internalType": "uint256",
          "name": "newTimelock",
          "type": "uint256"
        },
        {
          "indexed": true,
          "internalType": "address",
          "name": "updatedBy",
          "type": "address"
        }
      ],
      "name": "UnblacklistTimelockUpdated",
      "type": "event"
    },
    {
      "anonymous": false,
      "inputs": [
        {
          "indexed": false,
          "internalType": "address",
          "name": "account",
          "type": "address"
        }
      ],
      "name": "Unpaused",
      "type": "event"
    },
    {
      "inputs": [],
      "name": "BLACKLIST_MANAGER_ROLE",
      "outputs": [
        {
          "internalType": "bytes32",
          "name": "",
          "type": "bytes32"
        }
      ],
      "stateMutability": "view",
      "type": "function"
    },
    {
      "inputs": [],
      "name": "DEFAULT_ADMIN_ROLE",
      "outputs": [
        {
          "internalType": "bytes32",
          "name": "",
          "type": "bytes32"
        }
      ],
      "stateMutability": "view",
      "type": "function"
    },
    {
      "inputs": [],
      "name": "GAME_OPERATOR_ROLE",
      "outputs": [
        {
          "internalType": "bytes32",
          "name": "",
          "type": "bytes32"
        }
      ],
      "stateMutability": "view",
      "type": "function"
    },
    {
      "inputs": [],
      "name": "MAX_BATCH_SIZE",
      "outputs": [
        {
          "internalType": "uint256",
          "name": "",
          "type": "uint256"
        }
      ],
      "stateMutability": "view",
      "type": "function"
    },
    {
      "inputs": [],
      "name": "MAX_BLACKLIST_BATCH_SIZE",
      "outputs": [
        {
          "internalType": "uint256",
          "name": "",
          "type": "uint256"
        }
      ],
      "stateMutability": "view",
      "type": "function"
    },
    {
      "inputs": [],
      "name": "MAX_UNBLACKLIST_TIMELOCK",
      "outputs": [
        {
          "internalType": "uint256",
          "name": "",
          "type": "uint256"
        }
      ],
      "stateMutability": "view",
      "type": "function"
    },
    {
      "inputs": [],
      "name": "MIN_UNBLACKLIST_TIMELOCK",
      "outputs": [
        {
          "internalType": "uint256",
          "name": "",
          "type": "uint256"
        }
      ],
      "stateMutability": "view",
      "type": "function"
    },
    {
      "inputs": [],
      "name": "PAUSE_ROLE",
      "outputs": [
        {
          "internalType": "bytes32",
          "name": "",
          "type": "bytes32"
        }
      ],
      "stateMutability": "view",
      "type": "function"
    },
    {
      "inputs": [
        {
          "internalType": "address",
          "name": "owner",
          "type": "address"
        },
        {
          "internalType": "address",
          "name": "spender",
          "type": "address"
        }
      ],
      "name": "allowance",
      "outputs": [
        {
          "internalType": "uint256",
          "name": "",
          "type": "uint256"
        }
      ],
      "stateMutability": "view",
      "type": "function"
    },
    {
      "inputs": [
        {
          "internalType": "address",
          "name": "spender",
          "type": "address"
        },
        {
          "internalType": "uint256",
          "name": "value",
          "type": "uint256"
        }
      ],
      "name": "approve",
      "outputs": [
        {
          "internalType": "bool",
          "name": "",
          "type": "bool"
        }
      ],
      "stateMutability": "nonpayable",
      "type": "function"
    },
    {
      "inputs": [
        {
          "internalType": "address",
          "name": "account",
          "type": "address"
        }
      ],
      "name": "balanceOf",
      "outputs": [
        {
          "internalType": "uint256",
          "name": "",
          "type": "uint256"
        }
      ],
      "stateMutability": "view",
      "type": "function"
    },
    {
      "inputs": [
        {
          "internalType": "address[]",
          "name": "recipients",
          "type": "address[]"
        },
        {
          "internalType": "uint256[]",
          "name": "amounts",
          "type": "uint256[]"
        }
      ],
      "name": "batchTransfer",
      "outputs": [],
      "stateMutability": "nonpayable",
      "type": "function"
    },
    {
      "inputs": [
        {
          "internalType": "address[]",
          "name": "recipients",
          "type": "address[]"
        },
        {
          "internalType": "uint256",
          "name": "amount",
          "type": "uint256"
        }
      ],
      "name": "batchTransferEqual",
      "outputs": [],
      "stateMutability": "nonpayable",
      "type": "function"
    },
    {
      "inputs": [
        {
          "internalType": "address",
          "name": "account",
          "type": "address"
        },
        {
          "internalType": "string",
          "name": "reason",
          "type": "string"
        }
      ],
      "name": "blacklistAddress",
      "outputs": [],
      "stateMutability": "nonpayable",
      "type": "function"
    },
    {
      "inputs": [
        {
          "internalType": "address[]",
          "name": "accounts",
          "type": "address[]"
        },
        {
          "internalType": "string",
          "name": "reason",
          "type": "string"
        }
      ],
      "name": "blacklistAddresses",
      "outputs": [],
      "stateMutability": "nonpayable",
      "type": "function"
    },
    {
      "inputs": [
        {
          "internalType": "address",
          "name": "account",
          "type": "address"
        }
      ],
      "name": "cancelUnblacklistRequest",
      "outputs": [],
      "stateMutability": "nonpayable",
      "type": "function"
    },
    {
      "inputs": [],
      "name": "decimals",
      "outputs": [
        {
          "internalType": "uint8",
          "name": "",
          "type": "uint8"
        }
      ],
      "stateMutability": "view",
      "type": "function"
    },
    {
      "inputs": [
        {
          "internalType": "address",
          "name": "account",
          "type": "address"
        }
      ],
      "name": "executeUnblacklist",
      "outputs": [],
      "stateMutability": "nonpayable",
      "type": "function"
    },
    {
      "inputs": [
        {
          "internalType": "address",
          "name": "account",
          "type": "address"
        }
      ],
      "name": "getBlacklistInfo",
      "outputs": [
        {
          "internalType": "bool",
          "name": "blacklisted",
          "type": "bool"
        },
        {
          "internalType": "uint256",
          "name": "blacklistedAt",
          "type": "uint256"
        },
        {
          "internalType": "uint256",
          "name": "unblacklistRequestTime",
          "type": "uint256"
        }
      ],
      "stateMutability": "view",
      "type": "function"
    },
    {
      "inputs": [],
      "name": "getMaxBatchSize",
      "outputs": [
        {
          "internalType": "uint256",
          "name": "",
          "type": "uint256"
        }
      ],
      "stateMutability": "pure",
      "type": "function"
    },
    {
      "inputs": [
        {
          "internalType": "bytes32",
          "name": "role",
          "type": "bytes32"
        }
      ],
      "name": "getRoleAdmin",
      "outputs": [
        {
          "internalType": "bytes32",
          "name": "",
          "type": "bytes32"
        }
      ],
      "stateMutability": "view",
      "type": "function"
    },
    {
      "inputs": [
        {
          "internalType": "bytes32",
          "name": "role",
          "type": "bytes32"
        },
        {
          "internalType": "address",
          "name": "account",
          "type": "address"
        }
      ],
      "name": "grantRole",
      "outputs": [],
      "stateMutability": "nonpayable",
      "type": "function"
    },
    {
      "inputs": [
        {
          "internalType": "bytes32",
          "name": "role",
          "type": "bytes32"
        },
        {
          "internalType": "address",
          "name": "account",
          "type": "address"
        }
      ],
      "name": "hasRole",
      "outputs": [
        {
          "internalType": "bool",
          "name": "",
          "type": "bool"
        }
      ],
      "stateMutability": "view",
      "type": "function"
    },
    {
      "inputs": [
        {
          "internalType": "address",
          "name": "account",
          "type": "address"
        }
      ],
      "name": "isBlacklisted",
      "outputs": [
        {
          "internalType": "bool",
          "name": "",
          "type": "bool"
        }
      ],
      "stateMutability": "view",
      "type": "function"
    },
    {
      "inputs": [],
      "name": "name",
      "outputs": [
        {
          "internalType": "string",
          "name": "",
          "type": "string"
        }
      ],
      "stateMutability": "view",
      "type": "function"
    },
    {
      "inputs": [],
      "name": "pause",
      "outputs": [],
      "stateMutability": "nonpayable",
      "type": "function"
    },
    {
      "inputs": [],
      "name": "paused",
      "outputs": [
        {
          "internalType": "bool",
          "name": "",
          "type": "bool"
        }
      ],
      "stateMutability": "view",
      "type": "function"
    },
    {
      "inputs": [
        {
          "internalType": "bytes32",
          "name": "role",
          "type": "bytes32"
        },
        {
          "internalType": "address",
          "name": "callerConfirmation",
          "type": "address"
        }
      ],
      "name": "renounceRole",
      "outputs": [],
      "stateMutability": "nonpayable",
      "type": "function"
    },
    {
      "inputs": [
        {
          "internalType": "address",
          "name": "account",
          "type": "address"
        }
      ],
      "name": "requestUnblacklist",
      "outputs": [],
      "stateMutability": "nonpayable",
      "type": "function"
    },
    {
      "inputs": [
        {
          "internalType": "bytes32",
          "name": "role",
          "type": "bytes32"
        },
        {
          "internalType": "address",
          "name": "account",
          "type": "address"
        }
      ],
      "name": "revokeRole",
      "outputs": [],
      "stateMutability": "nonpayable",
      "type": "function"
    },
    {
      "inputs": [
        {
          "internalType": "uint256",
          "name": "newTimelock",
          "type": "uint256"
        }
      ],
      "name": "setUnblacklistTimelock",
      "outputs": [],
      "stateMutability": "nonpayable",
      "type": "function"
    },
    {
      "inputs": [
        {
          "internalType": "bytes4",
          "name": "interfaceId",
          "type": "bytes4"
        }
      ],
      "name": "supportsInterface",
      "outputs": [
        {
          "internalType": "bool",
          "name": "",
          "type": "bool"
        }
      ],
      "stateMutability": "view",
      "type": "function"
    },
    {
      "inputs": [],
      "name": "symbol",
      "outputs": [
        {
          "internalType": "string",
          "name": "",
          "type": "string"
        }
      ],
      "stateMutability": "view",
      "type": "function"
    },
    {
      "inputs": [],
      "name": "totalSupply",
      "outputs": [
        {
          "internalType": "uint256",
          "name": "",
          "type": "uint256"
        }
      ],
      "stateMutability": "view",
      "type": "function"
    },
    {
      "inputs": [
        {
          "internalType": "address",
          "name": "to",
          "type": "address"
        },
        {
          "internalType": "uint256",
          "name": "amount",
          "type": "uint256"
        }
      ],
      "name": "transfer",
      "outputs": [
        {
          "internalType": "bool",
          "name": "",
          "type": "bool"
        }
      ],
      "stateMutability": "nonpayable",
      "type": "function"
    },
    {
      "inputs": [
        {
          "internalType": "address",
          "name": "newAdmin",
          "type": "address"
        }
      ],
      "name": "transferAdmin",
      "outputs": [],
      "stateMutability": "nonpayable",
      "type": "function"
    },
    {
      "inputs": [
        {
          "internalType": "address",
          "name": "from",
          "type": "address"
        },
        {
          "internalType": "address",
          "name": "to",
          "type": "address"
        },
        {
          "internalType": "uint256",
          "name": "amount",
          "type": "uint256"
        }
      ],
      "name": "transferFrom",
      "outputs": [
        {
          "internalType": "bool",
          "name": "",
          "type": "bool"
        }
      ],
      "stateMutability": "nonpayable",
      "type": "function"
    },
    {
      "inputs": [],
      "name": "unblacklistTimelock",
      "outputs": [
        {
          "internalType": "uint256",
          "name": "",
          "type": "uint256"
        }
      ],
      "stateMutability": "view",
      "type": "function"
    },
    {
      "inputs": [],
      "name": "unpause",
      "outputs": [],
      "stateMutability": "nonpayable",
      "type": "function"
    }
  ],
  "bytecode": "0x60406080815234620003cb576200262d803803806200001e81620003d0565b9283398101606082820312620003cb5781516001600160401b039290838111620003cb578262000050918301620003f6565b60209283830151858111620003cb5786916200006e918501620003f6565b920151938151818111620002cb576003908154906001948583811c93168015620003c0575b88841014620003aa578190601f9384811162000354575b508890848311600114620002ed57600092620002e1575b505060001982851b1c191690851b1782555b8451928311620002cb5760049485548581811c91168015620002c0575b88821014620002ab5782811162000260575b5086918411600114620001f557938394918492600095620001e9575b50501b92600019911b1c19161781555b6203f480600755620001403362000468565b506200014c33620004e9565b5062000158336200058c565b503315620001d25760025490838201809211620001bd57506000917fddf252ad1be2c89b69c2b068fc378daa952ba7f163c4a11628f55a4df523b3ef9160025533835282815284832084815401905584519384523393a351611fe290816200062b8239f35b601190634e487b7160e01b6000525260246000fd5b602490600085519163ec442f0560e01b8352820152fd5b0151935038806200011e565b9190601f198416928660005284886000209460005b8a898383106200024857505050106200022d575b50505050811b0181556200012e565b01519060f884600019921b161c19169055388080806200021e565b8686015189559097019694850194889350016200020a565b86600052876000208380870160051c8201928a8810620002a1575b0160051c019086905b8281106200029457505062000102565b6000815501869062000284565b925081926200027b565b602287634e487b7160e01b6000525260246000fd5b90607f1690620000f0565b634e487b7160e01b600052604160045260246000fd5b015190503880620000c1565b90879350601f19831691866000528a6000209260005b8c8282106200033d575050841162000324575b505050811b018255620000d3565b015160001983871b60f8161c1916905538808062000316565b8385015186558b9790950194938401930162000303565b90915084600052886000208480850160051c8201928b8610620003a0575b918991869594930160051c01915b82811062000390575050620000aa565b6000815585945089910162000380565b9250819262000372565b634e487b7160e01b600052602260045260246000fd5b92607f169262000093565b600080fd5b6040519190601f01601f191682016001600160401b03811183821017620002cb57604052565b919080601f84011215620003cb5782516001600160401b038111620002cb576020906200042c601f8201601f19168301620003d0565b92818452828287010111620003cb5760005b8181106200045457508260009394955001015290565b85810183015184820184015282016200043e565b6001600160a01b031660008181527f05b8ccbb9d4d8fb16ea74ce3c29a41f1b461fbdaff4714a0d9a8eb05499746bc602052604081205490919060ff16620004e55781805260056020526040822081835260205260408220600160ff1982541617905533916000805160206200260d8339815191528180a4600190565b5090565b6001600160a01b031660008181527f02321e94d40847f2658a42722631f98abe2722cedcf64b586223ef22fc35c8d560205260408120549091907f139c2898040ef16910dc9f44dc697df79363da767d8bc92f2e310312b816e46d9060ff16620005875780835260056020526040832082845260205260408320600160ff198254161790556000805160206200260d833981519152339380a4600190565b505090565b6001600160a01b031660008181527fde0ca2cbd9b6fbf87126615f50db4b5fd3bed3cfa4a7d0ab6a2da5bac06a7d3f60205260408120549091907ff988e4fb62b8e14f4820fed03192306ddf4d7dbfa215595ba1c6ba4b76b369ee9060ff16620005875780835260056020526040832082845260205260408320600160ff198254161790556000805160206200260d833981519152339380a460019056fe608060408181526004918236101561001657600080fd5b600092833560e01c91826301ffc9a7146117b45750816306fdde03146116d8578163095ea7b31461162e57816318160ddd1461160f578163194ef60b146114345781631cc17b631461134957816323b872dd14611248578163248a9ca31461121d5781632f2ff15d146111f3578163313ce567146111d757816336568abe14611191578163367ef7da14611061578163389ed267146110265781633985effb14610df25781633f4ba83a14610d88578163410b242414610d5f57816342e7e7ed14610d4357816356effbf514610c5a5781635c975abb14610c3657816362a2ecdf14610ab25781636b8fbdc414610a585781636bfbc13a14610a1d57816370a08231146109e657816371f8fa041461084257816375829def146107425781637ee0ff6b1461072457816384137055146107055781638456cb59146106aa57816388d695b2146104af57816391d148541461046857816395d89b4114610347578163a217fddf1461032c578163a2982b291461030e578163a9059cbb146102d5578163cfdbf254146102b9578163d547741f1461027557508063dd62ed3e1461022d578063e7c00f6e146102125763fe575a87146101d257600080fd5b3461020e57602036600319011261020e5760209160ff9082906001600160a01b036101fb611850565b1681526008855220541690519015158152f35b5080fd5b503461020e578160031936011261020e576020905160c88152f35b503461020e578060031936011261020e578060209261024a611850565b61025261186b565b6001600160a01b0391821683526001865283832091168252845220549051908152f35b919050346102b557806003193601126102b5576102b191356102ac600161029a61186b565b93838752600560205286200154611bf7565b611dd7565b5080f35b8280fd5b50503461020e578160031936011261020e576020905160c88152f35b50503461020e578060031936011261020e576020906103076102f5611850565b6102fd611c1d565b6024359033611e4e565b5160018152f35b50503461020e578160031936011261020e576020905162278d008152f35b50503461020e578160031936011261020e5751908152602090f35b83833461020e578160031936011261020e5780519082845460018160011c906001831692831561045e575b602093848410811461044b5783885290811561042f57506001146103da575b505050829003601f01601f191682019267ffffffffffffffff8411838510176103c757508291826103c3925282611807565b0390f35b634e487b7160e01b815260418552602490fd5b8787529192508591837f8a35acfbc15ff81a39ae7d344fd709f28e8600b4aa8c65c6b64bfe7fe36bd19b5b83851061041b5750505050830101858080610391565b805488860183015293019284908201610405565b60ff1916878501525050151560051b8401019050858080610391565b634e487b7160e01b895260228a52602489fd5b91607f1691610372565b9050346102b557816003193601126102b5578160209360ff9261048961186b565b90358252600586528282206001600160a01b039091168252855220549151911615158152f35b83833461020e578060031936011261020e5767ffffffffffffffff9083358281116106a6576104e19036908601611881565b90946024936024359081116106a2576104fd9036908301611881565b610508959195611b3f565b610510611c1d565b80840361065f5783156106285761052a60c8851115611a03565b8695875b85811061056a5788887f762d9d59f4cdcadad8125dfd5b9228c3f3710c17cd800b7e446f4bacba81a69f8989815193845260208401523392a280f35b61057d61057882888d61192c565b611952565b9761059461058c83868661192c565b351515611a4f565b6001808301808411610616576001600160a01b038b8116918e905b8b8082106105f357505050505050906105ed6105d96001936105d284888861192c565b35906119e0565b996105e583878761192c565b359033611e4e565b0161052e565b906106108585610608610578858b978961192c565b161415611a9b565b016105af565b634e487b7160e01b8c5260118852868cfd5b845162461bcd60e51b815260208185015260116024820152704d57473a20456d7074792061727261797360781b6044820152606490fd5b845162461bcd60e51b8152602081850152601a60248201527f4d57473a204172726179206c656e677468206d69736d617463680000000000006044820152606490fd5b8580fd5b8380fd5b50503461020e578160031936011261020e5760207f62e78cea01bee320cd4e420270b5ea74000d11b0c9f74754ebdbfc544b05a258916106e8611b9b565b6106f0611c1d565b600160ff19600654161760065551338152a180f35b50503461020e578160031936011261020e576020906007549051908152f35b50503461020e578160031936011261020e5760209051620151808152f35b9050346102b55760203660031901126102b55761075d611850565b90610766611ae7565b6001600160a01b0382169283156107ff573384146107bc57505061078990611c3b565b5061079333611d4c565b50337ff8ccb027dfcd135e000e9d45e6cc2d662578a8825d4c45b5e32e0adf67e79ec68380a380f35b906020606492519162461bcd60e51b8352820152601f60248201527f4d57473a204e65772061646d696e2069732063757272656e742061646d696e006044820152fd5b906020606492519162461bcd60e51b8352820152601e60248201527f4d57473a204e65772061646d696e206973207a65726f206164647265737300006044820152fd5b9050346102b557816003193601126102b55761085c611850565b9160243567ffffffffffffffff81116109e25761087c90369084016118b2565b919093600080516020611f8d833981519152865260209060058252828720338852825260ff838820541680156109c6575b6108b6906118e0565b6001600160a01b031693841561097a578487526008825260ff838820541661093957509161093391600a7f8b9448e4aabf66adc1656b8eeb6f5665ac50835644b954cc314c00019febf5e69486895260088152828920600160ff198254161790556009815242838a20555286818120555191829133964284611966565b0390a380f35b915162461bcd60e51b815291820181905260248201527f4d57473a204164647265737320616c726561647920626c61636b6c69737465646044820152606490fd5b915162461bcd60e51b815291820152602260248201527f4d57473a2043616e6e6f7420626c61636b6c697374207a65726f206164647265604482015261737360f01b6064820152608490fd5b508680526005825282872033885282528287205460ff166108ad565b8480fd5b50503461020e57602036600319011261020e5760209181906001600160a01b03610a0e611850565b16815280845220549051908152f35b50503461020e578160031936011261020e57602090517f47bdabde1e750b84b979caae0fef544935c3c8ebe23eed8fca4b8f45e462b6298152f35b50503461020e57602036600319011261020e576060916001600160a01b03610a7e611850565b168152600860205260ff8282205416916009602052808083205492600a602052205491815193151584526020840152820152f35b9050346102b557602091826003193601126106a657610acf611850565b600080516020611f8d833981519152855260058452818520338652845260ff82862054168015610c1a575b610b03906118e0565b6001600160a01b03168085526008845281852054909290610b269060ff16611994565b828552600a84528185205415610bd957828552600a8452818520544210610b9957507f6f1fcf872c33cff56479d33f51e1747c09fc15dc6116a4006367732d13ab7bbd908285526008845280852060ff198154169055600984528481812055600a8452848181205551924284523393a380f35b8380606493519262461bcd60e51b845283015260248201527f4d57473a2054696d656c6f636b20706572696f64206e6f7420656c61707365646044820152fd5b83606492519162461bcd60e51b8352820152601e60248201527f4d57473a20556e626c61636b6c697374206e6f742072657175657374656400006044820152fd5b508480526005845281852033865284528185205460ff16610afa565b50503461020e578160031936011261020e5760209060ff6006541690519015158152f35b8391503461020e57602090816003193601126102b557610c78611850565b600080516020611f8d833981519152845260058352848420338552835260ff85852054168015610d27575b610cac906118e0565b6001600160a01b0316808452600a83528484205490919015610cd85750829391600a9184525281205580f35b845162461bcd60e51b8152908101839052602360248201527f4d57473a204e6f2070656e64696e6720756e626c61636b6c6973742072657175604482015262195cdd60ea1b6064820152608490fd5b508380526005835284842033855283528484205460ff16610ca3565b50503461020e578160031936011261020e576020905160648152f35b50503461020e578160031936011261020e5760209051600080516020611f8d8339815191528152f35b9050346102b557826003193601126102b557610da2611b9b565b6006549060ff821615610de4575060ff1916600655513381527f5db9ee0a495bf2e6ff9c91a7834c1ba4fdd244a5e8aa4e537bd38aeae4b073aa90602090a180f35b8251638dfc202b60e01b8152fd5b919050346102b557806003193601126102b557813567ffffffffffffffff81116106a657610e239036908401611881565b602493919360243592610e34611b3f565b610e3c611c1d565b8215610fe357610e4f60c8841115611a03565b831591610e5c8315611a4f565b8385029285840485141715610fd057338852602092886020528689205410610f8d57875b848110610f0557505050908084519480860190865252606084019491865b828110610ed7576020860185905287337f3e231a51afbf8618c16e231009850fe5f408ec9b98b4a71c3a0436ee70606169888a0389a280f35b9091929586359060018060a01b038216809203610f01579081528201958201929190600101610e9e565b8880fd5b610f1361057882878b61192c565b6001808301808411610f7b57889291906001600160a01b03808416918a8e5b818310610f535750505050505060019291610f4d9133611e4e565b01610e80565b85969750938361060861057885610f6d95859a989961192c565b01908a949392918a8e610f32565b634e487b7160e01b8c5260118652848cfd5b855162461bcd60e51b8152602081840152601960248201527f4d57473a20496e73756666696369656e742062616c616e6365000000000000006044820152606490fd5b634e487b7160e01b885260118252602488fd5b606490602086519162461bcd60e51b8352820152601b60248201527f4d57473a20456d70747920726563697069656e747320617272617900000000006044820152fd5b50503461020e578160031936011261020e57602090517f139c2898040ef16910dc9f44dc697df79363da767d8bc92f2e310312b816e46d8152f35b9050346102b5576020806003193601126106a65761107d611850565b600080516020611f8d833981519152855260058252838520338652825260ff84862054168015611175575b6110b1906118e0565b6001600160a01b031680855260088252838520549092906110d49060ff16611994565b828552600a82528385205461112957507ff868b6f8724d7edd4653127834624b612c6602686ba1ceb3c9f148941daabfbf90611112600754426119e0565b93838652600a82528481872055519384523393a380f35b60849184519162461bcd60e51b8352820152602260248201527f4d57473a20556e626c61636b6c69737420616c72656164792072657175657374604482015261195960f21b6064820152fd5b508480526005825283852033865282528385205460ff166110a8565b83833461020e578060031936011261020e576111ab61186b565b90336001600160a01b038316036111c857506102b1919235611dd7565b5163334bd91960e11b81528390fd5b50503461020e578160031936011261020e576020905160128152f35b919050346102b557806003193601126102b5576102b19135611218600161029a61186b565b611ccc565b9050346102b55760203660031901126102b55781602093600192358152600585522001549051908152f35b9050823461134657606036600319011261134657611264611850565b61126c61186b565b9160443593611279611c1d565b6001600160a01b038316808352600160209081528784203385529052868320549160001983106112b2575b602088610307898989611e4e565b86831061131a5781156113035733156112ec57508252600160209081528683203384528152918690209085900390558290610307876112a4565b8751634a1406b160e11b8152908101849052602490fd5b875163e602df0560e01b8152908101849052602490fd5b8751637dc7a0d960e11b8152339181019182526020820193909352604081018790528291506060010390fd5b80fd5b919050346102b55760203660031901126102b557813591611368611ae7565b6201518083106113f25762278d0083116113b757507ff448a40e26962f42716006d8108e16c06e0b80c058a6f70c6437313e5d4d16d0906007549280600755815193845260208401523392a280f35b6020606492519162461bcd60e51b835282015260166024820152754d57473a2054696d656c6f636b20746f6f206c6f6e6760501b6044820152fd5b6020606492519162461bcd60e51b8352820152601760248201527f4d57473a2054696d656c6f636b20746f6f2073686f72740000000000000000006044820152fd5b919050346102b557806003193601126102b55767ffffffffffffffff9180358381116109e2576114679036908301611881565b936024359081116106a25761147f90369084016118b2565b9093600080516020611f8d833981519152875260209260058452818820338952845260ff9460ff838a20541680156115f3575b6114bb906118e0565b87156115bd576064881161157a5750875b8781106114d7578880f35b600190876001600160a01b036114f1610578848d8861192c565b1680158015611567575b61156057808c5260088852858c208460ff198254161790556009885242868d2055600a88528b868120557f8b9448e4aabf66adc1656b8eeb6f5665ac50835644b954cc314c00019febf5e68651806115568a33964284611966565b0390a35b016114cc565b505061155a565b50808c526008885288868d2054166114fb565b825162461bcd60e51b8152908101859052601f60248201527f4d57473a2042617463682073697a652065786365656473206d6178696d756d006044820152606490fd5b825162461bcd60e51b8152908101859052601060248201526f4d57473a20456d70747920617272617960801b6044820152606490fd5b5088805260058552828920338a5285528289205460ff166114b2565b50503461020e578160031936011261020e576020906002549051908152f35b9050346102b557816003193601126102b557611648611850565b6024359033156116c1576001600160a01b03169182156116aa57508083602095338152600187528181208582528752205582519081527f8c5be1e5ebec7d5bd14f71427d1e84f3dd0314c0f7b2291e5b200ac8c7c3b925843392a35160018152f35b8351634a1406b160e11b8152908101859052602490fd5b835163e602df0560e01b8152808401869052602490fd5b83833461020e578160031936011261020e578051908260035460018160011c90600183169283156117aa575b602093848410811461044b5783885290811561042f575060011461175457505050829003601f01601f191682019267ffffffffffffffff8411838510176103c757508291826103c3925282611807565b600387529192508591837fc2575a0e9e593c00f959f8c92f12db2869c3395a3b0502d05e2516446f71f85b5b8385106117965750505050830101858080610391565b805488860183015293019284908201611780565b91607f1691611704565b8491346102b55760203660031901126102b5573563ffffffff60e01b81168091036102b55760209250637965db0b60e01b81149081156117f6575b5015158152f35b6301ffc9a760e01b149050836117ef565b6020808252825181830181905290939260005b82811061183c57505060409293506000838284010152601f8019910116010190565b81810186015184820160400152850161181a565b600435906001600160a01b038216820361186657565b600080fd5b602435906001600160a01b038216820361186657565b9181601f840112156118665782359167ffffffffffffffff8311611866576020808501948460051b01011161186657565b9181601f840112156118665782359167ffffffffffffffff8311611866576020838186019501011161186657565b156118e757565b60405162461bcd60e51b815260206004820152601d60248201527f4d57473a2043616c6c6572206973206e6f7420617574686f72697a65640000006044820152606490fd5b919081101561193c5760051b0190565b634e487b7160e01b600052603260045260246000fd5b356001600160a01b03811681036118665790565b91926060938192845260406020850152816040850152848401376000828201840152601f01601f1916010190565b1561199b57565b60405162461bcd60e51b815260206004820152601c60248201527f4d57473a2041646472657373206e6f7420626c61636b6c6973746564000000006044820152606490fd5b919082018092116119ed57565b634e487b7160e01b600052601160045260246000fd5b15611a0a57565b60405162461bcd60e51b815260206004820152601960248201527f4d57473a2042617463682073697a6520746f6f206c61726765000000000000006044820152606490fd5b15611a5657565b60405162461bcd60e51b815260206004820152601960248201527f4d57473a205a65726f20616d6f756e74207472616e73666572000000000000006044820152606490fd5b15611aa257565b60405162461bcd60e51b815260206004820152601860248201527f4d57473a204475706c696361746520726563697069656e7400000000000000006044820152606490fd5b3360009081527f05b8ccbb9d4d8fb16ea74ce3c29a41f1b461fbdaff4714a0d9a8eb05499746bc602052604081205460ff1615611b215750565b6044906040519063e2517d3f60e01b82523360048301526024820152fd5b3360009081527fec8ba7686be9676478b0757b37c2b58e5863238357bed401fc8fa4363a7ded3860205260409020547f47bdabde1e750b84b979caae0fef544935c3c8ebe23eed8fca4b8f45e462b6299060ff1615611b215750565b3360009081527f02321e94d40847f2658a42722631f98abe2722cedcf64b586223ef22fc35c8d560205260409020547f139c2898040ef16910dc9f44dc697df79363da767d8bc92f2e310312b816e46d9060ff1615611b215750565b80600052600560205260406000203360005260205260ff6040600020541615611b215750565b60ff60065416611c2957565b60405163d93c066560e01b8152600490fd5b6001600160a01b031660008181527f05b8ccbb9d4d8fb16ea74ce3c29a41f1b461fbdaff4714a0d9a8eb05499746bc602052604081205490919060ff16611cc85781805260056020526040822081835260205260408220600160ff1982541617905533917f2f8788117e7eff1d82e926ec794901d17c78024a50270940304540a733656f0d8180a4600190565b5090565b906000918083526005602052604083209160018060a01b03169182845260205260ff60408420541615600014611d475780835260056020526040832082845260205260408320600160ff198254161790557f2f8788117e7eff1d82e926ec794901d17c78024a50270940304540a733656f0d339380a4600190565b505090565b6001600160a01b031660008181527f05b8ccbb9d4d8fb16ea74ce3c29a41f1b461fbdaff4714a0d9a8eb05499746bc602052604081205490919060ff1615611cc8578180526005602052604082208183526020526040822060ff19815416905533917ff6391f5c32d9c69d2a47ea670b442974b53935d1edc7fd64eb21e047a839171b8180a4600190565b906000918083526005602052604083209160018060a01b03169182845260205260ff604084205416600014611d47578083526005602052604083208284526020526040832060ff1981541690557ff6391f5c32d9c69d2a47ea670b442974b53935d1edc7fd64eb21e047a839171b339380a4600190565b916001600160a01b03808416928315611f735716928315611f5a576000838152600860205260409160ff8383205416611f0b57848252816020528282205490848210611eda575091808285602095887fddf252ad1be2c89b69c2b068fc378daa952ba7f163c4a11628f55a4df523b3ef98965282875203828220558781522082815401905551908152a3565b835163391434e360e21b81526001600160a01b03919091166004820152602481019190915260448101849052606490fd5b825162461bcd60e51b815260206004820152602260248201527f4d57473a2053656e646572206164647265737320697320626c61636b6c697374604482015261195960f21b6064820152608490fd5b60405163ec442f0560e01b815260006004820152602490fd5b604051634b637e8f60e11b815260006004820152602490fdfef988e4fb62b8e14f4820fed03192306ddf4d7dbfa215595ba1c6ba4b76b369eea2646970667358221220713e5a84aaac963e2058af565e4377d6cdbe22ea75f254e5deac07b241057e0764736f6c634300081800332f8788117e7eff1d82e926ec794901d17c78024a50270940304540a733656f0d",
  "linkReferences": {},
  "deployedLinkReferences": {}
}