{
  "_format": "hh-sol-artifact-1",
  "contractName": "PartnerVault",
  "sourceName": "contracts/PartnerVault.sol",
  "abi": [
    {
      "inputs": [
        {
          "internalType": "address",
          "name": "_token",
          "type": "address"
        }
      ],
      "stateMutability": "nonpayable",
      "type": "constructor"
    },
    {
      "inputs": [],
      "name": "AccessControlBadConfirmation",
      "type": "error"
    },
    {
      "inputs": [
        {
          "internalType": "address",
          "name": "account",
          "type": "address"
        },
        {
          "internalType": "bytes32",
          "name": "neededRole",
          "type": "bytes32"
        }
      ],
      "name": "AccessControlUnauthorizedAccount",
      "type": "error"
    },
    {
      "inputs": [],
      "name": "EnforcedPause",
      "type": "error"
    },
    {
      "inputs": [],
      "name": "ExpectedPause",
      "type": "error"
    },
    {
      "inputs": [],
      "name": "ReentrancyGuardReentrantCall",
      "type": "error"
    },
    {
      "inputs": [
        {
          "internalType": "address",
          "name": "token",
          "type": "address"
        }
      ],
      "name": "SafeERC20FailedOperation",
      "type": "error"
    },
    {
      "anonymous": false,
      "inputs": [
        {
          "indexed": true,
          "internalType": "address",
          "name": "partner",
          "type": "address"
        },
        {
          "indexed": false,
          "internalType": "uint256",
          "name": "amount",
          "type": "uint256"
        },
        {
          "indexed": false,
          "internalType": "uint256",
          "name": "timestamp",
          "type": "uint256"
        }
      ],
      "name": "PartnerAllocated",
      "type": "event"
    },
    {
      "anonymous": false,
      "inputs": [
        {
          "indexed": true,
          "internalType": "address",
          "name": "partner",
          "type": "address"
        },
        {
          "indexed": false,
          "internalType": "uint256",
          "name": "amount",
          "type": "uint256"
        },
        {
          "indexed": false,
          "internalType": "uint256",
          "name": "timestamp",
          "type": "uint256"
        }
      ],
      "name": "PartnerWithdrawn",
      "type": "event"
    },
    {
      "anonymous": false,
      "inputs": [
        {
          "indexed": false,
          "internalType": "address",
          "name": "account",
          "type": "address"
        }
      ],
      "name": "Paused",
      "type": "event"
    },
    {
      "anonymous": false,
      "inputs": [
        {
          "indexed": true,
          "internalType": "bytes32",
          "name": "role",
          "type": "bytes32"
        },
        {
          "indexed": true,
          "internalType": "bytes32",
          "name": "previousAdminRole",
          "type": "bytes32"
        },
        {
          "indexed": true,
          "internalType": "bytes32",
          "name": "newAdminRole",
          "type": "bytes32"
        }
      ],
      "name": "RoleAdminChanged",
      "type": "event"
    },
    {
      "anonymous": false,
      "inputs": [
        {
          "indexed": true,
          "internalType": "bytes32",
          "name": "role",
          "type": "bytes32"
        },
        {
          "indexed": true,
          "internalType": "address",
          "name": "account",
          "type": "address"
        },
        {
          "indexed": true,
          "internalType": "address",
          "name": "sender",
          "type": "address"
        }
      ],
      "name": "RoleGranted",
      "type": "event"
    },
    {
      "anonymous": false,
      "inputs": [
        {
          "indexed": true,
          "internalType": "bytes32",
          "name": "role",
          "type": "bytes32"
        },
        {
          "indexed": true,
          "internalType": "address",
          "name": "account",
          "type": "address"
        },
        {
          "indexed": true,
          "internalType": "address",
          "name": "sender",
          "type": "address"
        }
      ],
      "name": "RoleRevoked",
      "type": "event"
    },
    {
      "anonymous": false,
      "inputs": [
        {
          "indexed": false,
          "internalType": "address",
          "name": "account",
          "type": "address"
        }
      ],
      "name": "Unpaused",
      "type": "event"
    },
    {
      "inputs": [],
      "name": "ADMIN_ROLE",
      "outputs": [
        {
          "internalType": "bytes32",
          "name": "",
          "type": "bytes32"
        }
      ],
      "stateMutability": "view",
      "type": "function"
    },
    {
      "inputs": [],
      "name": "DEFAULT_ADMIN_ROLE",
      "outputs": [
        {
          "internalType": "bytes32",
          "name": "",
          "type": "bytes32"
        }
      ],
      "stateMutability": "view",
      "type": "function"
    },
    {
      "inputs": [],
      "name": "LOCKUP_PERIOD",
      "outputs": [
        {
          "internalType": "uint256",
          "name": "",
          "type": "uint256"
        }
      ],
      "stateMutability": "view",
      "type": "function"
    },
    {
      "inputs": [
        {
          "internalType": "address",
          "name": "partner",
          "type": "address"
        },
        {
          "internalType": "uint256",
          "name": "amount",
          "type": "uint256"
        }
      ],
      "name": "allocateToPartner",
      "outputs": [],
      "stateMutability": "nonpayable",
      "type": "function"
    },
    {
      "inputs": [
        {
          "internalType": "address",
          "name": "partner",
          "type": "address"
        }
      ],
      "name": "emergencyWithdraw",
      "outputs": [],
      "stateMutability": "nonpayable",
      "type": "function"
    },
    {
      "inputs": [],
      "name": "getAllPartners",
      "outputs": [
        {
          "internalType": "address[]",
          "name": "",
          "type": "address[]"
        }
      ],
      "stateMutability": "view",
      "type": "function"
    },
    {
      "inputs": [
        {
          "internalType": "address",
          "name": "partner",
          "type": "address"
        }
      ],
      "name": "getPartnerAllocation",
      "outputs": [
        {
          "internalType": "uint256",
          "name": "amount",
          "type": "uint256"
        },
        {
          "internalType": "uint256",
          "name": "allocatedAt",
          "type": "uint256"
        },
        {
          "internalType": "bool",
          "name": "withdrawn",
          "type": "bool"
        },
        {
          "internalType": "uint256",
          "name": "withdrawableAt",
          "type": "uint256"
        }
      ],
      "stateMutability": "view",
      "type": "function"
    },
    {
      "inputs": [],
      "name": "getPartnerCount",
      "outputs": [
        {
          "internalType": "uint256",
          "name": "",
          "type": "uint256"
        }
      ],
      "stateMutability": "view",
      "type": "function"
    },
    {
      "inputs": [
        {
          "internalType": "uint256",
          "name": "offset",
          "type": "uint256"
        },
        {
          "internalType": "uint256",
          "name": "limit",
          "type": "uint256"
        }
      ],
      "name": "getPartnersWithDetails",
      "outputs": [
        {
          "internalType": "address[]",
          "name": "partners",
          "type": "address[]"
        },
        {
          "internalType": "uint256[]",
          "name": "amounts",
          "type": "uint256[]"
        },
        {
          "internalType": "uint256[]",
          "name": "allocatedAts",
          "type": "uint256[]"
        },
        {
          "internalType": "bool[]",
          "name": "withdrawns",
          "type": "bool[]"
        },
        {
          "internalType": "uint256[]",
          "name": "withdrawableAts",
          "type": "uint256[]"
        }
      ],
      "stateMutability": "view",
      "type": "function"
    },
    {
      "inputs": [
        {
          "internalType": "bytes32",
          "name": "role",
          "type": "bytes32"
        }
      ],
      "name": "getRoleAdmin",
      "outputs": [
        {
          "internalType": "bytes32",
          "name": "",
          "type": "bytes32"
        }
      ],
      "stateMutability": "view",
      "type": "function"
    },
    {
      "inputs": [],
      "name": "getTotalAllocated",
      "outputs": [
        {
          "internalType": "uint256",
          "name": "",
          "type": "uint256"
        }
      ],
      "stateMutability": "view",
      "type": "function"
    },
    {
      "inputs": [],
      "name": "getVaultBalance",
      "outputs": [
        {
          "internalType": "uint256",
          "name": "",
          "type": "uint256"
        }
      ],
      "stateMutability": "view",
      "type": "function"
    },
    {
      "inputs": [
        {
          "internalType": "address",
          "name": "partner",
          "type": "address"
        }
      ],
      "name": "getWithdrawableAmount",
      "outputs": [
        {
          "internalType": "uint256",
          "name": "",
          "type": "uint256"
        }
      ],
      "stateMutability": "view",
      "type": "function"
    },
    {
      "inputs": [
        {
          "internalType": "bytes32",
          "name": "role",
          "type": "bytes32"
        },
        {
          "internalType": "address",
          "name": "account",
          "type": "address"
        }
      ],
      "name": "grantRole",
      "outputs": [],
      "stateMutability": "nonpayable",
      "type": "function"
    },
    {
      "inputs": [
        {
          "internalType": "bytes32",
          "name": "role",
          "type": "bytes32"
        },
        {
          "internalType": "address",
          "name": "account",
          "type": "address"
        }
      ],
      "name": "hasRole",
      "outputs": [
        {
          "internalType": "bool",
          "name": "",
          "type": "bool"
        }
      ],
      "stateMutability": "view",
      "type": "function"
    },
    {
      "inputs": [
        {
          "internalType": "address",
          "name": "",
          "type": "address"
        }
      ],
      "name": "partnerAllocations",
      "outputs": [
        {
          "internalType": "uint256",
          "name": "amount",
          "type": "uint256"
        },
        {
          "internalType": "uint256",
          "name": "allocatedAt",
          "type": "uint256"
        },
        {
          "internalType": "bool",
          "name": "withdrawn",
          "type": "bool"
        }
      ],
      "stateMutability": "view",
      "type": "function"
    },
    {
      "inputs": [],
      "name": "pause",
      "outputs": [],
      "stateMutability": "nonpayable",
      "type": "function"
    },
    {
      "inputs": [],
      "name": "paused",
      "outputs": [
        {
          "internalType": "bool",
          "name": "",
          "type": "bool"
        }
      ],
      "stateMutability": "view",
      "type": "function"
    },
    {
      "inputs": [
        {
          "internalType": "bytes32",
          "name": "role",
          "type": "bytes32"
        },
        {
          "internalType": "address",
          "name": "callerConfirmation",
          "type": "address"
        }
      ],
      "name": "renounceRole",
      "outputs": [],
      "stateMutability": "nonpayable",
      "type": "function"
    },
    {
      "inputs": [
        {
          "internalType": "bytes32",
          "name": "role",
          "type": "bytes32"
        },
        {
          "internalType": "address",
          "name": "account",
          "type": "address"
        }
      ],
      "name": "revokeRole",
      "outputs": [],
      "stateMutability": "nonpayable",
      "type": "function"
    },
    {
      "inputs": [
        {
          "internalType": "bytes4",
          "name": "interfaceId",
          "type": "bytes4"
        }
      ],
      "name": "supportsInterface",
      "outputs": [
        {
          "internalType": "bool",
          "name": "",
          "type": "bool"
        }
      ],
      "stateMutability": "view",
      "type": "function"
    },
    {
      "inputs": [],
      "name": "token",
      "outputs": [
        {
          "internalType": "contract IERC20",
          "name": "",
          "type": "address"
        }
      ],
      "stateMutability": "view",
      "type": "function"
    },
    {
      "inputs": [],
      "name": "totalAllocated",
      "outputs": [
        {
          "internalType": "uint256",
          "name": "",
          "type": "uint256"
        }
      ],
      "stateMutability": "view",
      "type": "function"
    },
    {
      "inputs": [],
      "name": "unpause",
      "outputs": [],
      "stateMutability": "nonpayable",
      "type": "function"
    },
    {
      "inputs": [],
      "name": "withdraw",
      "outputs": [],
      "stateMutability": "nonpayable",
      "type": "function"
    }
  ],
  "bytecode": "0x60a034620000ef57601f620015ce38819003918201601f19168301916001600160401b03831184841017620000f457808492602094604052833981010312620000ef57516001600160a01b03811690819003620000ef57600180558015620000aa576080526200006f336200010a565b506200007b336200018a565b5060405161138190816200022d823960805181818161014b015281816101d90152818161069a01526107d60152f35b60405162461bcd60e51b815260206004820152601560248201527f496e76616c696420746f6b656e206164647265737300000000000000000000006044820152606490fd5b600080fd5b634e487b7160e01b600052604160045260246000fd5b6001600160a01b031660008181527fad3228b676f7d3cd4284a5443f17f1962b36e491b30a40b2405849e597ba5fb5602052604081205490919060ff166200018657818052816020526040822081835260205260408220600160ff198254161790553391600080516020620015ae8339815191528180a4600190565b5090565b6001600160a01b031660008181527f7d7ffb7a348e1c6a02869081a26547b49160dd3df72d1d75a570eb9b698292ec60205260408120549091907fa49807205ce4d355092ef5a8a18f56e8913cf4a201fbe287825b095693c217759060ff166200022757808352826020526040832082845260205260408320600160ff19825416179055600080516020620015ae833981519152339380a4600190565b50509056fe608060408181526004918236101561001657600080fd5b600092833560e01c91826301ffc9a714610bee575081630d2e3a2914610bd0578163248a9ca314610ba65781632f2ff15d14610b7c57816336568abe14610b365781633889a810146109485781633ccfd60b1461074a5781633f4ba83a146106f257816345f7f249146105ab5781635c975abb146106ce5781636ff1c9bc1461060557816375b238fc146105ca57816382299a5c146105ab5781638456cb591461055057816391d148541461050a578163a217fddf146104ef578163b1e58bbb14610455578163d3e46a8314610400578163d3e83a081461036e578163d42a6cce146102bf578163d547741f14610280578163ec16d07614610261578163ed12e8ef146101aa57508063f67771751461017e5763fc0c546a1461013857600080fd5b3461017a578160031936011261017a57517f00000000000000000000000000000000000000000000000000000000000000006001600160a01b03168152602090f35b5080fd5b503461017a57602036600319011261017a576020906101a361019e610c5c565b61104b565b9051908152f35b9190503461024b578260031936011261024b5780516370a0823160e01b815230928101929092526020826024817f00000000000000000000000000000000000000000000000000000000000000006001600160a01b03165afa91821561025757839261021b575b6020838351908152f35b9091506020813d60201161024f575b8161023760209383610d31565b8101031261024b5760209250519038610211565b8280fd5b3d915061022a565b81513d85823e3d90fd5b50503461017a578160031936011261017a57602090516305a39a808152f35b9190503461024b578060031936011261024b576102bb91356102b660016102a5610c41565b938387528660205286200154611158565b6111f7565b5080f35b90503461024b578160031936011261024b5761030292916102e761031f926024359035610ea3565b93959161031286929651998a9860a08a5260a08a0190610c72565b60209589820360208b0152610caf565b9187830390880152610caf565b908482036060860152602080855193848152019401955b82811061035557858061035187878382036080850152610caf565b0390f35b8651151585529581019587955093810193600101610336565b83833461017a578160031936011261017a578051918284549081815260208091019583527f8a35acfbc15ff81a39ae7d344fd709f28e8600b4aa8c65c6b64bfe7fe36bd19b92905b8282106103e05761035186866103ce828b0383610d31565b51918291602083526020830190610c72565b83546001600160a01b0316875295860195600193840193909101906103b6565b50503461017a57602036600319011261017a5760609181906001600160a01b03610428610c5c565b1681526003602052209081549160ff60026001830154920154169082519384526020840152151590820152f35b8284346104ec5760203660031901126104ec576001600160a01b03610478610c5c565b1681526003602052818120918080519361049185610ce3565b80549485815260ff6002600184015493846020850152015416151593849101526305a39a808101938482116104d9575060809550815194855260208501528301526060820152f35b634e487b7160e01b815260118752602490fd5b80fd5b50503461017a578160031936011261017a5751908152602090f35b90503461024b578160031936011261024b578160209360ff9261052b610c41565b903582528186528282206001600160a01b039091168252855220549151911615158152f35b50503461017a578160031936011261017a5760207f62e78cea01bee320cd4e420270b5ea74000d11b0c9f74754ebdbfc544b05a2589161058e6110de565b61059661126c565b600160ff19600254161760025551338152a180f35b50503461017a578160031936011261017a576020906005549051908152f35b50503461017a578160031936011261017a57602090517fa49807205ce4d355092ef5a8a18f56e8913cf4a201fbe287825b095693c217758152f35b50503461017a57602036600319011261017a577fdba1a4a1654e4634d5a418fca6ea2f75e69af7a9a2ad34389dcb7aae571ceeb7610641610c5c565b9161064a6110de565b61065261132c565b6001600160a01b03831680855260036020528185208054919490916106be9161067c821515610dc3565b600284016001815461069160ff821615610e05565b60ff19161790557f000000000000000000000000000000000000000000000000000000000000000061128a565b548151908152426020820152a280f35b50503461017a578160031936011261017a5760209060ff6002541690519015158152f35b50503461017a578160031936011261017a5760207f5db9ee0a495bf2e6ff9c91a7834c1ba4fdd244a5e8aa4e537bd38aeae4b073aa916107306110de565b61073861132c565b60ff196002541660025551338152a180f35b90503461024b578260031936011261024b57600191600283541461093b576002835561077461126c565b3384526020916003835281852090815490610790821515610dc3565b6002830180546107a360ff821615610e05565b878501546305a39a8081018091116109285742106108e55760ff19168717905583516370a0823160e01b815230818301527f0000000000000000000000000000000000000000000000000000000000000000919086816024816001600160a01b0387165afa9081156108db579084918a916108a6575b501061086357507fdba1a4a1654e4634d5a418fca6ea2f75e69af7a9a2ad34389dcb7aae571ceeb793929161084f91339061128a565b5492815193845242908401523392a2805580f35b845162461bcd60e51b8152908101869052601a60248201527f496e73756666696369656e74207661756c742062616c616e63650000000000006044820152606490fd5b809250888092503d83116108d4575b6108bf8183610d31565b810103126108d05783905138610819565b8880fd5b503d6108b5565b86513d8b823e3d90fd5b855162461bcd60e51b8152808401889052601760248201527f4c6f636b757020706572696f64206e6f7420656e6465640000000000000000006044820152606490fd5b634e487b7160e01b8a526011845260248afd5b51633ee5aeb560e01b8152fd5b83833461017a578060031936011261017a57610962610c5c565b9060243561096e6110de565b61097661126c565b6001600160a01b03928316928315610af3578115610ab057838552600360205282852054610a6d5782516109a981610ce3565b8281526002602082019142835285810192888452878952600360205286892091518255516001820155019051151560ff80198354169116179055855468010000000000000000811015610a5a57807ffb169e052dab2fffd25a56221dae3275ceddb4ea261122c085b5301b20d5caa99596976001610a2993019055610d53565b819291549060031b9187831b921b1916179055610a4881600554610da0565b6005558151908152426020820152a280f35b634e487b7160e01b865260418752602486fd5b825162461bcd60e51b8152602081880152601960248201527f506172746e657220616c726561647920616c6c6f6361746564000000000000006044820152606490fd5b825162461bcd60e51b8152602081880152601d60248201527f416d6f756e74206d7573742062652067726561746572207468616e20300000006044820152606490fd5b825162461bcd60e51b8152602081880152601760248201527f496e76616c696420706172746e657220616464726573730000000000000000006044820152606490fd5b83833461017a578060031936011261017a57610b50610c41565b90336001600160a01b03831603610b6d57506102bb9192356111f7565b5163334bd91960e11b81528390fd5b9190503461024b578060031936011261024b576102bb9135610ba160016102a5610c41565b61117e565b90503461024b57602036600319011261024b57816020936001923581528085522001549051908152f35b90503461024b578260031936011261024b5760209250549051908152f35b84913461024b57602036600319011261024b573563ffffffff60e01b811680910361024b5760209250637965db0b60e01b8114908115610c30575b5015158152f35b6301ffc9a760e01b14905083610c29565b602435906001600160a01b0382168203610c5757565b600080fd5b600435906001600160a01b0382168203610c5757565b90815180825260208080930193019160005b828110610c92575050505090565b83516001600160a01b031685529381019392810192600101610c84565b90815180825260208080930193019160005b828110610ccf575050505090565b835185529381019392810192600101610cc1565b6060810190811067ffffffffffffffff821117610cff57604052565b634e487b7160e01b600052604160045260246000fd5b6020810190811067ffffffffffffffff821117610cff57604052565b90601f8019910116810190811067ffffffffffffffff821117610cff57604052565b600454811015610d8a5760046000527f8a35acfbc15ff81a39ae7d344fd709f28e8600b4aa8c65c6b64bfe7fe36bd19b0190600090565b634e487b7160e01b600052603260045260246000fd5b91908201809211610dad57565b634e487b7160e01b600052601160045260246000fd5b15610dca57565b60405162461bcd60e51b8152602060048201526013602482015272139bc8185b1b1bd8d85d1a5bdb88199bdd5b99606a1b6044820152606490fd5b15610e0c57565b60405162461bcd60e51b815260206004820152601160248201527020b63932b0b23c903bb4ba34323930bbb760791b6044820152606490fd5b67ffffffffffffffff8111610cff5760051b60200190565b90610e6782610e45565b610e746040519182610d31565b8281528092610e85601f1991610e45565b0190602036910137565b8051821015610d8a5760209160051b010190565b6004906004549283821015610fea57610ebc9082610da0565b92808411610fe2575b50808303928311610dad57610ed983610e5d565b93610ee384610e5d565b94610eed85610e5d565b94610ef781610e5d565b94610f0182610e5d565b9460005b838110610f1757505050509493929190565b610f29610f248284610da0565b610d53565b90549060039160018060a01b0391831b1c168060005260209182528b610f8d84604093846000209060ff6002875193610f6185610ce3565b805485526001810154998501998a520154169582019515158652610f85838d610e8f565b525192610e8f565b528151610f9a848d610e8f565b52511515610fa8838b610e8f565b52516305a39a808101809111610fcd5790600191610fc6828a610e8f565b5201610f05565b601184634e487b7160e01b6000525260246000fd5b925038610ec5565b5050505060405190610ffb82610d15565b6000918281526040519261100e84610d15565b8084526040519261101e84610d15565b8184526040519261102e84610d15565b8284526040519261103e84610d15565b8084523681379493929190565b6001600160a01b031660009081526003602052604080822090519061106f82610ce3565b805480835260ff6002600184015493846020870152015416151590816040850152159081156110d6575b506110d1576305a39a8081018091116110bd574210156110b7575090565b90505190565b634e487b7160e01b83526011600452602483fd5b505090565b905038611099565b3360009081527f7d7ffb7a348e1c6a02869081a26547b49160dd3df72d1d75a570eb9b698292ec60205260409020547fa49807205ce4d355092ef5a8a18f56e8913cf4a201fbe287825b095693c217759060ff161561113a5750565b6044906040519063e2517d3f60e01b82523360048301526024820152fd5b80600052600060205260406000203360005260205260ff604060002054161561113a5750565b9060009180835282602052604083209160018060a01b03169182845260205260ff604084205416156000146110d157808352826020526040832082845260205260408320600160ff198254161790557f2f8788117e7eff1d82e926ec794901d17c78024a50270940304540a733656f0d339380a4600190565b9060009180835282602052604083209160018060a01b03169182845260205260ff6040842054166000146110d15780835282602052604083208284526020526040832060ff1981541690557ff6391f5c32d9c69d2a47ea670b442974b53935d1edc7fd64eb21e047a839171b339380a4600190565b60ff6002541661127857565b60405163d93c066560e01b8152600490fd5b60405163a9059cbb60e01b602082019081526001600160a01b0393841660248301526044808301959095529381529092608082019067ffffffffffffffff821183831017610cff57602092600092604052519082865af115611320576000513d61131757508082163b155b6112fd575050565b604051635274afe760e01b81529116600482015260249150fd5b600114156112f5565b6040513d6000823e3d90fd5b60ff600254161561133957565b604051638dfc202b60e01b8152600490fdfea264697066735822122048e76184bdd788616a1c1e788f88e0495200c60c9f41dff6ba7ab80b9408524c64736f6c634300081800332f8788117e7eff1d82e926ec794901d17c78024a50270940304540a733656f0d",
  "linkReferences": {},
  "deployedLinkReferences": {}
}