{
  "_format": "hh-sol-artifact-1",
  "contractName": "MagicWorldGame",
  "sourceName": "contracts/MagicWorldGame.sol",
  "abi": [
    {
      "inputs": [
        {
          "internalType": "address",
          "name": "_tokenAddress",
          "type": "address"
        }
      ],
      "stateMutability": "nonpayable",
      "type": "constructor"
    },
    {
      "inputs": [],
      "name": "AccessControlBadConfirmation",
      "type": "error"
    },
    {
      "inputs": [
        {
          "internalType": "address",
          "name": "account",
          "type": "address"
        },
        {
          "internalType": "bytes32",
          "name": "neededRole",
          "type": "bytes32"
        }
      ],
      "name": "AccessControlUnauthorizedAccount",
      "type": "error"
    },
    {
      "inputs": [],
      "name": "EnforcedPause",
      "type": "error"
    },
    {
      "inputs": [],
      "name": "ExpectedPause",
      "type": "error"
    },
    {
      "inputs": [],
      "name": "ReentrancyGuardReentrantCall",
      "type": "error"
    },
    {
      "anonymous": false,
      "inputs": [
        {
          "indexed": true,
          "internalType": "address",
          "name": "previousAdmin",
          "type": "address"
        },
        {
          "indexed": true,
          "internalType": "address",
          "name": "newAdmin",
          "type": "address"
        }
      ],
      "name": "AdminTransferred",
      "type": "event"
    },
    {
      "anonymous": false,
      "inputs": [
        {
          "indexed": false,
          "internalType": "uint256",
          "name": "oldPeriod",
          "type": "uint256"
        },
        {
          "indexed": false,
          "internalType": "uint256",
          "name": "newPeriod",
          "type": "uint256"
        }
      ],
      "name": "CooldownPeriodUpdated",
      "type": "event"
    },
    {
      "anonymous": false,
      "inputs": [
        {
          "indexed": true,
          "internalType": "address",
          "name": "player",
          "type": "address"
        },
        {
          "indexed": false,
          "internalType": "uint256",
          "name": "attemptedAmount",
          "type": "uint256"
        },
        {
          "indexed": false,
          "internalType": "uint256",
          "name": "currentReceived",
          "type": "uint256"
        },
        {
          "indexed": false,
          "internalType": "uint256",
          "name": "dailyLimit",
          "type": "uint256"
        }
      ],
      "name": "DailyLimitExhausted",
      "type": "event"
    },
    {
      "anonymous": false,
      "inputs": [
        {
          "indexed": false,
          "internalType": "uint256",
          "name": "oldLimit",
          "type": "uint256"
        },
        {
          "indexed": false,
          "internalType": "uint256",
          "name": "newLimit",
          "type": "uint256"
        }
      ],
      "name": "DailyLimitUpdated",
      "type": "event"
    },
    {
      "anonymous": false,
      "inputs": [
        {
          "indexed": true,
          "internalType": "uint256",
          "name": "distributionId",
          "type": "uint256"
        },
        {
          "indexed": false,
          "internalType": "uint256",
          "name": "unclaimedAmount",
          "type": "uint256"
        },
        {
          "indexed": true,
          "internalType": "enum MagicWorldGame.AllocationType",
          "name": "vaultType",
          "type": "uint8"
        }
      ],
      "name": "DistributionFinalized",
      "type": "event"
    },
    {
      "anonymous": false,
      "inputs": [
        {
          "indexed": true,
          "internalType": "address",
          "name": "admin",
          "type": "address"
        },
        {
          "indexed": false,
          "internalType": "uint256",
          "name": "amount",
          "type": "uint256"
        }
      ],
      "name": "EmergencyWithdraw",
      "type": "event"
    },
    {
      "anonymous": false,
      "inputs": [
        {
          "indexed": false,
          "internalType": "uint256",
          "name": "oldSize",
          "type": "uint256"
        },
        {
          "indexed": false,
          "internalType": "uint256",
          "name": "newSize",
          "type": "uint256"
        }
      ],
      "name": "MaxBatchSizeUpdated",
      "type": "event"
    },
    {
      "anonymous": false,
      "inputs": [
        {
          "indexed": true,
          "internalType": "uint256",
          "name": "distributionId",
          "type": "uint256"
        },
        {
          "indexed": false,
          "internalType": "bytes32",
          "name": "merkleRoot",
          "type": "bytes32"
        },
        {
          "indexed": false,
          "internalType": "uint256",
          "name": "totalAllocated",
          "type": "uint256"
        },
        {
          "indexed": true,
          "internalType": "enum MagicWorldGame.AllocationType",
          "name": "vaultType",
          "type": "uint8"
        },
        {
          "indexed": false,
          "internalType": "uint256",
          "name": "startTime",
          "type": "uint256"
        },
        {
          "indexed": false,
          "internalType": "uint256",
          "name": "endTime",
          "type": "uint256"
        }
      ],
      "name": "MerkleDistributionCreated",
      "type": "event"
    },
    {
      "anonymous": false,
      "inputs": [
        {
          "indexed": false,
          "internalType": "address",
          "name": "account",
          "type": "address"
        }
      ],
      "name": "Paused",
      "type": "event"
    },
    {
      "anonymous": false,
      "inputs": [
        {
          "indexed": true,
          "internalType": "address",
          "name": "distributor",
          "type": "address"
        },
        {
          "indexed": false,
          "internalType": "address[]",
          "name": "recipients",
          "type": "address[]"
        },
        {
          "indexed": false,
          "internalType": "uint256[]",
          "name": "amounts",
          "type": "uint256[]"
        },
        {
          "indexed": false,
          "internalType": "string",
          "name": "reason",
          "type": "string"
        }
      ],
      "name": "RewardsDistributed",
      "type": "event"
    },
    {
      "anonymous": false,
      "inputs": [
        {
          "indexed": true,
          "internalType": "bytes32",
          "name": "role",
          "type": "bytes32"
        },
        {
          "indexed": true,
          "internalType": "bytes32",
          "name": "previousAdminRole",
          "type": "bytes32"
        },
        {
          "indexed": true,
          "internalType": "bytes32",
          "name": "newAdminRole",
          "type": "bytes32"
        }
      ],
      "name": "RoleAdminChanged",
      "type": "event"
    },
    {
      "anonymous": false,
      "inputs": [
        {
          "indexed": true,
          "internalType": "bytes32",
          "name": "role",
          "type": "bytes32"
        },
        {
          "indexed": true,
          "internalType": "address",
          "name": "account",
          "type": "address"
        },
        {
          "indexed": true,
          "internalType": "address",
          "name": "sender",
          "type": "address"
        }
      ],
      "name": "RoleGranted",
      "type": "event"
    },
    {
      "anonymous": false,
      "inputs": [
        {
          "indexed": true,
          "internalType": "bytes32",
          "name": "role",
          "type": "bytes32"
        },
        {
          "indexed": true,
          "internalType": "address",
          "name": "account",
          "type": "address"
        },
        {
          "indexed": true,
          "internalType": "address",
          "name": "sender",
          "type": "address"
        }
      ],
      "name": "RoleRevoked",
      "type": "event"
    },
    {
      "anonymous": false,
      "inputs": [
        {
          "indexed": true,
          "internalType": "address",
          "name": "player",
          "type": "address"
        },
        {
          "indexed": false,
          "internalType": "uint256",
          "name": "amount",
          "type": "uint256"
        },
        {
          "indexed": false,
          "internalType": "uint256",
          "name": "itemId",
          "type": "uint256"
        }
      ],
      "name": "TokensBurned",
      "type": "event"
    },
    {
      "anonymous": false,
      "inputs": [
        {
          "indexed": true,
          "internalType": "uint256",
          "name": "distributionId",
          "type": "uint256"
        },
        {
          "indexed": true,
          "internalType": "address",
          "name": "user",
          "type": "address"
        },
        {
          "indexed": false,
          "internalType": "uint256",
          "name": "amount",
          "type": "uint256"
        },
        {
          "indexed": false,
          "internalType": "uint256",
          "name": "totalClaimed",
          "type": "uint256"
        }
      ],
      "name": "TokensClaimed",
      "type": "event"
    },
    {
      "anonymous": false,
      "inputs": [
        {
          "indexed": false,
          "internalType": "address",
          "name": "account",
          "type": "address"
        }
      ],
      "name": "Unpaused",
      "type": "event"
    },
    {
      "anonymous": false,
      "inputs": [
        {
          "indexed": true,
          "internalType": "address",
          "name": "distributor",
          "type": "address"
        },
        {
          "indexed": false,
          "internalType": "enum MagicWorldGame.AllocationType",
          "name": "vaultType",
          "type": "uint8"
        },
        {
          "indexed": false,
          "internalType": "address[]",
          "name": "recipients",
          "type": "address[]"
        },
        {
          "indexed": false,
          "internalType": "uint256[]",
          "name": "amounts",
          "type": "uint256[]"
        },
        {
          "indexed": false,
          "internalType": "string",
          "name": "reason",
          "type": "string"
        }
      ],
      "name": "VaultDistributed",
      "type": "event"
    },
    {
      "anonymous": false,
      "inputs": [
        {
          "indexed": false,
          "internalType": "uint256",
          "name": "totalSupply",
          "type": "uint256"
        },
        {
          "indexed": false,
          "internalType": "uint256",
          "name": "partnerAllocation",
          "type": "uint256"
        }
      ],
      "name": "VaultsInitialized",
      "type": "event"
    },
    {
      "inputs": [],
      "name": "DEFAULT_ADMIN_ROLE",
      "outputs": [
        {
          "internalType": "bytes32",
          "name": "",
          "type": "bytes32"
        }
      ],
      "stateMutability": "view",
      "type": "function"
    },
    {
      "inputs": [],
      "name": "GAME_ADMIN_ROLE",
      "outputs": [
        {
          "internalType": "bytes32",
          "name": "",
          "type": "bytes32"
        }
      ],
      "stateMutability": "view",
      "type": "function"
    },
    {
      "inputs": [],
      "name": "REWARD_DISTRIBUTOR_ROLE",
      "outputs": [
        {
          "internalType": "bytes32",
          "name": "",
          "type": "bytes32"
        }
      ],
      "stateMutability": "view",
      "type": "function"
    },
    {
      "inputs": [
        {
          "internalType": "uint256",
          "name": "amount",
          "type": "uint256"
        },
        {
          "internalType": "uint256",
          "name": "itemId",
          "type": "uint256"
        }
      ],
      "name": "burnForPurchase",
      "outputs": [],
      "stateMutability": "nonpayable",
      "type": "function"
    },
    {
      "inputs": [
        {
          "internalType": "uint256",
          "name": "distributionId",
          "type": "uint256"
        },
        {
          "internalType": "uint256",
          "name": "totalAmount",
          "type": "uint256"
        },
        {
          "internalType": "bytes32[]",
          "name": "proof",
          "type": "bytes32[]"
        }
      ],
      "name": "claimFromMerkle",
      "outputs": [],
      "stateMutability": "nonpayable",
      "type": "function"
    },
    {
      "inputs": [
        {
          "internalType": "uint256",
          "name": "",
          "type": "uint256"
        },
        {
          "internalType": "address",
          "name": "",
          "type": "address"
        }
      ],
      "name": "claimed",
      "outputs": [
        {
          "internalType": "uint256",
          "name": "",
          "type": "uint256"
        }
      ],
      "stateMutability": "view",
      "type": "function"
    },
    {
      "inputs": [],
      "name": "cooldownPeriod",
      "outputs": [
        {
          "internalType": "uint256",
          "name": "",
          "type": "uint256"
        }
      ],
      "stateMutability": "view",
      "type": "function"
    },
    {
      "inputs": [],
      "name": "currentDay",
      "outputs": [
        {
          "internalType": "uint256",
          "name": "",
          "type": "uint256"
        }
      ],
      "stateMutability": "view",
      "type": "function"
    },
    {
      "inputs": [],
      "name": "dailyRewardLimit",
      "outputs": [
        {
          "internalType": "uint256",
          "name": "",
          "type": "uint256"
        }
      ],
      "stateMutability": "view",
      "type": "function"
    },
    {
      "inputs": [
        {
          "internalType": "address",
          "name": "",
          "type": "address"
        }
      ],
      "name": "dailyRewardsReceived",
      "outputs": [
        {
          "internalType": "uint256",
          "name": "",
          "type": "uint256"
        }
      ],
      "stateMutability": "view",
      "type": "function"
    },
    {
      "inputs": [
        {
          "internalType": "enum MagicWorldGame.AllocationType",
          "name": "vaultType",
          "type": "uint8"
        },
        {
          "internalType": "address[]",
          "name": "recipients",
          "type": "address[]"
        },
        {
          "internalType": "uint256",
          "name": "amount",
          "type": "uint256"
        },
        {
          "internalType": "string",
          "name": "reason",
          "type": "string"
        }
      ],
      "name": "distributeEqualFromVault",
      "outputs": [],
      "stateMutability": "nonpayable",
      "type": "function"
    },
    {
      "inputs": [
        {
          "internalType": "enum MagicWorldGame.AllocationType",
          "name": "vaultType",
          "type": "uint8"
        },
        {
          "internalType": "address[]",
          "name": "recipients",
          "type": "address[]"
        },
        {
          "internalType": "uint256[]",
          "name": "amounts",
          "type": "uint256[]"
        },
        {
          "internalType": "string",
          "name": "reason",
          "type": "string"
        }
      ],
      "name": "distributeFromVault",
      "outputs": [],
      "stateMutability": "nonpayable",
      "type": "function"
    },
    {
      "inputs": [
        {
          "internalType": "uint256",
          "name": "",
          "type": "uint256"
        }
      ],
      "name": "distributions",
      "outputs": [
        {
          "internalType": "bytes32",
          "name": "merkleRoot",
          "type": "bytes32"
        },
        {
          "internalType": "uint256",
          "name": "totalAllocated",
          "type": "uint256"
        },
        {
          "internalType": "uint256",
          "name": "totalClaimed",
          "type": "uint256"
        },
        {
          "internalType": "uint256",
          "name": "startTime",
          "type": "uint256"
        },
        {
          "internalType": "uint256",
          "name": "endTime",
          "type": "uint256"
        },
        {
          "internalType": "enum MagicWorldGame.AllocationType",
          "name": "vaultType",
          "type": "uint8"
        },
        {
          "internalType": "bool",
          "name": "finalized",
          "type": "bool"
        }
      ],
      "stateMutability": "view",
      "type": "function"
    },
    {
      "inputs": [
        {
          "internalType": "uint256",
          "name": "amount",
          "type": "uint256"
        }
      ],
      "name": "emergencyWithdraw",
      "outputs": [],
      "stateMutability": "nonpayable",
      "type": "function"
    },
    {
      "inputs": [
        {
          "internalType": "uint256",
          "name": "distributionId",
          "type": "uint256"
        }
      ],
      "name": "finalizeDistribution",
      "outputs": [],
      "stateMutability": "nonpayable",
      "type": "function"
    },
    {
      "inputs": [],
      "name": "getAllVaultStats",
      "outputs": [
        {
          "components": [
            {
              "internalType": "uint256",
              "name": "totalAllocated",
              "type": "uint256"
            },
            {
              "internalType": "uint256",
              "name": "spent",
              "type": "uint256"
            },
            {
              "internalType": "uint256",
              "name": "remaining",
              "type": "uint256"
            }
          ],
          "internalType": "struct MagicWorldGame.AllocationVault",
          "name": "playerTasks",
          "type": "tuple"
        },
        {
          "components": [
            {
              "internalType": "uint256",
              "name": "totalAllocated",
              "type": "uint256"
            },
            {
              "internalType": "uint256",
              "name": "spent",
              "type": "uint256"
            },
            {
              "internalType": "uint256",
              "name": "remaining",
              "type": "uint256"
            }
          ],
          "internalType": "struct MagicWorldGame.AllocationVault",
          "name": "socialFollowers",
          "type": "tuple"
        },
        {
          "components": [
            {
              "internalType": "uint256",
              "name": "totalAllocated",
              "type": "uint256"
            },
            {
              "internalType": "uint256",
              "name": "spent",
              "type": "uint256"
            },
            {
              "internalType": "uint256",
              "name": "remaining",
              "type": "uint256"
            }
          ],
          "internalType": "struct MagicWorldGame.AllocationVault",
          "name": "socialPosters",
          "type": "tuple"
        },
        {
          "components": [
            {
              "internalType": "uint256",
              "name": "totalAllocated",
              "type": "uint256"
            },
            {
              "internalType": "uint256",
              "name": "spent",
              "type": "uint256"
            },
            {
              "internalType": "uint256",
              "name": "remaining",
              "type": "uint256"
            }
          ],
          "internalType": "struct MagicWorldGame.AllocationVault",
          "name": "ecosystemFund",
          "type": "tuple"
        }
      ],
      "stateMutability": "view",
      "type": "function"
    },
    {
      "inputs": [
        {
          "internalType": "uint256",
          "name": "distributionId",
          "type": "uint256"
        },
        {
          "internalType": "address",
          "name": "user",
          "type": "address"
        },
        {
          "internalType": "uint256",
          "name": "totalAmount",
          "type": "uint256"
        },
        {
          "internalType": "bytes32[]",
          "name": "proof",
          "type": "bytes32[]"
        }
      ],
      "name": "getClaimableAmount",
      "outputs": [
        {
          "internalType": "uint256",
          "name": "claimable",
          "type": "uint256"
        },
        {
          "internalType": "bool",
          "name": "isValid",
          "type": "bool"
        }
      ],
      "stateMutability": "view",
      "type": "function"
    },
    {
      "inputs": [
        {
          "internalType": "uint256",
          "name": "distributionId",
          "type": "uint256"
        },
        {
          "internalType": "address",
          "name": "user",
          "type": "address"
        }
      ],
      "name": "getClaimedAmount",
      "outputs": [
        {
          "internalType": "uint256",
          "name": "",
          "type": "uint256"
        }
      ],
      "stateMutability": "view",
      "type": "function"
    },
    {
      "inputs": [],
      "name": "getContractStats",
      "outputs": [
        {
          "internalType": "uint256",
          "name": "totalDistributed",
          "type": "uint256"
        },
        {
          "internalType": "uint256",
          "name": "playersCount",
          "type": "uint256"
        },
        {
          "internalType": "uint256",
          "name": "contractBalance",
          "type": "uint256"
        }
      ],
      "stateMutability": "view",
      "type": "function"
    },
    {
      "inputs": [
        {
          "internalType": "uint256",
          "name": "distributionId",
          "type": "uint256"
        }
      ],
      "name": "getDistributionInfo",
      "outputs": [
        {
          "internalType": "bytes32",
          "name": "merkleRoot",
          "type": "bytes32"
        },
        {
          "internalType": "uint256",
          "name": "totalAllocated",
          "type": "uint256"
        },
        {
          "internalType": "uint256",
          "name": "totalClaimed",
          "type": "uint256"
        },
        {
          "internalType": "uint256",
          "name": "startTime",
          "type": "uint256"
        },
        {
          "internalType": "uint256",
          "name": "endTime",
          "type": "uint256"
        },
        {
          "internalType": "enum MagicWorldGame.AllocationType",
          "name": "vaultType",
          "type": "uint8"
        },
        {
          "internalType": "bool",
          "name": "finalized",
          "type": "bool"
        },
        {
          "internalType": "bool",
          "name": "isActive",
          "type": "bool"
        },
        {
          "internalType": "uint256",
          "name": "unclaimedAmount",
          "type": "uint256"
        }
      ],
      "stateMutability": "view",
      "type": "function"
    },
    {
      "inputs": [
        {
          "internalType": "address",
          "name": "player",
          "type": "address"
        }
      ],
      "name": "getPlayerStats",
      "outputs": [
        {
          "internalType": "uint256",
          "name": "dailyReceived",
          "type": "uint256"
        },
        {
          "internalType": "uint256",
          "name": "totalEarned",
          "type": "uint256"
        },
        {
          "internalType": "uint256",
          "name": "lastReward",
          "type": "uint256"
        }
      ],
      "stateMutability": "view",
      "type": "function"
    },
    {
      "inputs": [
        {
          "internalType": "bytes32",
          "name": "role",
          "type": "bytes32"
        }
      ],
      "name": "getRoleAdmin",
      "outputs": [
        {
          "internalType": "bytes32",
          "name": "",
          "type": "bytes32"
        }
      ],
      "stateMutability": "view",
      "type": "function"
    },
    {
      "inputs": [
        {
          "internalType": "enum MagicWorldGame.AllocationType",
          "name": "vaultType",
          "type": "uint8"
        }
      ],
      "name": "getVaultInfo",
      "outputs": [
        {
          "internalType": "uint256",
          "name": "totalAllocated",
          "type": "uint256"
        },
        {
          "internalType": "uint256",
          "name": "spent",
          "type": "uint256"
        },
        {
          "internalType": "uint256",
          "name": "remaining",
          "type": "uint256"
        }
      ],
      "stateMutability": "view",
      "type": "function"
    },
    {
      "inputs": [
        {
          "internalType": "address",
          "name": "account",
          "type": "address"
        }
      ],
      "name": "grantDistributorRole",
      "outputs": [],
      "stateMutability": "nonpayable",
      "type": "function"
    },
    {
      "inputs": [
        {
          "internalType": "address",
          "name": "account",
          "type": "address"
        }
      ],
      "name": "grantGameAdminRole",
      "outputs": [],
      "stateMutability": "nonpayable",
      "type": "function"
    },
    {
      "inputs": [
        {
          "internalType": "bytes32",
          "name": "role",
          "type": "bytes32"
        },
        {
          "internalType": "address",
          "name": "account",
          "type": "address"
        }
      ],
      "name": "grantRole",
      "outputs": [],
      "stateMutability": "nonpayable",
      "type": "function"
    },
    {
      "inputs": [
        {
          "internalType": "bytes32",
          "name": "role",
          "type": "bytes32"
        },
        {
          "internalType": "address",
          "name": "account",
          "type": "address"
        }
      ],
      "name": "hasRole",
      "outputs": [
        {
          "internalType": "bool",
          "name": "",
          "type": "bool"
        }
      ],
      "stateMutability": "view",
      "type": "function"
    },
    {
      "inputs": [
        {
          "internalType": "uint256",
          "name": "totalSupply",
          "type": "uint256"
        },
        {
          "internalType": "uint256",
          "name": "partnerAllocation",
          "type": "uint256"
        }
      ],
      "name": "initializeVaults",
      "outputs": [],
      "stateMutability": "nonpayable",
      "type": "function"
    },
    {
      "inputs": [
        {
          "internalType": "address",
          "name": "account",
          "type": "address"
        }
      ],
      "name": "isDistributor",
      "outputs": [
        {
          "internalType": "bool",
          "name": "",
          "type": "bool"
        }
      ],
      "stateMutability": "view",
      "type": "function"
    },
    {
      "inputs": [
        {
          "internalType": "address",
          "name": "account",
          "type": "address"
        }
      ],
      "name": "isGameAdmin",
      "outputs": [
        {
          "internalType": "bool",
          "name": "",
          "type": "bool"
        }
      ],
      "stateMutability": "view",
      "type": "function"
    },
    {
      "inputs": [
        {
          "internalType": "address",
          "name": "",
          "type": "address"
        }
      ],
      "name": "lastMajorReward",
      "outputs": [
        {
          "internalType": "uint256",
          "name": "",
          "type": "uint256"
        }
      ],
      "stateMutability": "view",
      "type": "function"
    },
    {
      "inputs": [
        {
          "internalType": "address",
          "name": "",
          "type": "address"
        }
      ],
      "name": "lastRewardDate",
      "outputs": [
        {
          "internalType": "uint256",
          "name": "",
          "type": "uint256"
        }
      ],
      "stateMutability": "view",
      "type": "function"
    },
    {
      "inputs": [],
      "name": "magicWorldGems",
      "outputs": [
        {
          "internalType": "contract IMagicWorldGems",
          "name": "",
          "type": "address"
        }
      ],
      "stateMutability": "view",
      "type": "function"
    },
    {
      "inputs": [],
      "name": "maxBatchSize",
      "outputs": [
        {
          "internalType": "uint256",
          "name": "",
          "type": "uint256"
        }
      ],
      "stateMutability": "view",
      "type": "function"
    },
    {
      "inputs": [],
      "name": "nextDistributionId",
      "outputs": [
        {
          "internalType": "uint256",
          "name": "",
          "type": "uint256"
        }
      ],
      "stateMutability": "view",
      "type": "function"
    },
    {
      "inputs": [],
      "name": "pause",
      "outputs": [],
      "stateMutability": "nonpayable",
      "type": "function"
    },
    {
      "inputs": [],
      "name": "paused",
      "outputs": [
        {
          "internalType": "bool",
          "name": "",
          "type": "bool"
        }
      ],
      "stateMutability": "view",
      "type": "function"
    },
    {
      "inputs": [
        {
          "internalType": "bytes32",
          "name": "role",
          "type": "bytes32"
        },
        {
          "internalType": "address",
          "name": "callerConfirmation",
          "type": "address"
        }
      ],
      "name": "renounceRole",
      "outputs": [],
      "stateMutability": "nonpayable",
      "type": "function"
    },
    {
      "inputs": [
        {
          "internalType": "address",
          "name": "account",
          "type": "address"
        }
      ],
      "name": "revokeDistributorRole",
      "outputs": [],
      "stateMutability": "nonpayable",
      "type": "function"
    },
    {
      "inputs": [
        {
          "internalType": "address",
          "name": "account",
          "type": "address"
        }
      ],
      "name": "revokeGameAdminRole",
      "outputs": [],
      "stateMutability": "nonpayable",
      "type": "function"
    },
    {
      "inputs": [
        {
          "internalType": "bytes32",
          "name": "role",
          "type": "bytes32"
        },
        {
          "internalType": "address",
          "name": "account",
          "type": "address"
        }
      ],
      "name": "revokeRole",
      "outputs": [],
      "stateMutability": "nonpayable",
      "type": "function"
    },
    {
      "inputs": [
        {
          "internalType": "uint256",
          "name": "newPeriod",
          "type": "uint256"
        }
      ],
      "name": "setCooldownPeriod",
      "outputs": [],
      "stateMutability": "nonpayable",
      "type": "function"
    },
    {
      "inputs": [
        {
          "internalType": "uint256",
          "name": "newLimit",
          "type": "uint256"
        }
      ],
      "name": "setDailyRewardLimit",
      "outputs": [],
      "stateMutability": "nonpayable",
      "type": "function"
    },
    {
      "inputs": [
        {
          "internalType": "uint256",
          "name": "newSize",
          "type": "uint256"
        }
      ],
      "name": "setMaxBatchSize",
      "outputs": [],
      "stateMutability": "nonpayable",
      "type": "function"
    },
    {
      "inputs": [
        {
          "internalType": "bytes32",
          "name": "merkleRoot",
          "type": "bytes32"
        },
        {
          "internalType": "uint256",
          "name": "totalAllocated",
          "type": "uint256"
        },
        {
          "internalType": "enum MagicWorldGame.AllocationType",
          "name": "vaultType",
          "type": "uint8"
        },
        {
          "internalType": "uint256",
          "name": "durationInDays",
          "type": "uint256"
        }
      ],
      "name": "setMerkleDistribution",
      "outputs": [
        {
          "internalType": "uint256",
          "name": "distributionId",
          "type": "uint256"
        }
      ],
      "stateMutability": "nonpayable",
      "type": "function"
    },
    {
      "inputs": [
        {
          "internalType": "bytes4",
          "name": "interfaceId",
          "type": "bytes4"
        }
      ],
      "name": "supportsInterface",
      "outputs": [
        {
          "internalType": "bool",
          "name": "",
          "type": "bool"
        }
      ],
      "stateMutability": "view",
      "type": "function"
    },
    {
      "inputs": [],
      "name": "totalPlayersRewarded",
      "outputs": [
        {
          "internalType": "uint256",
          "name": "",
          "type": "uint256"
        }
      ],
      "stateMutability": "view",
      "type": "function"
    },
    {
      "inputs": [],
      "name": "totalRewardsDistributed",
      "outputs": [
        {
          "internalType": "uint256",
          "name": "",
          "type": "uint256"
        }
      ],
      "stateMutability": "view",
      "type": "function"
    },
    {
      "inputs": [
        {
          "internalType": "address",
          "name": "",
          "type": "address"
        }
      ],
      "name": "totalRewardsEarned",
      "outputs": [
        {
          "internalType": "uint256",
          "name": "",
          "type": "uint256"
        }
      ],
      "stateMutability": "view",
      "type": "function"
    },
    {
      "inputs": [
        {
          "internalType": "address",
          "name": "newAdmin",
          "type": "address"
        }
      ],
      "name": "transferAdmin",
      "outputs": [],
      "stateMutability": "nonpayable",
      "type": "function"
    },
    {
      "inputs": [],
      "name": "unpause",
      "outputs": [],
      "stateMutability": "nonpayable",
      "type": "function"
    },
    {
      "inputs": [
        {
          "internalType": "enum MagicWorldGame.AllocationType",
          "name": "",
          "type": "uint8"
        }
      ],
      "name": "vaults",
      "outputs": [
        {
          "internalType": "uint256",
          "name": "totalAllocated",
          "type": "uint256"
        },
        {
          "internalType": "uint256",
          "name": "spent",
          "type": "uint256"
        },
        {
          "internalType": "uint256",
          "name": "remaining",
          "type": "uint256"
        }
      ],
      "stateMutability": "view",
      "type": "function"
    },
    {
      "inputs": [],
      "name": "vaultsInitialized",
      "outputs": [
        {
          "internalType": "bool",
          "name": "",
          "type": "bool"
        }
      ],
      "stateMutability": "view",
      "type": "function"
    }
  ],
  "bytecode": "0x60a0346200013257601f6200374238819003918201601f19168301916001600160401b0383118484101762000137578084926020946040528339810103126200013257516001600160a01b0381169081900362000132576001600255683635c9adc5dea00000600e5560c8600f55610e106010558015620000ed5760805262000088336200014d565b506200009433620001cd565b50620000a0336200026f565b50620151804204600c5560405161341590816200030d823960805181818161033301528181610604015281816108a801528181610aa401528181610c0d0152818161191601526122bd0152f35b60405162461bcd60e51b815260206004820152601a60248201527f4d57473a20496e76616c696420746f6b656e20616464726573730000000000006044820152606490fd5b600080fd5b634e487b7160e01b600052604160045260246000fd5b6001600160a01b031660008181527fad3228b676f7d3cd4284a5443f17f1962b36e491b30a40b2405849e597ba5fb5602052604081205490919060ff16620001c957818052816020526040822081835260205260408220600160ff198254161790553391600080516020620037228339815191528180a4600190565b5090565b6001600160a01b031660008181527f34187b4df4dde90344524af04b4bfa2b494efae448e1c13d6ef6a07e1075558160205260408120549091907f9b7946abd96dccbe6cfc6cc2c13300ab429d93e16fa72dc459eeccda73817f089060ff166200026a57808352826020526040832082845260205260408320600160ff1982541617905560008051602062003722833981519152339380a4600190565b505090565b6001600160a01b031660008181527f9e607de338c7d6508550727646d2998939f27517879a7dd916362b3520e3948760205260408120549091907fb814ff4a26ea3ec5cd1fa579daad86324826254265f3acfec78303a19845b4499060ff166200026a57808352826020526040832082845260205260408320600160ff1982541617905560008051602062003722833981519152339380a460019056fe6080604081815260048036101561001557600080fd5b600092833560e01c90816301ffc9a7146124e85750806304646a49146124c95780630eac4b8014612160578063120aa87714611d9257806318c8ea30146121365780631c7a0356146120fe5780631e7113fd146120c6578063248a9ca31461209d5780632913daa01461207e5780632b26a6bf14611f925780632c1e711614611f735780632f2ff15d14611f4a57806332e4bb0a14611f2157806336568abe14611eda5780633f4ba83a14611e715780634487d3df14611dfd57806344c5418214611dd35780634867b6db14611d925780634c07e4b514611a8d5780634fd66eae14611a355780635312ea8e146118d95780635c9302c9146118ba5780635c975abb146118965780635d3f33961461184357806375829def14611744578063775c286914611720578063795be4b91461170157806380ea3de1146116195780638456cb59146115bf578063887941d8146114bc5780638bba2a0a1461147e5780638f0c86fa1461142b57806391aa50aa1461140c57806391cdd6af146113b957806391d148541461137457806395f52f4e14611201578063982b195a146111c3578063a217fddf146111a8578063ab96c50714610ef3578063b4b20e4314610e4a578063b5d8568714610afc578063be22d27d14610ad3578063bf8d7c0f14610a8f578063c2d8fe9c1461075e578063cafed8f014610726578063d547741f146106e8578063d8d8065d1461069a578063dfe6b5d6146105cb578063e08ed622146104a3578063e4f24cb01461046b57838163e67063a2146102ef57508063ee172546146102cc5763f8f36c521461026c57600080fd5b346102c85760803660031901126102c85761028561256d565b6064359367ffffffffffffffff85116102c557506102aa6102b793943690840161253c565b9290916044359135612ac2565b825191825215156020820152f35b80fd5b8280fd5b5050346102eb57816003193601126102eb57602090600a549051908152f35b5080fd5b9290503461046757610300366125bc565b909261030a612c37565b610312612c16565b61031d841515612849565b82516370a0823160e01b815233828201526020917f00000000000000000000000000000000000000000000000000000000000000006001600160a01b0316918381602481865afa90811561045d578891610422575b50839291610384886064931015612888565b865198899384926323b872dd60e01b845233908401523060248401528960448401525af1948515610418577fccbea4088a3b7ae9ca2d15fab9a9742a4075b4d7247768a1eecea917565aba0094956103eb575b5082519485528401523392a2600160025580f35b61040a90823d8411610411575b61040281836126c6565b81019061277e565b50386103d7565b503d6103f8565b83513d88823e3d90fd5b9750909190508287813d8111610456575b61043d81836126c6565b810103126104515795518796919083610372565b600080fd5b503d610433565b86513d8a823e3d90fd5b5050fd5b5050346102eb5760203660031901126102eb5760209181906001600160a01b03610493612583565b1681526009845220549051908152f35b509190346102eb5760203660031901126102eb5782358252826020528082208151916104ce83612664565b815483526001820154936020840194855260028301549180850192835260038401549360608601948552600588820154916080880192835201549460a087019261051b60ff88168561283d565b60ff60c089019760081c16159687158152876105bf575b876105b4575b6105458a5188519061274e565b985199519651925193519451958b8710156105a15750518151998a5260208a01969096528801526060870152608086015261012095509015159061058d9060a0860190612599565b60c0840152151560e0830152610100820152f35b634e487b7160e01b815260218c52602490fd5b835142109750610538565b82514210159750610532565b508290346102eb57816003193601126102eb57600a54600b5484516370a0823160e01b81523093810193909352939092906020836024817f00000000000000000000000000000000000000000000000000000000000000006001600160a01b03165afa91821561068f5791610659575b519283526020830193909352506040810191909152606090f35b0390f35b90506020823d602011610687575b81610674602093836126c6565b810103126104515761065591519061063b565b3d9150610667565b9051903d90823e3d90fd5b5082346102c55760203660031901126102c5578135918210156102c557506106c190612600565b80546001820154600290920154925190815260208101919091526040810191909152606090f35b5090346102c857806003193601126102c857610722913561071d600161070c61256d565b938387528660205286200154612d98565b612f4d565b5080f35b5050346102eb5760203660031901126102eb5760209181906001600160a01b0361074e612583565b1681526006845220549051908152f35b50346102c85760803660031901126102c857803590808210156109d05767ffffffffffffffff92602435848111610a8b5761079c903690840161253c565b60449291923595606435908111610a87576107ba90369086016125d2565b9390966107c5612d4e565b6107cd612c37565b6107d5612c16565b6107e360ff60115416612796565b8215610a4c576107f7600f5484111561295e565b610802811515612849565b808302928084048203610a37579083929161082d899695600261082489612600565b015410156127e2565b6108356131a3565b8a61083f826126e8565b9261084c875194856126c6565b828452610858836126e8565b99602096602086019b601f1901368d37835b8581106109d457506108a4600261089b60019c600161088882612600565b01610894868254612771565b9055612600565b0191825461274e565b90557f00000000000000000000000000000000000000000000000000000000000000006001600160a01b031690813b156109d05783918991838351809681958294633985effb60e01b84528301526109018c8b6044850191612a20565b90602483015203925af180156109c6576109ae575b505060209261093e9161092e8796989751809c612599565b6080858c015260808b0191612a20565b92888403908901525191828152019492885b82811061099b5789897fdb8733350f75af374f65fbaa45b4c7307ab9fa3742e248e9656d243d576695508a806109908c8c83820360608501523396612a8d565b0390a2600160025580f35b8451875295810195938101938301610950565b6109b7906126b2565b6109c2578a38610916565b8a80fd5b87513d84823e3d90fd5b8380fd5b9092949596979899506001919350610a1a856109f96109f4848a8d6129a1565b6129c7565b610a0b858060a01b03821615156129db565b610a1582826131ba565b6132c0565b84610a258289612aae565b5201918b989796959493918e9361086a565b601187634e487b7160e01b6000525260246000fd5b835162461bcd60e51b815260208188015260156024820152744d57473a20456d70747920726563697069656e747360581b6044820152606490fd5b8780fd5b8580fd5b5050346102eb57816003193601126102eb57517f00000000000000000000000000000000000000000000000000000000000000006001600160a01b03168152602090f35b5050346102eb57816003193601126102eb57602090516000805160206133a08339815191528152f35b5090346102c857600319916080368401126109d05780359181831015610e465767ffffffffffffffff602435818111610e4257610b3c903690850161253c565b9190604435828111610e3e57610b55903690870161253c565b939092606435908111610e3a57610b6f90369088016125d2565b969098610b7a612d4e565b610b82612c37565b610b8a612c16565b610b9860ff60115416612796565b858303610df7578215610dc0578a90610bb5600f5485111561295e565b818a835b898110610d985750816002610824610bd093612600565b610bd86131a3565b825b858110610d4d57506001610bed8c612600565b01610bf9828254612771565b9055610c09600261089b8d612600565b90557f00000000000000000000000000000000000000000000000000000000000000006001600160a01b0316803b156102c8578883610c779582519687958694859363446b4ad960e11b8552840152610c66604484018b8d612a20565b908382030160248401528c8c612a69565b03925af18015610d4357610cf4575b509361099093610cc69693610cd7610ce4947fdb8733350f75af374f65fbaa45b4c7307ab9fa3742e248e9656d243d576695509a9885519a8b809b612599565b608060208b015260808a0191612a20565b9287840390880152612a69565b9083820360608501523396612a8d565b93610cc69693610cd7610ce4947fdb8733350f75af374f65fbaa45b4c7307ab9fa3742e248e9656d243d576695509a98949c610d32610990996126b2565b9c94989a5094505093965093610c86565b86513d8c823e3d90fd5b600191929350610d8e610d646109f483898b6129a1565b610d6f838c8c6129a1565b3590610d83858060a01b03821615156129db565b610a0b821515612849565b01908c9291610bda565b92935050610db4600191610dad848b8b6129a1565b3590612771565b9101908a8d9392610bb9565b865162461bcd60e51b815260208184015260116024820152704d57473a20456d7074792061727261797360781b6044820152606490fd5b865162461bcd60e51b8152602081840152601a60248201527f4d57473a204172726179206c656e677468206d69736d617463680000000000006044820152606490fd5b8980fd5b8880fd5b8680fd5b8480fd5b50346102c85760203660031901126102c857803590610e67612d04565b670de0b6b3a76400008210610eb05750907f207c4cbdf55ec315a13f0d5e047732ec5d947da056e706593aa509909941cedf91600e549080600e5582519182526020820152a180f35b606490602084519162461bcd60e51b8352820152601860248201527f4d57473a204461696c79206c696d697420746f6f206c6f7700000000000000006044820152fd5b509190346102eb57610f04366125bc565b610f0c612cac565b60119460ff865416611165578215611122578282116110d557610f2f828461274e565b9560328702918715928881046032148417156110c3576064900492600589028981046005148217156110b1576064900491600f8a02918a8304600f14171561109f57509083610fb3899a610fae84610fae60647fd635368012f1fd9be4fded88393d0328b0d060bcc0416fc5cf379a4202f177ad9e980495869461274e565b61274e565b918851610fbf81612696565b86815260026020978b8984019780895281850192835280805260038b5220925183556001965187840155519101556002895191610ffb83612696565b8083528c8b8985019180835281860193845288815260038b522093518455518684015551910155600288519161103083612696565b8083528683018c81528a8401918252828d52600388528a8d2093518455518584015551910155600287519161106483612696565b8083528583018b81528984019182526003808d528752898c2093518455518484015551910155815460ff19161790558351928352820152a180f35b634e487b7160e01b8952839052602488fd5b634e487b7160e01b8952838352602489fd5b634e487b7160e01b8852828252602488fd5b608490602085519162461bcd60e51b8352820152602160248201527f4d57473a20506172746e657220616c6c6f636174696f6e20746f6f206c6172676044820152606560f81b6064820152fd5b606490602085519162461bcd60e51b8352820152601960248201527f4d57473a20496e76616c696420746f74616c20737570706c79000000000000006044820152fd5b606490602085519162461bcd60e51b8352820152601f60248201527f4d57473a205661756c747320616c726561647920696e697469616c697a6564006044820152fd5b5050346102eb57816003193601126102eb5751908152602090f35b83346102c55760203660031901126102c5576107226111e0612583565b6111e8612cac565b6111fc6001600160a01b038216151561291b565b6130b3565b5090346102c85760203660031901126102c857813590818452826020528084209061122e82541515612619565b6005820180549260ff8460081c16611338578581015442106112fe579061126d60ff9261010061ff00198716178355600260018201549101549061274e565b93846112c1575b50541693808510156112ae57507ff449a87b497725252ea005acdf851c029934dd8df9f5798e4a77e3bb93a5af0a9160209151908152a380f35b634e487b7160e01b865260219052602485fd5b6112ce8360029216612600565b016112da858254612771565b905560016112ea83835416612600565b016112f685825461274e565b905538611274565b825162461bcd60e51b815260208188015260146024820152731355d1ce88139bdd08195e1c1a5c9959081e595d60621b6044820152606490fd5b825162461bcd60e51b815260208188015260166024820152751355d1ce88105b1c9958591e48199a5b985b1a5e995960521b6044820152606490fd5b50346102c857816003193601126102c8578160209360ff9261139461256d565b903582528186528282206001600160a01b039091168252855220549151911615158152f35b5082346102c55760203660031901126102c5578135918210156102c557506113e36113e891612600565b6128f3565b80516020808301519284015193519182528101919091526040810191909152606090f35b5050346102eb57816003193601126102eb57602090600e549051908152f35b5050346102eb5760203660031901126102eb5760ff8160209361144c612583565b60008051602061336083398151915282528186528282206001600160a01b039091168252855220549151911615158152f35b83346102c55760203660031901126102c55761072261149b612583565b6114a3612cac565b6114b76001600160a01b038216151561291b565b61302a565b5050346102eb57816003193601126102eb57906115bd610180926114de6128d4565b506114e76128d4565b506114f06128d4565b506114f96128d4565b50828052600360205261159e81842060018552611581838620956002815261156561154861154261153c61153689808720966003815220976128f3565b9a6128f3565b936128f3565b946128f3565b955180986040809180518452602081015160208501520151910152565b80516060880152602081015160808801526040015160a0870152565b805160c0860152602081015160e086015260400151610100850152565b8051610120840152602081015161014084015260400151610160830152565bf35b5050346102eb57816003193601126102eb5760207f62e78cea01bee320cd4e420270b5ea74000d11b0c9f74754ebdbfc544b05a258916115fd612d04565b611605612c37565b600160ff198154161760015551338152a180f35b50346102c85760203660031901126102c857803590611636612d04565b603c82106116be5762093a8082116116825750907f98eaabfe135a9c40c420208962bf81e7926b4d6df3e23502164c0554b7b3522491601054908060105582519182526020820152a180f35b606490602084519162461bcd60e51b835282015260166024820152754d57473a20436f6f6c646f776e20746f6f206c6f6e6760501b6044820152fd5b606490602084519162461bcd60e51b8352820152601760248201527f4d57473a20436f6f6c646f776e20746f6f2073686f72740000000000000000006044820152fd5b5050346102eb57816003193601126102eb57602090600d549051908152f35b5050346102eb57816003193601126102eb5760209060ff6011541690519015158152f35b50346102c85760203660031901126102c85761175e612583565b90611767612cac565b6001600160a01b038216928315611800573384146117bd57505061178a90612fb0565b5061179433612ed1565b50337ff8ccb027dfcd135e000e9d45e6cc2d662578a8825d4c45b5e32e0adf67e79ec68380a380f35b906020606492519162461bcd60e51b8352820152601f60248201527f4d57473a204e65772061646d696e2069732063757272656e742061646d696e006044820152fd5b906020606492519162461bcd60e51b8352820152601e60248201527f4d57473a204e65772061646d696e206973207a65726f206164647265737300006044820152fd5b5050346102eb5760203660031901126102eb5760ff81602093611864612583565b6000805160206133a083398151915282528186528282206001600160a01b039091168252855220549151911615158152f35b5050346102eb57816003193601126102eb5760209060ff6001541690519015158152f35b5050346102eb57816003193601126102eb57602090600c549051908152f35b5090346102c8576020806003193601126109d0578235916118f8612cac565b611903831515612849565b80516370a0823160e01b815230818601527f00000000000000000000000000000000000000000000000000000000000000006001600160a01b031694908381602481895afa908115611a2b5787916119fc575b5061199795849261196a8780941015612888565b845163a9059cbb60e01b81523391810191825260208201939093529196879283918a918391604090910190565b03925af19384156119f2577f5fafa99d0643513820be26656b45130b01e1c03062e1266bf36f88cbd3bd969593946119d5575b50519283523392a280f35b6119eb90833d85116104115761040281836126c6565b50386119ca565b81513d87823e3d90fd5b90508381813d8311611a24575b611a1381836126c6565b81010312610e425751611997611956565b503d611a09565b83513d89823e3d90fd5b5050346102eb5760203660031901126102eb576001600160a01b03611a58612583565b168252600660209081528183205460098252828420546008835293839020549251908152908101929092526040820152606090f35b5090346102c85760803660031901126102c857602492604435908335908535858410156102eb5760643595611ac660ff60115416612796565b6000805160206133a08339815191528352602097838952868420338552895260ff87852054168015611d77575b15611d35578415611cf3578215611cba5760018810611c7857611b1b83600261082489612600565b6001611b2687612600565b01611b32848254612771565b90556002611b3f87612600565b01611b4b84825461274e565b9055600d5497611b5a8961282e565b600d556201518090818102918183041490151715611c6657869291611b808a9242612771565b9560058c888c5191611b9183612664565b8b83528d8184018b8152818501918783528a606087019442865260808801968752611bc060a089019e8f61283d565b60c088019b8a8d528a525287209451855551600185015551600284015551600383015551868201550194519380851015611c565750505092827f8e210f11d37bb0287c23659184ec508814ef9e5548aa658a1146827803ae13db959260809560ff61ff008d9a97549251151560081b1692169061ffff19161717905587519283528983015242878301526060820152a351908152f35b634e487b7160e01b825260219052fd5b50634e487b7160e01b84526011825283fd5b865162461bcd60e51b81529182018990526017908201527f4d57473a204475726174696f6e20746f6f2073686f72740000000000000000006044820152606490fd5b865162461bcd60e51b81529182018990526014908201527326aba39d102d32b9379030b63637b1b0ba34b7b760611b6044820152606490fd5b865162461bcd60e51b81529182018990526018908201527f4d57473a20496e76616c6964206d65726b6c6520726f6f7400000000000000006044820152606490fd5b865162461bcd60e51b81529182018990526018908201527f4d57473a2043616c6c6572206973206e6f742061646d696e00000000000000006044820152606490fd5b50838052838952868420338552895260ff8785205416611af3565b50346102c857816003193601126102c8576020928291611db061256d565b90358252600585528282206001600160a01b039091168252845220549051908152f35b83346102c55760203660031901126102c557610722611df0612583565b611df8612cac565b612e4a565b5090346102c85760203660031901126102c8578060ff9160e0948435815284602052208054936001820154926002830154906005600385015493850154940154948151978852602088015286015260608501526080840152611e6460a08401838316612599565b60081c16151560c0820152f35b50346102c857826003193601126102c857611e8a612d04565b6001549060ff821615611ecc575060ff1916600155513381527f5db9ee0a495bf2e6ff9c91a7834c1ba4fdd244a5e8aa4e537bd38aeae4b073aa90602090a180f35b8251638dfc202b60e01b8152fd5b509190346102eb57806003193601126102eb57611ef561256d565b90336001600160a01b03831603611f125750610722919235612f4d565b5163334bd91960e11b81528390fd5b5050346102eb57816003193601126102eb57602090516000805160206133608339815191528152f35b5090346102c857806003193601126102c8576107229135611f6e600161070c61256d565b61313c565b5050346102eb57816003193601126102eb57602090600b549051908152f35b50346102c85760203660031901126102c857803590611faf612d04565b811561203b576101f48211611ff85750907f6b141d34195f1cbfa2080571bebbe19ad6d201cc0d1d53c70550795d14a4be8391600f549080600f5582519182526020820152a180f35b606490602084519162461bcd60e51b8352820152601f60248201527f4d57473a2042617463682073697a652065786365656473206d6178696d756d006044820152fd5b606490602084519162461bcd60e51b8352820152602060248201527f4d57473a2042617463682073697a65206d75737420626520706f7369746976656044820152fd5b5050346102eb57816003193601126102eb57602090600f549051908152f35b50346102c85760203660031901126102c857816020936001923581528085522001549051908152f35b5050346102eb5760203660031901126102eb5760209181906001600160a01b036120ee612583565b1681526007845220549051908152f35b5050346102eb5760203660031901126102eb5760209181906001600160a01b03612126612583565b1681526008845220549051908152f35b83346102c55760203660031901126102c557610722612153612583565b61215b612cac565b612dbe565b5090346102c85760603660031901126102c857813590602492833590604490813567ffffffffffffffff8111610a875761219d903690830161253c565b9290966121a8612c16565b6121b0612c37565b868952602093838552868a20988954906121cb821515612619565b60ff60058c015460081c1661248857858b01544210156124475760038b015442106124065788513360601b6bffffffffffffffffffffffff1916888201908152601481018a90526122469493926122419290919061223681603484015b03601f1981018352826126c6565b519020933691612700565b612c55565b156123d25786895260058452858920338a528452858920548086111561239a576122726002918761274e565b98888b5260058652878b20338c52865286888c205501612293898254612771565b9055855163a9059cbb60e01b815233848201908152602081018a905285908290819060400103818d7f00000000000000000000000000000000000000000000000000000000000000006001600160a01b03165af1908115612390578a91612373575b501561233457505083519586525084015233927fa99e56daf7b172944ed4142b79056ff30b8c461557290c222948987fede4389a9190a3600160025580f35b90601a7f4d57473a20546f6b656e207472616e73666572206661696c65640000000000009260649588519562461bcd60e51b8752860152840152820152fd5b61238a9150853d87116104115761040281836126c6565b386122f5565b87513d8c823e3d90fd5b50906015744d57473a204e6f7468696e6720746f20636c61696d60581b9260649588519562461bcd60e51b8752860152840152820152fd5b9060127126aba39d1024b73b30b634b210383937b7b360711b9260649588519562461bcd60e51b8752860152840152820152fd5b885162461bcd60e51b8152808701889052601d818601527f4d57473a20446973747269627574696f6e206e6f74207374617274656400000081870152606490fd5b885162461bcd60e51b81528087018890526019818601527f4d57473a20446973747269627574696f6e20657870697265640000000000000081870152606490fd5b885162461bcd60e51b8152808701889052601b818601527f4d57473a20446973747269627574696f6e2066696e616c697a6564000000000081870152606490fd5b5050346102eb57816003193601126102eb576020906010549051908152f35b925050346102c85760203660031901126102c8573563ffffffff60e01b81168091036102c85760209250637965db0b60e01b811490811561252b575b5015158152f35b6301ffc9a760e01b14905038612524565b9181601f840112156104515782359167ffffffffffffffff8311610451576020808501948460051b01011161045157565b602435906001600160a01b038216820361045157565b600435906001600160a01b038216820361045157565b9060048210156125a65752565b634e487b7160e01b600052602160045260246000fd5b6040906003190112610451576004359060243590565b9181601f840112156104515782359167ffffffffffffffff8311610451576020838186019501011161045157565b60048110156125a6576000526003602052604060002090565b1561262057565b606460405162461bcd60e51b815260206004820152602060248201527f4d57473a20446973747269627574696f6e20646f6573206e6f742065786973746044820152fd5b60e0810190811067ffffffffffffffff82111761268057604052565b634e487b7160e01b600052604160045260246000fd5b6060810190811067ffffffffffffffff82111761268057604052565b67ffffffffffffffff811161268057604052565b90601f8019910116810190811067ffffffffffffffff82111761268057604052565b67ffffffffffffffff81116126805760051b60200190565b929161270b826126e8565b9161271960405193846126c6565b829481845260208094019160051b810192831161045157905b82821061273f5750505050565b81358152908301908301612732565b9190820391821161275b57565b634e487b7160e01b600052601160045260246000fd5b9190820180921161275b57565b90816020910312610451575180151581036104515790565b1561279d57565b60405162461bcd60e51b815260206004820152601b60248201527f4d57473a205661756c7473206e6f7420696e697469616c697a656400000000006044820152606490fd5b156127e957565b60405162461bcd60e51b815260206004820152601f60248201527f4d57473a20496e73756666696369656e74207661756c742062616c616e6365006044820152606490fd5b600019811461275b5760010190565b60048210156125a65752565b1561285057565b60405162461bcd60e51b815260206004820152601060248201526f1355d1ce8816995c9bc8185b5bdd5b9d60821b6044820152606490fd5b1561288f57565b60405162461bcd60e51b815260206004820152601960248201527f4d57473a20496e73756666696369656e742062616c616e6365000000000000006044820152606490fd5b604051906128e182612696565b60006040838281528260208201520152565b9060405161290081612696565b60406002829480548452600181015460208501520154910152565b1561292257565b60405162461bcd60e51b81526020600482015260146024820152731355d1ce88125b9d985b1a59081858d8dbdd5b9d60621b6044820152606490fd5b1561296557565b60405162461bcd60e51b81526020600482015260146024820152734d57473a20426174636820746f6f206c6172676560601b6044820152606490fd5b91908110156129b15760051b0190565b634e487b7160e01b600052603260045260246000fd5b356001600160a01b03811681036104515790565b156129e257565b60405162461bcd60e51b81526020600482015260166024820152751355d1ce88125b9d985b1a59081c9958da5c1a595b9d60521b6044820152606490fd5b9190808252602080920192916000805b838210612a3f57505050505090565b9091929394853560018060a01b0381168091036102c8578152830194830193929160010190612a30565b81835290916001600160fb1b0383116104515760209260051b809284830137010190565b908060209392818452848401376000828201840152601f01601f1916010190565b80518210156129b15760209160051b010190565b93919293600094818652600460205260409384872091855192612ae484612664565b805484526001810154602085015260028101548785015260038101546060850190815260ff6005600484015493608088019485520154612b2982821660a0890161283d565b60081c161515918260c0870152855115928315612c0e575b508215612c02575b508115612bf7575b50612beb5790612241612ba0939287516020810190612b93816122288d8c8690916034926bffffffffffffffffffffffff199060601b16825260148201520190565b5190209351923691612700565b15612be2578452600560209081528285206001600160a01b039092168552528220549081811115612bdb57612bd5925061274e565b90600190565b5050612bd5565b50505050908190565b50505050505050908190565b905051421038612b51565b51421015915038612b49565b925038612b41565b6002805414612c255760028055565b604051633ee5aeb560e01b8152600490fd5b60ff60015416612c4357565b60405163d93c066560e01b8152600490fd5b929091906000915b8451831015612ca457612c708386612aae565b5190600082821015612c935750600052602052600160406000205b920191612c5d565b604091600193825260205220612c8b565b915092501490565b3360009081527fad3228b676f7d3cd4284a5443f17f1962b36e491b30a40b2405849e597ba5fb5602052604081205460ff1615612ce65750565b6044906040519063e2517d3f60e01b82523360048301526024820152fd5b3360009081527f34187b4df4dde90344524af04b4bfa2b494efae448e1c13d6ef6a07e1075558160205260409020546000805160206133a08339815191529060ff1615612ce65750565b3360009081527f9e607de338c7d6508550727646d2998939f27517879a7dd916362b3520e3948760205260409020546000805160206133608339815191529060ff1615612ce65750565b80600052600060205260406000203360005260205260ff6040600020541615612ce65750565b6001600160a01b031660008181527f9e607de338c7d6508550727646d2998939f27517879a7dd916362b3520e3948760205260408120549091906000805160206133608339815191529060ff1615612e455780835282602052604083208284526020526040832060ff1981541690556000805160206133c0833981519152339380a4600190565b505090565b6001600160a01b031660008181527f34187b4df4dde90344524af04b4bfa2b494efae448e1c13d6ef6a07e1075558160205260408120549091906000805160206133a08339815191529060ff1615612e455780835282602052604083208284526020526040832060ff1981541690556000805160206133c0833981519152339380a4600190565b6001600160a01b031660008181527fad3228b676f7d3cd4284a5443f17f1962b36e491b30a40b2405849e597ba5fb5602052604081205490919060ff1615612f495781805281602052604082208183526020526040822060ff19815416905533916000805160206133c08339815191528180a4600190565b5090565b9060009180835282602052604083209160018060a01b03169182845260205260ff604084205416600014612e455780835282602052604083208284526020526040832060ff1981541690556000805160206133c0833981519152339380a4600190565b6001600160a01b031660008181527fad3228b676f7d3cd4284a5443f17f1962b36e491b30a40b2405849e597ba5fb5602052604081205490919060ff16612f4957818052816020526040822081835260205260408220600160ff1982541617905533916000805160206133808339815191528180a4600190565b6001600160a01b031660008181527f9e607de338c7d6508550727646d2998939f27517879a7dd916362b3520e3948760205260408120549091906000805160206133608339815191529060ff16612e4557808352826020526040832082845260205260408320600160ff19825416179055600080516020613380833981519152339380a4600190565b6001600160a01b031660008181527f34187b4df4dde90344524af04b4bfa2b494efae448e1c13d6ef6a07e1075558160205260408120549091906000805160206133a08339815191529060ff16612e4557808352826020526040832082845260205260408320600160ff19825416179055600080516020613380833981519152339380a4600190565b9060009180835282602052604083209160018060a01b03169182845260205260ff60408420541615600014612e4557808352826020526040832082845260205260408320600160ff19825416179055600080516020613380833981519152339380a4600190565b620151804204600c5481116131b55750565b600c55565b60018060a01b0316600090808252602092600784526040832054600c54146000146132b657600684526131f1816040852054612771565b600e54106132715768056bc75e2d63100000111561320e57505050565b815260088252604090205460105461322591612771565b421061322e5750565b6064906040519062461bcd60e51b825280600483015260248201527f4d57473a20436f6f6c646f776e20706572696f64206e6f7420656c61707365646044820152fd5b60405162461bcd60e51b815260048101859052601960248201527f4d57473a204461696c79206c696d6974206578636565646564000000000000006044820152606490fd5b6131f18184612771565b60018060a01b03166000818152600960206007815260409384842054600c5403613346575b600682528484206132f7878254612771565b905580845282825284842061330d878254612771565b905580845260088252428585205561332786600a54612771565b600a5583525220541461333657565b613341600b5461282e565b600b55565b600682528385812055600c5460078352858520556132e556feb814ff4a26ea3ec5cd1fa579daad86324826254265f3acfec78303a19845b4492f8788117e7eff1d82e926ec794901d17c78024a50270940304540a733656f0d9b7946abd96dccbe6cfc6cc2c13300ab429d93e16fa72dc459eeccda73817f08f6391f5c32d9c69d2a47ea670b442974b53935d1edc7fd64eb21e047a839171ba2646970667358221220811d49fc19d584fe3298f5bb0c59b2c441c0fe053b0afc05ebe299755e6a510164736f6c634300081800332f8788117e7eff1d82e926ec794901d17c78024a50270940304540a733656f0d",
  "linkReferences": {},
  "deployedLinkReferences": {}
}