{
  "_format": "hh-sol-artifact-1",
  "contractName": "MagicWorldToken",
  "sourceName": "contracts/MagicWorldToken.sol",
  "abi": [
    {
      "inputs": [
        {
          "internalType": "string",
          "name": "name",
          "type": "string"
        },
        {
          "internalType": "string",
          "name": "symbol",
          "type": "string"
        },
        {
          "internalType": "uint256",
          "name": "totalSupply",
          "type": "uint256"
        }
      ],
      "stateMutability": "nonpayable",
      "type": "constructor"
    },
    {
      "inputs": [],
      "name": "AccessControlBadConfirmation",
      "type": "error"
    },
    {
      "inputs": [
        {
          "internalType": "address",
          "name": "account",
          "type": "address"
        },
        {
          "internalType": "bytes32",
          "name": "neededRole",
          "type": "bytes32"
        }
      ],
      "name": "AccessControlUnauthorizedAccount",
      "type": "error"
    },
    {
      "inputs": [
        {
          "internalType": "address",
          "name": "spender",
          "type": "address"
        },
        {
          "internalType": "uint256",
          "name": "allowance",
          "type": "uint256"
        },
        {
          "internalType": "uint256",
          "name": "needed",
          "type": "uint256"
        }
      ],
      "name": "ERC20InsufficientAllowance",
      "type": "error"
    },
    {
      "inputs": [
        {
          "internalType": "address",
          "name": "sender",
          "type": "address"
        },
        {
          "internalType": "uint256",
          "name": "balance",
          "type": "uint256"
        },
        {
          "internalType": "uint256",
          "name": "needed",
          "type": "uint256"
        }
      ],
      "name": "ERC20InsufficientBalance",
      "type": "error"
    },
    {
      "inputs": [
        {
          "internalType": "address",
          "name": "approver",
          "type": "address"
        }
      ],
      "name": "ERC20InvalidApprover",
      "type": "error"
    },
    {
      "inputs": [
        {
          "internalType": "address",
          "name": "receiver",
          "type": "address"
        }
      ],
      "name": "ERC20InvalidReceiver",
      "type": "error"
    },
    {
      "inputs": [
        {
          "internalType": "address",
          "name": "sender",
          "type": "address"
        }
      ],
      "name": "ERC20InvalidSender",
      "type": "error"
    },
    {
      "inputs": [
        {
          "internalType": "address",
          "name": "spender",
          "type": "address"
        }
      ],
      "name": "ERC20InvalidSpender",
      "type": "error"
    },
    {
      "inputs": [],
      "name": "EnforcedPause",
      "type": "error"
    },
    {
      "inputs": [],
      "name": "ExpectedPause",
      "type": "error"
    },
    {
      "anonymous": false,
      "inputs": [
        {
          "indexed": true,
          "internalType": "address",
          "name": "previousAdmin",
          "type": "address"
        },
        {
          "indexed": true,
          "internalType": "address",
          "name": "newAdmin",
          "type": "address"
        }
      ],
      "name": "AdminTransferred",
      "type": "event"
    },
    {
      "anonymous": false,
      "inputs": [
        {
          "indexed": true,
          "internalType": "address",
          "name": "owner",
          "type": "address"
        },
        {
          "indexed": true,
          "internalType": "address",
          "name": "spender",
          "type": "address"
        },
        {
          "indexed": false,
          "internalType": "uint256",
          "name": "value",
          "type": "uint256"
        }
      ],
      "name": "Approval",
      "type": "event"
    },
    {
      "anonymous": false,
      "inputs": [
        {
          "indexed": true,
          "internalType": "address",
          "name": "operator",
          "type": "address"
        },
        {
          "indexed": false,
          "internalType": "uint256",
          "name": "totalAmount",
          "type": "uint256"
        },
        {
          "indexed": false,
          "internalType": "uint256",
          "name": "recipientCount",
          "type": "uint256"
        }
      ],
      "name": "BatchTransfer",
      "type": "event"
    },
    {
      "anonymous": false,
      "inputs": [
        {
          "indexed": true,
          "internalType": "address",
          "name": "operator",
          "type": "address"
        },
        {
          "indexed": false,
          "internalType": "address[]",
          "name": "recipients",
          "type": "address[]"
        },
        {
          "indexed": false,
          "internalType": "uint256",
          "name": "amount",
          "type": "uint256"
        }
      ],
      "name": "BatchTransferEqual",
      "type": "event"
    },
    {
      "anonymous": false,
      "inputs": [
        {
          "indexed": false,
          "internalType": "address",
          "name": "account",
          "type": "address"
        }
      ],
      "name": "Paused",
      "type": "event"
    },
    {
      "anonymous": false,
      "inputs": [
        {
          "indexed": true,
          "internalType": "bytes32",
          "name": "role",
          "type": "bytes32"
        },
        {
          "indexed": true,
          "internalType": "bytes32",
          "name": "previousAdminRole",
          "type": "bytes32"
        },
        {
          "indexed": true,
          "internalType": "bytes32",
          "name": "newAdminRole",
          "type": "bytes32"
        }
      ],
      "name": "RoleAdminChanged",
      "type": "event"
    },
    {
      "anonymous": false,
      "inputs": [
        {
          "indexed": true,
          "internalType": "bytes32",
          "name": "role",
          "type": "bytes32"
        },
        {
          "indexed": true,
          "internalType": "address",
          "name": "account",
          "type": "address"
        },
        {
          "indexed": true,
          "internalType": "address",
          "name": "sender",
          "type": "address"
        }
      ],
      "name": "RoleGranted",
      "type": "event"
    },
    {
      "anonymous": false,
      "inputs": [
        {
          "indexed": true,
          "internalType": "bytes32",
          "name": "role",
          "type": "bytes32"
        },
        {
          "indexed": true,
          "internalType": "address",
          "name": "account",
          "type": "address"
        },
        {
          "indexed": true,
          "internalType": "address",
          "name": "sender",
          "type": "address"
        }
      ],
      "name": "RoleRevoked",
      "type": "event"
    },
    {
      "anonymous": false,
      "inputs": [
        {
          "indexed": true,
          "internalType": "address",
          "name": "from",
          "type": "address"
        },
        {
          "indexed": true,
          "internalType": "address",
          "name": "to",
          "type": "address"
        },
        {
          "indexed": false,
          "internalType": "uint256",
          "name": "value",
          "type": "uint256"
        }
      ],
      "name": "Transfer",
      "type": "event"
    },
    {
      "anonymous": false,
      "inputs": [
        {
          "indexed": false,
          "internalType": "address",
          "name": "account",
          "type": "address"
        }
      ],
      "name": "Unpaused",
      "type": "event"
    },
    {
      "inputs": [],
      "name": "DEFAULT_ADMIN_ROLE",
      "outputs": [
        {
          "internalType": "bytes32",
          "name": "",
          "type": "bytes32"
        }
      ],
      "stateMutability": "view",
      "type": "function"
    },
    {
      "inputs": [],
      "name": "GAME_OPERATOR_ROLE",
      "outputs": [
        {
          "internalType": "bytes32",
          "name": "",
          "type": "bytes32"
        }
      ],
      "stateMutability": "view",
      "type": "function"
    },
    {
      "inputs": [],
      "name": "MAX_BATCH_SIZE",
      "outputs": [
        {
          "internalType": "uint256",
          "name": "",
          "type": "uint256"
        }
      ],
      "stateMutability": "view",
      "type": "function"
    },
    {
      "inputs": [],
      "name": "PAUSE_ROLE",
      "outputs": [
        {
          "internalType": "bytes32",
          "name": "",
          "type": "bytes32"
        }
      ],
      "stateMutability": "view",
      "type": "function"
    },
    {
      "inputs": [
        {
          "internalType": "address",
          "name": "owner",
          "type": "address"
        },
        {
          "internalType": "address",
          "name": "spender",
          "type": "address"
        }
      ],
      "name": "allowance",
      "outputs": [
        {
          "internalType": "uint256",
          "name": "",
          "type": "uint256"
        }
      ],
      "stateMutability": "view",
      "type": "function"
    },
    {
      "inputs": [
        {
          "internalType": "address",
          "name": "spender",
          "type": "address"
        },
        {
          "internalType": "uint256",
          "name": "value",
          "type": "uint256"
        }
      ],
      "name": "approve",
      "outputs": [
        {
          "internalType": "bool",
          "name": "",
          "type": "bool"
        }
      ],
      "stateMutability": "nonpayable",
      "type": "function"
    },
    {
      "inputs": [
        {
          "internalType": "address",
          "name": "account",
          "type": "address"
        }
      ],
      "name": "balanceOf",
      "outputs": [
        {
          "internalType": "uint256",
          "name": "",
          "type": "uint256"
        }
      ],
      "stateMutability": "view",
      "type": "function"
    },
    {
      "inputs": [
        {
          "internalType": "address[]",
          "name": "recipients",
          "type": "address[]"
        },
        {
          "internalType": "uint256[]",
          "name": "amounts",
          "type": "uint256[]"
        }
      ],
      "name": "batchTransfer",
      "outputs": [],
      "stateMutability": "nonpayable",
      "type": "function"
    },
    {
      "inputs": [
        {
          "internalType": "address[]",
          "name": "recipients",
          "type": "address[]"
        },
        {
          "internalType": "uint256",
          "name": "amount",
          "type": "uint256"
        }
      ],
      "name": "batchTransferEqual",
      "outputs": [],
      "stateMutability": "nonpayable",
      "type": "function"
    },
    {
      "inputs": [],
      "name": "decimals",
      "outputs": [
        {
          "internalType": "uint8",
          "name": "",
          "type": "uint8"
        }
      ],
      "stateMutability": "view",
      "type": "function"
    },
    {
      "inputs": [],
      "name": "getMaxBatchSize",
      "outputs": [
        {
          "internalType": "uint256",
          "name": "",
          "type": "uint256"
        }
      ],
      "stateMutability": "pure",
      "type": "function"
    },
    {
      "inputs": [
        {
          "internalType": "bytes32",
          "name": "role",
          "type": "bytes32"
        }
      ],
      "name": "getRoleAdmin",
      "outputs": [
        {
          "internalType": "bytes32",
          "name": "",
          "type": "bytes32"
        }
      ],
      "stateMutability": "view",
      "type": "function"
    },
    {
      "inputs": [
        {
          "internalType": "bytes32",
          "name": "role",
          "type": "bytes32"
        },
        {
          "internalType": "address",
          "name": "account",
          "type": "address"
        }
      ],
      "name": "grantRole",
      "outputs": [],
      "stateMutability": "nonpayable",
      "type": "function"
    },
    {
      "inputs": [
        {
          "internalType": "bytes32",
          "name": "role",
          "type": "bytes32"
        },
        {
          "internalType": "address",
          "name": "account",
          "type": "address"
        }
      ],
      "name": "hasRole",
      "outputs": [
        {
          "internalType": "bool",
          "name": "",
          "type": "bool"
        }
      ],
      "stateMutability": "view",
      "type": "function"
    },
    {
      "inputs": [],
      "name": "name",
      "outputs": [
        {
          "internalType": "string",
          "name": "",
          "type": "string"
        }
      ],
      "stateMutability": "view",
      "type": "function"
    },
    {
      "inputs": [],
      "name": "pause",
      "outputs": [],
      "stateMutability": "nonpayable",
      "type": "function"
    },
    {
      "inputs": [],
      "name": "paused",
      "outputs": [
        {
          "internalType": "bool",
          "name": "",
          "type": "bool"
        }
      ],
      "stateMutability": "view",
      "type": "function"
    },
    {
      "inputs": [
        {
          "internalType": "bytes32",
          "name": "role",
          "type": "bytes32"
        },
        {
          "internalType": "address",
          "name": "callerConfirmation",
          "type": "address"
        }
      ],
      "name": "renounceRole",
      "outputs": [],
      "stateMutability": "nonpayable",
      "type": "function"
    },
    {
      "inputs": [
        {
          "internalType": "bytes32",
          "name": "role",
          "type": "bytes32"
        },
        {
          "internalType": "address",
          "name": "account",
          "type": "address"
        }
      ],
      "name": "revokeRole",
      "outputs": [],
      "stateMutability": "nonpayable",
      "type": "function"
    },
    {
      "inputs": [
        {
          "internalType": "bytes4",
          "name": "interfaceId",
          "type": "bytes4"
        }
      ],
      "name": "supportsInterface",
      "outputs": [
        {
          "internalType": "bool",
          "name": "",
          "type": "bool"
        }
      ],
      "stateMutability": "view",
      "type": "function"
    },
    {
      "inputs": [],
      "name": "symbol",
      "outputs": [
        {
          "internalType": "string",
          "name": "",
          "type": "string"
        }
      ],
      "stateMutability": "view",
      "type": "function"
    },
    {
      "inputs": [],
      "name": "totalSupply",
      "outputs": [
        {
          "internalType": "uint256",
          "name": "",
          "type": "uint256"
        }
      ],
      "stateMutability": "view",
      "type": "function"
    },
    {
      "inputs": [
        {
          "internalType": "address",
          "name": "to",
          "type": "address"
        },
        {
          "internalType": "uint256",
          "name": "amount",
          "type": "uint256"
        }
      ],
      "name": "transfer",
      "outputs": [
        {
          "internalType": "bool",
          "name": "",
          "type": "bool"
        }
      ],
      "stateMutability": "nonpayable",
      "type": "function"
    },
    {
      "inputs": [
        {
          "internalType": "address",
          "name": "newAdmin",
          "type": "address"
        }
      ],
      "name": "transferAdmin",
      "outputs": [],
      "stateMutability": "nonpayable",
      "type": "function"
    },
    {
      "inputs": [
        {
          "internalType": "address",
          "name": "from",
          "type": "address"
        },
        {
          "internalType": "address",
          "name": "to",
          "type": "address"
        },
        {
          "internalType": "uint256",
          "name": "amount",
          "type": "uint256"
        }
      ],
      "name": "transferFrom",
      "outputs": [
        {
          "internalType": "bool",
          "name": "",
          "type": "bool"
        }
      ],
      "stateMutability": "nonpayable",
      "type": "function"
    },
    {
      "inputs": [],
      "name": "unpause",
      "outputs": [],
      "stateMutability": "nonpayable",
      "type": "function"
    }
  ],
  "bytecode": "0x60406080815234620003b85762001a22803803806200001e81620003bd565b9283398101606082820312620003b85781516001600160401b039290838111620003b8578262000050918301620003e3565b60209283830151858111620003b85786916200006e918501620003e3565b920151938151818111620002b8576003908154906001948583811c93168015620003ad575b8884101462000397578190601f9384811162000341575b508890848311600114620002da57600092620002ce575b505060001982851b1c191690851b1782555b8451928311620002b85760049485548581811c91168015620002ad575b8882101462000298578281116200024d575b5086918411600114620001e257938394918492600095620001d6575b50501b92600019911b1c19161781555b620001393362000455565b506200014533620004d6565b503315620001bf5760025490838201809211620001aa57506000917fddf252ad1be2c89b69c2b068fc378daa952ba7f163c4a11628f55a4df523b3ef9160025533835282815284832084815401905584519384523393a35161148890816200057a8239f35b601190634e487b7160e01b6000525260246000fd5b602490600085519163ec442f0560e01b8352820152fd5b0151935038806200011e565b9190601f198416928660005284886000209460005b8a898383106200023557505050106200021a575b50505050811b0181556200012e565b01519060f884600019921b161c19169055388080806200020b565b868601518955909701969485019488935001620001f7565b86600052876000208380870160051c8201928a88106200028e575b0160051c019086905b8281106200028157505062000102565b6000815501869062000271565b9250819262000268565b602287634e487b7160e01b6000525260246000fd5b90607f1690620000f0565b634e487b7160e01b600052604160045260246000fd5b015190503880620000c1565b90879350601f19831691866000528a6000209260005b8c8282106200032a575050841162000311575b505050811b018255620000d3565b015160001983871b60f8161c1916905538808062000303565b8385015186558b97909501949384019301620002f0565b90915084600052886000208480850160051c8201928b86106200038d575b918991869594930160051c01915b8281106200037d575050620000aa565b600081558594508991016200036d565b925081926200035f565b634e487b7160e01b600052602260045260246000fd5b92607f169262000093565b600080fd5b6040519190601f01601f191682016001600160401b03811183821017620002b857604052565b919080601f84011215620003b85782516001600160401b038111620002b85760209062000419601f8201601f19168301620003bd565b92818452828287010111620003b85760005b8181106200044157508260009394955001015290565b85810183015184820184015282016200042b565b6001600160a01b031660008181527f05b8ccbb9d4d8fb16ea74ce3c29a41f1b461fbdaff4714a0d9a8eb05499746bc602052604081205490919060ff16620004d25781805260056020526040822081835260205260408220600160ff19825416179055339160008051602062001a028339815191528180a4600190565b5090565b6001600160a01b031660008181527f02321e94d40847f2658a42722631f98abe2722cedcf64b586223ef22fc35c8d560205260408120549091907f139c2898040ef16910dc9f44dc697df79363da767d8bc92f2e310312b816e46d9060ff16620005745780835260056020526040832082845260205260408320600160ff1982541617905560008051602062001a02833981519152339380a4600190565b50509056fe608060408181526004918236101561001657600080fd5b600092833560e01c91826301ffc9a714610e2b5750816306fdde0314610d4f578163095ea7b314610ca557816318160ddd14610c8657816323b872dd14610b85578163248a9ca314610b5a5781632f2ff15d14610b30578163313ce56714610b1457816336568abe14610ace578163389ed26714610a935781633985effb1461085f5781633f4ba83a146107f55781635c975abb146107d15781636bfbc13a1461079657816370a082311461075f57816375829def1461062d5781638456cb59146105d257816388d695b2146103c557816391d148541461037e57816395d89b411461025d578163a217fddf14610242578163a9059cbb14610209578163cfdbf254146101ed578163d547741f146101a957508063dd62ed3e146101615763e7c00f6e1461014357600080fd5b3461015d578160031936011261015d576020905160c88152f35b5080fd5b503461015d578060031936011261015d578060209261017e610ec7565b610186610ee2565b6001600160a01b0391821683526001865283832091168252845220549051908152f35b919050346101e957806003193601126101e9576101e591356101e060016101ce610ee2565b9383875260056020528620015461113b565b6112fd565b5080f35b8280fd5b50503461015d578160031936011261015d576020905160c88152f35b50503461015d578060031936011261015d5760209061023b610229610ec7565b610231611047565b6024359033611374565b5160018152f35b50503461015d578160031936011261015d5751908152602090f35b83833461015d578160031936011261015d5780519082845460018160011c9060018316928315610374575b60209384841081146103615783885290811561034557506001146102f0575b505050829003601f01601f191682019267ffffffffffffffff8411838510176102dd57508291826102d9925282610e7e565b0390f35b634e487b7160e01b815260418552602490fd5b8787529192508591837f8a35acfbc15ff81a39ae7d344fd709f28e8600b4aa8c65c6b64bfe7fe36bd19b5b83851061033157505050508301018580806102a7565b80548886018301529301928490820161031b565b60ff1916878501525050151560051b84010190508580806102a7565b634e487b7160e01b895260228a52602489fd5b91607f1691610288565b9050346101e957816003193601126101e9578160209360ff9261039f610ee2565b90358252600586528282206001600160a01b039091168252855220549151911615158152f35b8391503461015d578260031936011261015d5767ffffffffffffffff9281358481116105ce576103f89036908401610ef8565b946024906024359081116105ca576104139036908601610ef8565b9161041c611065565b610424611047565b8288036105875787156105505761043e60c8891115610f29565b8695875b89811061047e5788887f762d9d59f4cdcadad8125dfd5b9228c3f3710c17cd800b7e446f4bacba81a69f898d815193845260208401523392a280f35b61049161048c828c89610fc1565b610fe7565b976104a86104a0838888610fc1565b351515610f75565b600180830180841161053e576001600160a01b03808c16918e908b905b82811061051a575050505050506104dd828787610fc1565b3581018091116105085790610502600192996104fa838989610fc1565b359033611374565b01610442565b634e487b7160e01b8a5260118352838afd5b610536858561052e61048c85888c98610fc1565b161415610ffb565b018b906104c5565b634e487b7160e01b8c5260118552858cfd5b845162461bcd60e51b815260208188015260116024820152704d57543a20456d7074792061727261797360781b6044820152606490fd5b845162461bcd60e51b8152602081880152601a60248201527f4d57543a204172726179206c656e677468206d69736d617463680000000000006044820152606490fd5b8580fd5b8380fd5b50503461015d578160031936011261015d5760207f62e78cea01bee320cd4e420270b5ea74000d11b0c9f74754ebdbfc544b05a258916106106110df565b610618611047565b600160ff19600654161760065551338152a180f35b9050346101e95760203660031901126101e957610648610ec7565b90838052600560205282842033855260205260ff838520541615610742576001600160a01b0382169283156106ff573384146106bc57505061068990611161565b5061069333611272565b50337ff8ccb027dfcd135e000e9d45e6cc2d662578a8825d4c45b5e32e0adf67e79ec68380a380f35b906020606492519162461bcd60e51b8352820152601f60248201527f4d57543a204e65772061646d696e2069732063757272656e742061646d696e006044820152fd5b906020606492519162461bcd60e51b8352820152601e60248201527f4d57543a204e65772061646d696e206973207a65726f206164647265737300006044820152fd5b6044908484519163e2517d3f60e01b835233908301526024820152fd5b50503461015d57602036600319011261015d5760209181906001600160a01b03610787610ec7565b16815280845220549051908152f35b50503461015d578160031936011261015d57602090517f47bdabde1e750b84b979caae0fef544935c3c8ebe23eed8fca4b8f45e462b6298152f35b50503461015d578160031936011261015d5760209060ff6006541690519015158152f35b9050346101e957826003193601126101e95761080f6110df565b6006549060ff821615610851575060ff1916600655513381527f5db9ee0a495bf2e6ff9c91a7834c1ba4fdd244a5e8aa4e537bd38aeae4b073aa90602090a180f35b8251638dfc202b60e01b8152fd5b919050346101e957806003193601126101e957813567ffffffffffffffff81116105ce576108909036908401610ef8565b6024939193602435926108a1611065565b6108a9611047565b8215610a50576108bc60c8841115610f29565b8315916108c98315610f75565b8385029285840485141715610a3d573388526020928860205286892054106109fa57875b84811061097257505050908084519480860190865252606084019491865b828110610944576020860185905287337f3e231a51afbf8618c16e231009850fe5f408ec9b98b4a71c3a0436ee70606169888a0389a280f35b9091929586359060018060a01b03821680920361096e57908152820195820192919060010161090b565b8880fd5b61098061048c82878b610fc1565b60018083018084116109e857889291906001600160a01b03808416918a8e5b8183106109c057505050505050600192916109ba9133611374565b016108ed565b85969750938361052e61048c856109da95859a9899610fc1565b01908a949392918a8e61099f565b634e487b7160e01b8c5260118652848cfd5b855162461bcd60e51b8152602081840152601960248201527f4d57543a20496e73756666696369656e742062616c616e6365000000000000006044820152606490fd5b634e487b7160e01b885260118252602488fd5b606490602086519162461bcd60e51b8352820152601b60248201527f4d57543a20456d70747920726563697069656e747320617272617900000000006044820152fd5b50503461015d578160031936011261015d57602090517f139c2898040ef16910dc9f44dc697df79363da767d8bc92f2e310312b816e46d8152f35b83833461015d578060031936011261015d57610ae8610ee2565b90336001600160a01b03831603610b0557506101e59192356112fd565b5163334bd91960e11b81528390fd5b50503461015d578160031936011261015d576020905160128152f35b919050346101e957806003193601126101e9576101e59135610b5560016101ce610ee2565b6111f2565b9050346101e95760203660031901126101e95781602093600192358152600585522001549051908152f35b90508234610c83576060366003190112610c8357610ba1610ec7565b610ba9610ee2565b9160443593610bb6611047565b6001600160a01b03831680835260016020908152878420338552905286832054916000198310610bef575b60208861023b898989611374565b868310610c57578115610c40573315610c295750825260016020908152868320338452815291869020908590039055829061023b87610be1565b8751634a1406b160e11b8152908101849052602490fd5b875163e602df0560e01b8152908101849052602490fd5b8751637dc7a0d960e11b8152339181019182526020820193909352604081018790528291506060010390fd5b80fd5b50503461015d578160031936011261015d576020906002549051908152f35b9050346101e957816003193601126101e957610cbf610ec7565b602435903315610d38576001600160a01b0316918215610d2157508083602095338152600187528181208582528752205582519081527f8c5be1e5ebec7d5bd14f71427d1e84f3dd0314c0f7b2291e5b200ac8c7c3b925843392a35160018152f35b8351634a1406b160e11b8152908101859052602490fd5b835163e602df0560e01b8152808401869052602490fd5b83833461015d578160031936011261015d578051908260035460018160011c9060018316928315610e21575b6020938484108114610361578388529081156103455750600114610dcb57505050829003601f01601f191682019267ffffffffffffffff8411838510176102dd57508291826102d9925282610e7e565b600387529192508591837fc2575a0e9e593c00f959f8c92f12db2869c3395a3b0502d05e2516446f71f85b5b838510610e0d57505050508301018580806102a7565b805488860183015293019284908201610df7565b91607f1691610d7b565b8491346101e95760203660031901126101e9573563ffffffff60e01b81168091036101e95760209250637965db0b60e01b8114908115610e6d575b5015158152f35b6301ffc9a760e01b14905083610e66565b6020808252825181830181905290939260005b828110610eb357505060409293506000838284010152601f8019910116010190565b818101860151848201604001528501610e91565b600435906001600160a01b0382168203610edd57565b600080fd5b602435906001600160a01b0382168203610edd57565b9181601f84011215610edd5782359167ffffffffffffffff8311610edd576020808501948460051b010111610edd57565b15610f3057565b60405162461bcd60e51b815260206004820152601960248201527f4d57543a2042617463682073697a6520746f6f206c61726765000000000000006044820152606490fd5b15610f7c57565b60405162461bcd60e51b815260206004820152601960248201527f4d57543a205a65726f20616d6f756e74207472616e73666572000000000000006044820152606490fd5b9190811015610fd15760051b0190565b634e487b7160e01b600052603260045260246000fd5b356001600160a01b0381168103610edd5790565b1561100257565b60405162461bcd60e51b815260206004820152601860248201527f4d57543a204475706c696361746520726563697069656e7400000000000000006044820152606490fd5b60ff6006541661105357565b60405163d93c066560e01b8152600490fd5b3360009081527fec8ba7686be9676478b0757b37c2b58e5863238357bed401fc8fa4363a7ded3860205260409020547f47bdabde1e750b84b979caae0fef544935c3c8ebe23eed8fca4b8f45e462b6299060ff16156110c15750565b6044906040519063e2517d3f60e01b82523360048301526024820152fd5b3360009081527f02321e94d40847f2658a42722631f98abe2722cedcf64b586223ef22fc35c8d560205260409020547f139c2898040ef16910dc9f44dc697df79363da767d8bc92f2e310312b816e46d9060ff16156110c15750565b80600052600560205260406000203360005260205260ff60406000205416156110c15750565b6001600160a01b031660008181527f05b8ccbb9d4d8fb16ea74ce3c29a41f1b461fbdaff4714a0d9a8eb05499746bc602052604081205490919060ff166111ee5781805260056020526040822081835260205260408220600160ff1982541617905533917f2f8788117e7eff1d82e926ec794901d17c78024a50270940304540a733656f0d8180a4600190565b5090565b906000918083526005602052604083209160018060a01b03169182845260205260ff6040842054161560001461126d5780835260056020526040832082845260205260408320600160ff198254161790557f2f8788117e7eff1d82e926ec794901d17c78024a50270940304540a733656f0d339380a4600190565b505090565b6001600160a01b031660008181527f05b8ccbb9d4d8fb16ea74ce3c29a41f1b461fbdaff4714a0d9a8eb05499746bc602052604081205490919060ff16156111ee578180526005602052604082208183526020526040822060ff19815416905533917ff6391f5c32d9c69d2a47ea670b442974b53935d1edc7fd64eb21e047a839171b8180a4600190565b906000918083526005602052604083209160018060a01b03169182845260205260ff60408420541660001461126d578083526005602052604083208284526020526040832060ff1981541690557ff6391f5c32d9c69d2a47ea670b442974b53935d1edc7fd64eb21e047a839171b339380a4600190565b916001600160a01b03808416928315611439571692831561142057600090838252816020526040822054908382106113ee575091604082827fddf252ad1be2c89b69c2b068fc378daa952ba7f163c4a11628f55a4df523b3ef958760209652828652038282205586815220818154019055604051908152a3565b60405163391434e360e21b81526001600160a01b03919091166004820152602481019190915260448101839052606490fd5b60405163ec442f0560e01b815260006004820152602490fd5b604051634b637e8f60e11b815260006004820152602490fdfea2646970667358221220cc8d8e7a3821061a787240efb497315d68ebcb2689630523a43c1c609d34b79d64736f6c634300081800332f8788117e7eff1d82e926ec794901d17c78024a50270940304540a733656f0d",
  "linkReferences": {},
  "deployedLinkReferences": {}
}