{
  "_format": "hh-sol-artifact-1",
  "contractName": "MagicWorldGems",
  "sourceName": "contracts/MagicWorldGems.sol",
  "abi": [
    {
      "inputs": [
        {
          "internalType": "string",
          "name": "name",
          "type": "string"
        },
        {
          "internalType": "string",
          "name": "symbol",
          "type": "string"
        },
        {
          "internalType": "uint256",
          "name": "totalSupply",
          "type": "uint256"
        }
      ],
      "stateMutability": "nonpayable",
      "type": "constructor"
    },
    {
      "inputs": [],
      "name": "AccessControlBadConfirmation",
      "type": "error"
    },
    {
      "inputs": [
        {
          "internalType": "address",
          "name": "account",
          "type": "address"
        },
        {
          "internalType": "bytes32",
          "name": "neededRole",
          "type": "bytes32"
        }
      ],
      "name": "AccessControlUnauthorizedAccount",
      "type": "error"
    },
    {
      "inputs": [],
      "name": "ECDSAInvalidSignature",
      "type": "error"
    },
    {
      "inputs": [
        {
          "internalType": "uint256",
          "name": "length",
          "type": "uint256"
        }
      ],
      "name": "ECDSAInvalidSignatureLength",
      "type": "error"
    },
    {
      "inputs": [
        {
          "internalType": "bytes32",
          "name": "s",
          "type": "bytes32"
        }
      ],
      "name": "ECDSAInvalidSignatureS",
      "type": "error"
    },
    {
      "inputs": [
        {
          "internalType": "address",
          "name": "spender",
          "type": "address"
        },
        {
          "internalType": "uint256",
          "name": "allowance",
          "type": "uint256"
        },
        {
          "internalType": "uint256",
          "name": "needed",
          "type": "uint256"
        }
      ],
      "name": "ERC20InsufficientAllowance",
      "type": "error"
    },
    {
      "inputs": [
        {
          "internalType": "address",
          "name": "sender",
          "type": "address"
        },
        {
          "internalType": "uint256",
          "name": "balance",
          "type": "uint256"
        },
        {
          "internalType": "uint256",
          "name": "needed",
          "type": "uint256"
        }
      ],
      "name": "ERC20InsufficientBalance",
      "type": "error"
    },
    {
      "inputs": [
        {
          "internalType": "address",
          "name": "approver",
          "type": "address"
        }
      ],
      "name": "ERC20InvalidApprover",
      "type": "error"
    },
    {
      "inputs": [
        {
          "internalType": "address",
          "name": "receiver",
          "type": "address"
        }
      ],
      "name": "ERC20InvalidReceiver",
      "type": "error"
    },
    {
      "inputs": [
        {
          "internalType": "address",
          "name": "sender",
          "type": "address"
        }
      ],
      "name": "ERC20InvalidSender",
      "type": "error"
    },
    {
      "inputs": [
        {
          "internalType": "address",
          "name": "spender",
          "type": "address"
        }
      ],
      "name": "ERC20InvalidSpender",
      "type": "error"
    },
    {
      "inputs": [
        {
          "internalType": "uint256",
          "name": "deadline",
          "type": "uint256"
        }
      ],
      "name": "ERC2612ExpiredSignature",
      "type": "error"
    },
    {
      "inputs": [
        {
          "internalType": "address",
          "name": "signer",
          "type": "address"
        },
        {
          "internalType": "address",
          "name": "owner",
          "type": "address"
        }
      ],
      "name": "ERC2612InvalidSigner",
      "type": "error"
    },
    {
      "inputs": [],
      "name": "EnforcedPause",
      "type": "error"
    },
    {
      "inputs": [],
      "name": "ExpectedPause",
      "type": "error"
    },
    {
      "inputs": [
        {
          "internalType": "address",
          "name": "account",
          "type": "address"
        },
        {
          "internalType": "uint256",
          "name": "currentNonce",
          "type": "uint256"
        }
      ],
      "name": "InvalidAccountNonce",
      "type": "error"
    },
    {
      "inputs": [],
      "name": "InvalidShortString",
      "type": "error"
    },
    {
      "inputs": [
        {
          "internalType": "string",
          "name": "str",
          "type": "string"
        }
      ],
      "name": "StringTooLong",
      "type": "error"
    },
    {
      "anonymous": false,
      "inputs": [
        {
          "indexed": true,
          "internalType": "address",
          "name": "account",
          "type": "address"
        },
        {
          "indexed": true,
          "internalType": "address",
          "name": "by",
          "type": "address"
        },
        {
          "indexed": false,
          "internalType": "uint256",
          "name": "timestamp",
          "type": "uint256"
        },
        {
          "indexed": false,
          "internalType": "string",
          "name": "reason",
          "type": "string"
        }
      ],
      "name": "AddressBlacklisted",
      "type": "event"
    },
    {
      "anonymous": false,
      "inputs": [
        {
          "indexed": true,
          "internalType": "address",
          "name": "account",
          "type": "address"
        },
        {
          "indexed": true,
          "internalType": "address",
          "name": "by",
          "type": "address"
        },
        {
          "indexed": false,
          "internalType": "uint256",
          "name": "timestamp",
          "type": "uint256"
        }
      ],
      "name": "AddressUnblacklisted",
      "type": "event"
    },
    {
      "anonymous": false,
      "inputs": [
        {
          "indexed": true,
          "internalType": "address",
          "name": "previousAdmin",
          "type": "address"
        },
        {
          "indexed": true,
          "internalType": "address",
          "name": "newAdmin",
          "type": "address"
        }
      ],
      "name": "AdminTransferred",
      "type": "event"
    },
    {
      "anonymous": false,
      "inputs": [
        {
          "indexed": true,
          "internalType": "address",
          "name": "owner",
          "type": "address"
        },
        {
          "indexed": true,
          "internalType": "address",
          "name": "spender",
          "type": "address"
        },
        {
          "indexed": false,
          "internalType": "uint256",
          "name": "value",
          "type": "uint256"
        }
      ],
      "name": "Approval",
      "type": "event"
    },
    {
      "anonymous": false,
      "inputs": [
        {
          "indexed": true,
          "internalType": "address",
          "name": "operator",
          "type": "address"
        },
        {
          "indexed": false,
          "internalType": "uint256",
          "name": "totalAmount",
          "type": "uint256"
        },
        {
          "indexed": false,
          "internalType": "uint256",
          "name": "recipientCount",
          "type": "uint256"
        }
      ],
      "name": "BatchTransfer",
      "type": "event"
    },
    {
      "anonymous": false,
      "inputs": [
        {
          "indexed": true,
          "internalType": "address",
          "name": "operator",
          "type": "address"
        },
        {
          "indexed": false,
          "internalType": "address[]",
          "name": "recipients",
          "type": "address[]"
        },
        {
          "indexed": false,
          "internalType": "uint256",
          "name": "amount",
          "type": "uint256"
        }
      ],
      "name": "BatchTransferEqual",
      "type": "event"
    },
    {
      "anonymous": false,
      "inputs": [],
      "name": "EIP712DomainChanged",
      "type": "event"
    },
    {
      "anonymous": false,
      "inputs": [
        {
          "indexed": false,
          "internalType": "address",
          "name": "account",
          "type": "address"
        }
      ],
      "name": "Paused",
      "type": "event"
    },
    {
      "anonymous": false,
      "inputs": [
        {
          "indexed": true,
          "internalType": "bytes32",
          "name": "role",
          "type": "bytes32"
        },
        {
          "indexed": true,
          "internalType": "bytes32",
          "name": "previousAdminRole",
          "type": "bytes32"
        },
        {
          "indexed": true,
          "internalType": "bytes32",
          "name": "newAdminRole",
          "type": "bytes32"
        }
      ],
      "name": "RoleAdminChanged",
      "type": "event"
    },
    {
      "anonymous": false,
      "inputs": [
        {
          "indexed": true,
          "internalType": "bytes32",
          "name": "role",
          "type": "bytes32"
        },
        {
          "indexed": true,
          "internalType": "address",
          "name": "account",
          "type": "address"
        },
        {
          "indexed": true,
          "internalType": "address",
          "name": "sender",
          "type": "address"
        }
      ],
      "name": "RoleGranted",
      "type": "event"
    },
    {
      "anonymous": false,
      "inputs": [
        {
          "indexed": true,
          "internalType": "bytes32",
          "name": "role",
          "type": "bytes32"
        },
        {
          "indexed": true,
          "internalType": "address",
          "name": "account",
          "type": "address"
        },
        {
          "indexed": true,
          "internalType": "address",
          "name": "sender",
          "type": "address"
        }
      ],
      "name": "RoleRevoked",
      "type": "event"
    },
    {
      "anonymous": false,
      "inputs": [
        {
          "indexed": true,
          "internalType": "address",
          "name": "from",
          "type": "address"
        },
        {
          "indexed": true,
          "internalType": "address",
          "name": "to",
          "type": "address"
        },
        {
          "indexed": false,
          "internalType": "uint256",
          "name": "value",
          "type": "uint256"
        }
      ],
      "name": "Transfer",
      "type": "event"
    },
    {
      "anonymous": false,
      "inputs": [
        {
          "indexed": true,
          "internalType": "address",
          "name": "account",
          "type": "address"
        },
        {
          "indexed": true,
          "internalType": "address",
          "name": "by",
          "type": "address"
        },
        {
          "indexed": false,
          "internalType": "uint256",
          "name": "effectiveTime",
          "type": "uint256"
        }
      ],
      "name": "UnblacklistRequested",
      "type": "event"
    },
    {
      "anonymous": false,
      "inputs": [
        {
          "indexed": false,
          "internalType": "uint256",
          "name": "oldTimelock",
          "type": "uint256"
        },
        {
          "indexed": false,
          "internalType": "uint256",
          "name": "newTimelock",
          "type": "uint256"
        },
        {
          "indexed": true,
          "internalType": "address",
          "name": "updatedBy",
          "type": "address"
        }
      ],
      "name": "UnblacklistTimelockUpdated",
      "type": "event"
    },
    {
      "anonymous": false,
      "inputs": [
        {
          "indexed": false,
          "internalType": "address",
          "name": "account",
          "type": "address"
        }
      ],
      "name": "Unpaused",
      "type": "event"
    },
    {
      "inputs": [],
      "name": "BLACKLIST_MANAGER_ROLE",
      "outputs": [
        {
          "internalType": "bytes32",
          "name": "",
          "type": "bytes32"
        }
      ],
      "stateMutability": "view",
      "type": "function"
    },
    {
      "inputs": [],
      "name": "DEFAULT_ADMIN_ROLE",
      "outputs": [
        {
          "internalType": "bytes32",
          "name": "",
          "type": "bytes32"
        }
      ],
      "stateMutability": "view",
      "type": "function"
    },
    {
      "inputs": [],
      "name": "DOMAIN_SEPARATOR",
      "outputs": [
        {
          "internalType": "bytes32",
          "name": "",
          "type": "bytes32"
        }
      ],
      "stateMutability": "view",
      "type": "function"
    },
    {
      "inputs": [],
      "name": "GAME_OPERATOR_ROLE",
      "outputs": [
        {
          "internalType": "bytes32",
          "name": "",
          "type": "bytes32"
        }
      ],
      "stateMutability": "view",
      "type": "function"
    },
    {
      "inputs": [],
      "name": "MAX_BATCH_SIZE",
      "outputs": [
        {
          "internalType": "uint256",
          "name": "",
          "type": "uint256"
        }
      ],
      "stateMutability": "view",
      "type": "function"
    },
    {
      "inputs": [],
      "name": "MAX_BLACKLIST_BATCH_SIZE",
      "outputs": [
        {
          "internalType": "uint256",
          "name": "",
          "type": "uint256"
        }
      ],
      "stateMutability": "view",
      "type": "function"
    },
    {
      "inputs": [],
      "name": "MAX_UNBLACKLIST_TIMELOCK",
      "outputs": [
        {
          "internalType": "uint256",
          "name": "",
          "type": "uint256"
        }
      ],
      "stateMutability": "view",
      "type": "function"
    },
    {
      "inputs": [],
      "name": "MIN_UNBLACKLIST_TIMELOCK",
      "outputs": [
        {
          "internalType": "uint256",
          "name": "",
          "type": "uint256"
        }
      ],
      "stateMutability": "view",
      "type": "function"
    },
    {
      "inputs": [],
      "name": "PAUSE_ROLE",
      "outputs": [
        {
          "internalType": "bytes32",
          "name": "",
          "type": "bytes32"
        }
      ],
      "stateMutability": "view",
      "type": "function"
    },
    {
      "inputs": [
        {
          "internalType": "address",
          "name": "owner",
          "type": "address"
        },
        {
          "internalType": "address",
          "name": "spender",
          "type": "address"
        }
      ],
      "name": "allowance",
      "outputs": [
        {
          "internalType": "uint256",
          "name": "",
          "type": "uint256"
        }
      ],
      "stateMutability": "view",
      "type": "function"
    },
    {
      "inputs": [
        {
          "internalType": "address",
          "name": "spender",
          "type": "address"
        },
        {
          "internalType": "uint256",
          "name": "value",
          "type": "uint256"
        }
      ],
      "name": "approve",
      "outputs": [
        {
          "internalType": "bool",
          "name": "",
          "type": "bool"
        }
      ],
      "stateMutability": "nonpayable",
      "type": "function"
    },
    {
      "inputs": [
        {
          "internalType": "address",
          "name": "account",
          "type": "address"
        }
      ],
      "name": "balanceOf",
      "outputs": [
        {
          "internalType": "uint256",
          "name": "",
          "type": "uint256"
        }
      ],
      "stateMutability": "view",
      "type": "function"
    },
    {
      "inputs": [
        {
          "internalType": "address[]",
          "name": "recipients",
          "type": "address[]"
        },
        {
          "internalType": "uint256[]",
          "name": "amounts",
          "type": "uint256[]"
        }
      ],
      "name": "batchTransfer",
      "outputs": [],
      "stateMutability": "nonpayable",
      "type": "function"
    },
    {
      "inputs": [
        {
          "internalType": "address[]",
          "name": "recipients",
          "type": "address[]"
        },
        {
          "internalType": "uint256",
          "name": "amount",
          "type": "uint256"
        }
      ],
      "name": "batchTransferEqual",
      "outputs": [],
      "stateMutability": "nonpayable",
      "type": "function"
    },
    {
      "inputs": [
        {
          "internalType": "address",
          "name": "account",
          "type": "address"
        },
        {
          "internalType": "string",
          "name": "reason",
          "type": "string"
        }
      ],
      "name": "blacklistAddress",
      "outputs": [],
      "stateMutability": "nonpayable",
      "type": "function"
    },
    {
      "inputs": [
        {
          "internalType": "address[]",
          "name": "accounts",
          "type": "address[]"
        },
        {
          "internalType": "string",
          "name": "reason",
          "type": "string"
        }
      ],
      "name": "blacklistAddresses",
      "outputs": [],
      "stateMutability": "nonpayable",
      "type": "function"
    },
    {
      "inputs": [
        {
          "internalType": "address",
          "name": "account",
          "type": "address"
        }
      ],
      "name": "cancelUnblacklistRequest",
      "outputs": [],
      "stateMutability": "nonpayable",
      "type": "function"
    },
    {
      "inputs": [],
      "name": "decimals",
      "outputs": [
        {
          "internalType": "uint8",
          "name": "",
          "type": "uint8"
        }
      ],
      "stateMutability": "view",
      "type": "function"
    },
    {
      "inputs": [],
      "name": "eip712Domain",
      "outputs": [
        {
          "internalType": "bytes1",
          "name": "fields",
          "type": "bytes1"
        },
        {
          "internalType": "string",
          "name": "name",
          "type": "string"
        },
        {
          "internalType": "string",
          "name": "version",
          "type": "string"
        },
        {
          "internalType": "uint256",
          "name": "chainId",
          "type": "uint256"
        },
        {
          "internalType": "address",
          "name": "verifyingContract",
          "type": "address"
        },
        {
          "internalType": "bytes32",
          "name": "salt",
          "type": "bytes32"
        },
        {
          "internalType": "uint256[]",
          "name": "extensions",
          "type": "uint256[]"
        }
      ],
      "stateMutability": "view",
      "type": "function"
    },
    {
      "inputs": [
        {
          "internalType": "address",
          "name": "account",
          "type": "address"
        }
      ],
      "name": "executeUnblacklist",
      "outputs": [],
      "stateMutability": "nonpayable",
      "type": "function"
    },
    {
      "inputs": [
        {
          "internalType": "address",
          "name": "account",
          "type": "address"
        }
      ],
      "name": "getBlacklistInfo",
      "outputs": [
        {
          "internalType": "bool",
          "name": "blacklisted",
          "type": "bool"
        },
        {
          "internalType": "uint256",
          "name": "blacklistedAt",
          "type": "uint256"
        },
        {
          "internalType": "uint256",
          "name": "unblacklistRequestTime",
          "type": "uint256"
        }
      ],
      "stateMutability": "view",
      "type": "function"
    },
    {
      "inputs": [],
      "name": "getMaxBatchSize",
      "outputs": [
        {
          "internalType": "uint256",
          "name": "",
          "type": "uint256"
        }
      ],
      "stateMutability": "pure",
      "type": "function"
    },
    {
      "inputs": [
        {
          "internalType": "bytes32",
          "name": "role",
          "type": "bytes32"
        }
      ],
      "name": "getRoleAdmin",
      "outputs": [
        {
          "internalType": "bytes32",
          "name": "",
          "type": "bytes32"
        }
      ],
      "stateMutability": "view",
      "type": "function"
    },
    {
      "inputs": [
        {
          "internalType": "bytes32",
          "name": "role",
          "type": "bytes32"
        },
        {
          "internalType": "address",
          "name": "account",
          "type": "address"
        }
      ],
      "name": "grantRole",
      "outputs": [],
      "stateMutability": "nonpayable",
      "type": "function"
    },
    {
      "inputs": [
        {
          "internalType": "bytes32",
          "name": "role",
          "type": "bytes32"
        },
        {
          "internalType": "address",
          "name": "account",
          "type": "address"
        }
      ],
      "name": "hasRole",
      "outputs": [
        {
          "internalType": "bool",
          "name": "",
          "type": "bool"
        }
      ],
      "stateMutability": "view",
      "type": "function"
    },
    {
      "inputs": [
        {
          "internalType": "address",
          "name": "account",
          "type": "address"
        }
      ],
      "name": "isBlacklisted",
      "outputs": [
        {
          "internalType": "bool",
          "name": "",
          "type": "bool"
        }
      ],
      "stateMutability": "view",
      "type": "function"
    },
    {
      "inputs": [],
      "name": "name",
      "outputs": [
        {
          "internalType": "string",
          "name": "",
          "type": "string"
        }
      ],
      "stateMutability": "view",
      "type": "function"
    },
    {
      "inputs": [
        {
          "internalType": "address",
          "name": "owner",
          "type": "address"
        }
      ],
      "name": "nonces",
      "outputs": [
        {
          "internalType": "uint256",
          "name": "",
          "type": "uint256"
        }
      ],
      "stateMutability": "view",
      "type": "function"
    },
    {
      "inputs": [],
      "name": "pause",
      "outputs": [],
      "stateMutability": "nonpayable",
      "type": "function"
    },
    {
      "inputs": [],
      "name": "paused",
      "outputs": [
        {
          "internalType": "bool",
          "name": "",
          "type": "bool"
        }
      ],
      "stateMutability": "view",
      "type": "function"
    },
    {
      "inputs": [
        {
          "internalType": "address",
          "name": "owner",
          "type": "address"
        },
        {
          "internalType": "address",
          "name": "spender",
          "type": "address"
        },
        {
          "internalType": "uint256",
          "name": "value",
          "type": "uint256"
        },
        {
          "internalType": "uint256",
          "name": "deadline",
          "type": "uint256"
        },
        {
          "internalType": "uint8",
          "name": "v",
          "type": "uint8"
        },
        {
          "internalType": "bytes32",
          "name": "r",
          "type": "bytes32"
        },
        {
          "internalType": "bytes32",
          "name": "s",
          "type": "bytes32"
        }
      ],
      "name": "permit",
      "outputs": [],
      "stateMutability": "nonpayable",
      "type": "function"
    },
    {
      "inputs": [
        {
          "internalType": "bytes32",
          "name": "role",
          "type": "bytes32"
        },
        {
          "internalType": "address",
          "name": "callerConfirmation",
          "type": "address"
        }
      ],
      "name": "renounceRole",
      "outputs": [],
      "stateMutability": "nonpayable",
      "type": "function"
    },
    {
      "inputs": [
        {
          "internalType": "address",
          "name": "account",
          "type": "address"
        }
      ],
      "name": "requestUnblacklist",
      "outputs": [],
      "stateMutability": "nonpayable",
      "type": "function"
    },
    {
      "inputs": [
        {
          "internalType": "bytes32",
          "name": "role",
          "type": "bytes32"
        },
        {
          "internalType": "address",
          "name": "account",
          "type": "address"
        }
      ],
      "name": "revokeRole",
      "outputs": [],
      "stateMutability": "nonpayable",
      "type": "function"
    },
    {
      "inputs": [
        {
          "internalType": "uint256",
          "name": "newTimelock",
          "type": "uint256"
        }
      ],
      "name": "setUnblacklistTimelock",
      "outputs": [],
      "stateMutability": "nonpayable",
      "type": "function"
    },
    {
      "inputs": [
        {
          "internalType": "bytes4",
          "name": "interfaceId",
          "type": "bytes4"
        }
      ],
      "name": "supportsInterface",
      "outputs": [
        {
          "internalType": "bool",
          "name": "",
          "type": "bool"
        }
      ],
      "stateMutability": "view",
      "type": "function"
    },
    {
      "inputs": [],
      "name": "symbol",
      "outputs": [
        {
          "internalType": "string",
          "name": "",
          "type": "string"
        }
      ],
      "stateMutability": "view",
      "type": "function"
    },
    {
      "inputs": [],
      "name": "totalSupply",
      "outputs": [
        {
          "internalType": "uint256",
          "name": "",
          "type": "uint256"
        }
      ],
      "stateMutability": "view",
      "type": "function"
    },
    {
      "inputs": [
        {
          "internalType": "address",
          "name": "to",
          "type": "address"
        },
        {
          "internalType": "uint256",
          "name": "amount",
          "type": "uint256"
        }
      ],
      "name": "transfer",
      "outputs": [
        {
          "internalType": "bool",
          "name": "",
          "type": "bool"
        }
      ],
      "stateMutability": "nonpayable",
      "type": "function"
    },
    {
      "inputs": [
        {
          "internalType": "address",
          "name": "newAdmin",
          "type": "address"
        }
      ],
      "name": "transferAdmin",
      "outputs": [],
      "stateMutability": "nonpayable",
      "type": "function"
    },
    {
      "inputs": [
        {
          "internalType": "address",
          "name": "from",
          "type": "address"
        },
        {
          "internalType": "address",
          "name": "to",
          "type": "address"
        },
        {
          "internalType": "uint256",
          "name": "amount",
          "type": "uint256"
        }
      ],
      "name": "transferFrom",
      "outputs": [
        {
          "internalType": "bool",
          "name": "",
          "type": "bool"
        }
      ],
      "stateMutability": "nonpayable",
      "type": "function"
    },
    {
      "inputs": [],
      "name": "unblacklistTimelock",
      "outputs": [
        {
          "internalType": "uint256",
          "name": "",
          "type": "uint256"
        }
      ],
      "stateMutability": "view",
      "type": "function"
    },
    {
      "inputs": [],
      "name": "unpause",
      "outputs": [],
      "stateMutability": "nonpayable",
      "type": "function"
    }
  ],
  "bytecode": "0x610160604081815234620004ac57620031c88038038091620000228286620004e9565b84398201606083820312620004ac5782516001600160401b039290838111620004ac57826200005391860162000532565b9160209081860151858111620004ac5783916200007291880162000532565b950151908251956200008487620004b1565b600180885282880196603160f81b88528651818111620003b7576003908154908482811c92168015620004a1575b878310146200048b57601f9182811162000440575b508087838211600114620003d957600091620003cd575b5060001982851b1c191690851b1782555b8451928311620003b75760049485548581811c91168015620003ac575b8882101462000397578281116200034c575b5086918411600114620002e157938394918492600095620002d5575b50501b92600019911b1c19161781555b62000155856200074f565b956101209687526200016788620008f4565b95610140968752838151910120978860e05251902096610100978089524660a052855190848201927f8b73c3c69bb8fe3d512ecc4cf759cc79239f7b179b0ffacaa9a75d522b39400f84528783015260608201524660808201523060a082015260a08152620001d681620004cd565b5190206080523060c0526203f480600a55620001f2336200058d565b50620001fe336200060e565b506200020a33620006b1565b503315620002be5760025490838201809211620002a957506000917fddf252ad1be2c89b69c2b068fc378daa952ba7f163c4a11628f55a4df523b3ef9160025533835282815284832084815401905584519384523393a3519161275c938462000a4c853960805184612068015260a05184612134015260c05184612032015260e051846120b7015251836120dd015251826108250152518161084f0152f35b601190634e487b7160e01b6000525260246000fd5b602490600085519163ec442f0560e01b8352820152fd5b0151935038806200013a565b9190601f198416928660005284886000209460005b8a8983831062000334575050501062000319575b50505050811b0181556200014a565b01519060f884600019921b161c19169055388080806200030a565b868601518955909701969485019488935001620002f6565b86600052876000208380870160051c8201928a88106200038d575b0160051c019086905b828110620003805750506200011e565b6000815501869062000370565b9250819262000367565b602287634e487b7160e01b6000525260246000fd5b90607f16906200010c565b634e487b7160e01b600052604160045260246000fd5b90508a015138620000de565b60008581528981208894509190601f198416908b8f5b838310620004285750505083116200040f575b5050811b018255620000ef565b8c015160001983871b60f8161c19169055388062000402565b84015185558a969094019392830192018b8f620003ef565b83600052876000208380840160051c8201928a851062000481575b0160051c019086905b82811062000474575050620000c7565b6000815501869062000464565b925081926200045b565b634e487b7160e01b600052602260045260246000fd5b91607f1691620000b2565b600080fd5b604081019081106001600160401b03821117620003b757604052565b60c081019081106001600160401b03821117620003b757604052565b601f909101601f19168101906001600160401b03821190821017620003b757604052565b60005b838110620005215750506000910152565b818101518382015260200162000510565b81601f82011215620004ac5780516001600160401b038111620003b7576040519262000569601f8301601f191660200185620004e9565b81845260208284010111620004ac576200058a91602080850191016200050d565b90565b6001600160a01b031660008181527f5eff886ea0ce6ca488a3d6e336d6c0f75f46d19b42c06ce5ee98e42c96d256c7602052604081205490919060ff166200060a5781805260086020526040822081835260205260408220600160ff198254161790553391600080516020620031a88339815191528180a4600190565b5090565b6001600160a01b031660008181527fc0455bc2e8e41e265569040f30781c41db9d7cbab80fc1c47b3ea05d86ddb14a60205260408120549091907f139c2898040ef16910dc9f44dc697df79363da767d8bc92f2e310312b816e46d9060ff16620006ac5780835260086020526040832082845260205260408320600160ff19825416179055600080516020620031a8833981519152339380a4600190565b505090565b6001600160a01b031660008181527fa2651e64058c76b60b0c53046491b4f6371cb101d6130df210a6149e99bbed8160205260408120549091907ff988e4fb62b8e14f4820fed03192306ddf4d7dbfa215595ba1c6ba4b76b369ee9060ff16620006ac5780835260086020526040832082845260205260408320600160ff19825416179055600080516020620031a8833981519152339380a4600190565b80516020919082811015620007cf575090601f8251116200078d57808251920151908083106200077e57501790565b82600019910360031b1b161790565b604490620007c19260405193849263305a27a960e01b8452806004850152825192839182602487015286860191016200050d565b601f01601f19168101030190fd5b6001600160401b038111620003b7576005928354926001938481811c91168015620008e9575b838210146200048b57601f8111620008b2575b5081601f84116001146200084857509282939183926000946200083c575b50501b916000199060031b1c191617905560ff90565b01519250388062000826565b919083601f1981168760005284600020946000905b888383106200089757505050106200087d575b505050811b01905560ff90565b015160001960f88460031b161c1916905538808062000870565b8587015188559096019594850194879350908101906200085d565b8560005284601f846000209201871c820191601f8601881c015b828110620008dc57505062000808565b60008155018590620008cc565b90607f1690620007f5565b805160209081811015620009215750601f8251116200078d57808251920151908083106200077e57501790565b906001600160401b038211620003b757600654926001938481811c9116801562000a40575b838210146200048b57601f811162000a06575b5081601f84116001146200099a57509282939183926000946200098e575b50501b916000199060031b1c19161760065560ff90565b01519250388062000977565b919083601f198116600660005284600020946000905b88838310620009eb5750505010620009d1575b505050811b0160065560ff90565b015160001960f88460031b161c19169055388080620009c3565b858701518855909601959485019487935090810190620009b0565b600660005284601f84600020920160051c820191601f860160051c015b82811062000a3357505062000959565b6000815501859062000a23565b90607f16906200094656fe608060408181526004918236101561001657600080fd5b600092833560e01c91826301ffc9a714611a125750816306fdde0314611937578163095ea7b31461190d57816318160ddd146118ee578163194ef60b146117135781631cc17b631461162857816323b872dd14611527578163248a9ca3146114fc5781632f2ff15d146114d2578163313ce567146114b65781633644e5151461149257816336568abe1461144c578163367ef7da1461131c578163389ed267146112e15781633985effb146110ad5781633f4ba83a14611043578163410b24241461101a57816342e7e7ed14610ffe57816356effbf514610f155781635c975abb14610ef157816362a2ecdf14610d6d5781636b8fbdc414610d135781636bfbc13a14610cd857816370a0823114610ca157816371f8fa0414610afd57816375829def146109fd5781637ecebe00146109c55781637ee0ff6b146109a757816384137055146109885781638456cb591461092d57816384b0196e1461080d57816388d695b21461061257816391d14854146105cb57816395d89b41146104db578163a217fddf146104c0578163a2982b29146104a2578163a9059cbb14610469578163cfdbf2541461044d578163d505accf146102e5578163d547741f146102a157508063dd62ed3e14610259578063e7c00f6e1461023e5763fe575a87146101fe57600080fd5b3461023a57602036600319011261023a5760209160ff9082906001600160a01b03610227611aa5565b168152600b855220541690519015158152f35b5080fd5b503461023a578160031936011261023a576020905160c88152f35b503461023a578060031936011261023a5780602092610276611aa5565b61027e611ac0565b6001600160a01b0391821683526001865283832091168252845220549051908152f35b919050346102e157806003193601126102e1576102dd91356102d860016102c6611ac0565b93838752600860205286200154611eda565b6121e5565b5080f35b8280fd5b8391503461023a5760e036600319011261023a57610301611aa5565b610309611ac0565b906044359260643560843560ff81168103610449578142116104325760018060a01b0390818516928389526007602052898920908154916001830190558a519060208201927f6e71edae12b1b97f4d1f60370fef10105fa2faae0126114a169c64845d6126c98452868d840152858a1660608401528a608084015260a083015260c082015260c0815260e0810181811067ffffffffffffffff82111761041f578b525190206103ed916103e4916103be61202f565b908c519161190160f01b83526002830152602282015260c43591604260a43592206125f1565b90929192612681565b16818103610404578661040187878761239a565b80f35b87516325c0072360e11b815292830152602482015260449150fd5b634e487b7160e01b8b526041875260248bfd5b875163313c898160e11b8152808401839052602490fd5b8680fd5b50503461023a578160031936011261023a576020905160c88152f35b50503461023a578060031936011261023a5760209061049b610489611aa5565b610491611f00565b602435903361225c565b5160018152f35b50503461023a578160031936011261023a576020905162278d008152f35b50503461023a578160031936011261023a5751908152602090f35b919050346102e157826003193601126102e15780518381949084546104ff81611b35565b91828552602096600192886001821691826000146105a1575050600114610546575b858861054289610533848a0385611ba1565b51928284938452830190611a65565b0390f35b815286935091907f8a35acfbc15ff81a39ae7d344fd709f28e8600b4aa8c65c6b64bfe7fe36bd19b5b828410610589575050508201018161053361054238610521565b8054848a01860152889550879490930192810161056f565b60ff19168882015294151560051b8701909401945085935061053392506105429150389050610521565b9050346102e157816003193601126102e1578160209360ff926105ec611ac0565b90358252600886528282206001600160a01b039091168252855220549151911615158152f35b83833461023a578060031936011261023a5767ffffffffffffffff908335828111610809576106449036908601611ad6565b9094602493602435908111610805576106609036908301611ad6565b61066b959195611e22565b610673611f00565b8084036107c257831561078b5761068d60c8851115611ce6565b8695875b8581106106cd5788887f762d9d59f4cdcadad8125dfd5b9228c3f3710c17cd800b7e446f4bacba81a69f8989815193845260208401523392a280f35b6106e06106db82888d611c0f565b611c35565b976106f76106ef838686611c0f565b351515611d32565b6001808301808411610779576001600160a01b038b8116918e905b8b808210610756575050505050509061075061073c600193610735848888611c0f565b3590611cc3565b99610748838787611c0f565b35903361225c565b01610691565b90610773858561076b6106db858b9789611c0f565b161415611d7e565b01610712565b634e487b7160e01b8c5260118852868cfd5b845162461bcd60e51b815260208185015260116024820152704d57473a20456d7074792061727261797360781b6044820152606490fd5b845162461bcd60e51b8152602081850152601a60248201527f4d57473a204172726179206c656e677468206d69736d617463680000000000006044820152606490fd5b8580fd5b8380fd5b919050346102e157826003193601126102e1576108497f000000000000000000000000000000000000000000000000000000000000000061242d565b926108737f0000000000000000000000000000000000000000000000000000000000000000612531565b90825192602092602085019585871067ffffffffffffffff88111761091a57509260206108d08388966108c3998b9996528686528151998a99600f60f81b8b5260e0868c015260e08b0190611a65565b91898303908a0152611a65565b924660608801523060808801528460a088015286840360c088015251928381520193925b82811061090357505050500390f35b8351855286955093810193928101926001016108f4565b634e487b7160e01b845260419052602483fd5b50503461023a578160031936011261023a5760207f62e78cea01bee320cd4e420270b5ea74000d11b0c9f74754ebdbfc544b05a2589161096b611e7e565b610973611f00565b600160ff19600954161760095551338152a180f35b50503461023a578160031936011261023a57602090600a549051908152f35b50503461023a578160031936011261023a5760209051620151808152f35b50503461023a57602036600319011261023a5760209181906001600160a01b036109ed611aa5565b1681526007845220549051908152f35b9050346102e15760203660031901126102e157610a18611aa5565b90610a21611dca565b6001600160a01b038216928315610aba57338414610a77575050610a4490611f1e565b50610a4e3361215a565b50337ff8ccb027dfcd135e000e9d45e6cc2d662578a8825d4c45b5e32e0adf67e79ec68380a380f35b906020606492519162461bcd60e51b8352820152601f60248201527f4d57473a204e65772061646d696e2069732063757272656e742061646d696e006044820152fd5b906020606492519162461bcd60e51b8352820152601e60248201527f4d57473a204e65772061646d696e206973207a65726f206164647265737300006044820152fd5b9050346102e157816003193601126102e157610b17611aa5565b9160243567ffffffffffffffff8111610c9d57610b379036908401611b07565b919093600080516020612707833981519152865260209060088252828720338852825260ff83882054168015610c81575b610b7190611bc3565b6001600160a01b0316938415610c3557848752600b825260ff8388205416610bf4575091610bee91600d7f8b9448e4aabf66adc1656b8eeb6f5665ac50835644b954cc314c00019febf5e694868952600b8152828920600160ff19825416179055600c815242838a20555286818120555191829133964284611c49565b0390a380f35b915162461bcd60e51b815291820181905260248201527f4d57473a204164647265737320616c726561647920626c61636b6c69737465646044820152606490fd5b915162461bcd60e51b815291820152602260248201527f4d57473a2043616e6e6f7420626c61636b6c697374207a65726f206164647265604482015261737360f01b6064820152608490fd5b508680526008825282872033885282528287205460ff16610b68565b8480fd5b50503461023a57602036600319011261023a5760209181906001600160a01b03610cc9611aa5565b16815280845220549051908152f35b50503461023a578160031936011261023a57602090517f47bdabde1e750b84b979caae0fef544935c3c8ebe23eed8fca4b8f45e462b6298152f35b50503461023a57602036600319011261023a576060916001600160a01b03610d39611aa5565b168152600b60205260ff828220541691600c602052808083205492600d602052205491815193151584526020840152820152f35b9050346102e1576020918260031936011261080957610d8a611aa5565b600080516020612707833981519152855260088452818520338652845260ff82862054168015610ed5575b610dbe90611bc3565b6001600160a01b0316808552600b845281852054909290610de19060ff16611c77565b828552600d84528185205415610e9457828552600d8452818520544210610e5457507f6f1fcf872c33cff56479d33f51e1747c09fc15dc6116a4006367732d13ab7bbd90828552600b845280852060ff198154169055600c84528481812055600d8452848181205551924284523393a380f35b8380606493519262461bcd60e51b845283015260248201527f4d57473a2054696d656c6f636b20706572696f64206e6f7420656c61707365646044820152fd5b83606492519162461bcd60e51b8352820152601e60248201527f4d57473a20556e626c61636b6c697374206e6f742072657175657374656400006044820152fd5b508480526008845281852033865284528185205460ff16610db5565b50503461023a578160031936011261023a5760209060ff6009541690519015158152f35b8391503461023a57602090816003193601126102e157610f33611aa5565b600080516020612707833981519152845260088352848420338552835260ff85852054168015610fe2575b610f6790611bc3565b6001600160a01b0316808452600d83528484205490919015610f935750829391600d9184525281205580f35b845162461bcd60e51b8152908101839052602360248201527f4d57473a204e6f2070656e64696e6720756e626c61636b6c6973742072657175604482015262195cdd60ea1b6064820152608490fd5b508380526008835284842033855283528484205460ff16610f5e565b50503461023a578160031936011261023a576020905160648152f35b50503461023a578160031936011261023a57602090516000805160206127078339815191528152f35b9050346102e157826003193601126102e15761105d611e7e565b6009549060ff82161561109f575060ff1916600955513381527f5db9ee0a495bf2e6ff9c91a7834c1ba4fdd244a5e8aa4e537bd38aeae4b073aa90602090a180f35b8251638dfc202b60e01b8152fd5b919050346102e157806003193601126102e157813567ffffffffffffffff8111610809576110de9036908401611ad6565b6024939193602435926110ef611e22565b6110f7611f00565b821561129e5761110a60c8841115611ce6565b8315916111178315611d32565b838502928584048514171561128b5733885260209288602052868920541061124857875b8481106111c057505050908084519480860190865252606084019491865b828110611192576020860185905287337f3e231a51afbf8618c16e231009850fe5f408ec9b98b4a71c3a0436ee70606169888a0389a280f35b9091929586359060018060a01b0382168092036111bc579081528201958201929190600101611159565b8880fd5b6111ce6106db82878b611c0f565b600180830180841161123657889291906001600160a01b03808416918a8e5b81831061120e5750505050505060019291611208913361225c565b0161113b565b85969750938361076b6106db8561122895859a9899611c0f565b01908a949392918a8e6111ed565b634e487b7160e01b8c5260118652848cfd5b855162461bcd60e51b8152602081840152601960248201527f4d57473a20496e73756666696369656e742062616c616e6365000000000000006044820152606490fd5b634e487b7160e01b885260118252602488fd5b606490602086519162461bcd60e51b8352820152601b60248201527f4d57473a20456d70747920726563697069656e747320617272617900000000006044820152fd5b50503461023a578160031936011261023a57602090517f139c2898040ef16910dc9f44dc697df79363da767d8bc92f2e310312b816e46d8152f35b9050346102e15760208060031936011261080957611338611aa5565b600080516020612707833981519152855260088252838520338652825260ff84862054168015611430575b61136c90611bc3565b6001600160a01b0316808552600b82528385205490929061138f9060ff16611c77565b828552600d8252838520546113e457507ff868b6f8724d7edd4653127834624b612c6602686ba1ceb3c9f148941daabfbf906113cd600a5442611cc3565b93838652600d82528481872055519384523393a380f35b60849184519162461bcd60e51b8352820152602260248201527f4d57473a20556e626c61636b6c69737420616c72656164792072657175657374604482015261195960f21b6064820152fd5b508480526008825283852033865282528385205460ff16611363565b83833461023a578060031936011261023a57611466611ac0565b90336001600160a01b0383160361148357506102dd9192356121e5565b5163334bd91960e11b81528390fd5b50503461023a578160031936011261023a576020906114af61202f565b9051908152f35b50503461023a578160031936011261023a576020905160128152f35b919050346102e157806003193601126102e1576102dd91356114f760016102c6611ac0565b611faf565b9050346102e15760203660031901126102e15781602093600192358152600885522001549051908152f35b9050823461162557606036600319011261162557611543611aa5565b61154b611ac0565b9160443593611558611f00565b6001600160a01b03831680835260016020908152878420338552905286832054916000198310611591575b60208861049b89898961225c565b8683106115f95781156115e25733156115cb5750825260016020908152868320338452815291869020908590039055829061049b87611583565b8751634a1406b160e11b8152908101849052602490fd5b875163e602df0560e01b8152908101849052602490fd5b8751637dc7a0d960e11b8152339181019182526020820193909352604081018790528291506060010390fd5b80fd5b919050346102e15760203660031901126102e157813591611647611dca565b6201518083106116d15762278d00831161169657507ff448a40e26962f42716006d8108e16c06e0b80c058a6f70c6437313e5d4d16d090600a549280600a55815193845260208401523392a280f35b6020606492519162461bcd60e51b835282015260166024820152754d57473a2054696d656c6f636b20746f6f206c6f6e6760501b6044820152fd5b6020606492519162461bcd60e51b8352820152601760248201527f4d57473a2054696d656c6f636b20746f6f2073686f72740000000000000000006044820152fd5b919050346102e157806003193601126102e15767ffffffffffffffff918035838111610c9d576117469036908301611ad6565b936024359081116108055761175e9036908401611b07565b9093600080516020612707833981519152875260209260088452818820338952845260ff9460ff838a20541680156118d2575b61179a90611bc3565b871561189c57606488116118595750875b8781106117b6578880f35b600190876001600160a01b036117d06106db848d88611c0f565b1680158015611846575b61183f57808c52600b8852858c208460ff19825416179055600c885242868d2055600d88528b868120557f8b9448e4aabf66adc1656b8eeb6f5665ac50835644b954cc314c00019febf5e68651806118358a33964284611c49565b0390a35b016117ab565b5050611839565b50808c52600b885288868d2054166117da565b825162461bcd60e51b8152908101859052601f60248201527f4d57473a2042617463682073697a652065786365656473206d6178696d756d006044820152606490fd5b825162461bcd60e51b8152908101859052601060248201526f4d57473a20456d70747920617272617960801b6044820152606490fd5b5088805260088552828920338a5285528289205460ff16611791565b50503461023a578160031936011261023a576020906002549051908152f35b50503461023a578060031936011261023a5760209061049b61192d611aa5565b602435903361239a565b828434611625578060031936011261162557815191828260035461195a81611b35565b90818452602095600191876001821691826000146119eb57505060011461198f575b5050506105429291610533910385611ba1565b9190869350600383527fc2575a0e9e593c00f959f8c92f12db2869c3395a3b0502d05e2516446f71f85b5b8284106119d3575050508201018161053361054261197c565b8054848a0186015288955087949093019281016119ba565b60ff19168782015293151560051b860190930193508492506105339150610542905061197c565b8491346102e15760203660031901126102e1573563ffffffff60e01b81168091036102e15760209250637965db0b60e01b8114908115611a54575b5015158152f35b6301ffc9a760e01b14905083611a4d565b919082519283825260005b848110611a91575050826000602080949584010152601f8019910116010190565b602081830181015184830182015201611a70565b600435906001600160a01b0382168203611abb57565b600080fd5b602435906001600160a01b0382168203611abb57565b9181601f84011215611abb5782359167ffffffffffffffff8311611abb576020808501948460051b010111611abb57565b9181601f84011215611abb5782359167ffffffffffffffff8311611abb5760208381860195010111611abb57565b90600182811c92168015611b65575b6020831014611b4f57565b634e487b7160e01b600052602260045260246000fd5b91607f1691611b44565b6040810190811067ffffffffffffffff821117611b8b57604052565b634e487b7160e01b600052604160045260246000fd5b90601f8019910116810190811067ffffffffffffffff821117611b8b57604052565b15611bca57565b60405162461bcd60e51b815260206004820152601d60248201527f4d57473a2043616c6c6572206973206e6f7420617574686f72697a65640000006044820152606490fd5b9190811015611c1f5760051b0190565b634e487b7160e01b600052603260045260246000fd5b356001600160a01b0381168103611abb5790565b91926060938192845260406020850152816040850152848401376000828201840152601f01601f1916010190565b15611c7e57565b60405162461bcd60e51b815260206004820152601c60248201527f4d57473a2041646472657373206e6f7420626c61636b6c6973746564000000006044820152606490fd5b91908201809211611cd057565b634e487b7160e01b600052601160045260246000fd5b15611ced57565b60405162461bcd60e51b815260206004820152601960248201527f4d57473a2042617463682073697a6520746f6f206c61726765000000000000006044820152606490fd5b15611d3957565b60405162461bcd60e51b815260206004820152601960248201527f4d57473a205a65726f20616d6f756e74207472616e73666572000000000000006044820152606490fd5b15611d8557565b60405162461bcd60e51b815260206004820152601860248201527f4d57473a204475706c696361746520726563697069656e7400000000000000006044820152606490fd5b3360009081527f5eff886ea0ce6ca488a3d6e336d6c0f75f46d19b42c06ce5ee98e42c96d256c7602052604081205460ff1615611e045750565b6044906040519063e2517d3f60e01b82523360048301526024820152fd5b3360009081527f459b1e5083a3843fe942c7fe56a64f1bc7077ec5922aa56289f7287d5cb8f6c460205260409020547f47bdabde1e750b84b979caae0fef544935c3c8ebe23eed8fca4b8f45e462b6299060ff1615611e045750565b3360009081527fc0455bc2e8e41e265569040f30781c41db9d7cbab80fc1c47b3ea05d86ddb14a60205260409020547f139c2898040ef16910dc9f44dc697df79363da767d8bc92f2e310312b816e46d9060ff1615611e045750565b80600052600860205260406000203360005260205260ff6040600020541615611e045750565b60ff60095416611f0c57565b60405163d93c066560e01b8152600490fd5b6001600160a01b031660008181527f5eff886ea0ce6ca488a3d6e336d6c0f75f46d19b42c06ce5ee98e42c96d256c7602052604081205490919060ff16611fab5781805260086020526040822081835260205260408220600160ff1982541617905533917f2f8788117e7eff1d82e926ec794901d17c78024a50270940304540a733656f0d8180a4600190565b5090565b906000918083526008602052604083209160018060a01b03169182845260205260ff6040842054161560001461202a5780835260086020526040832082845260205260408320600160ff198254161790557f2f8788117e7eff1d82e926ec794901d17c78024a50270940304540a733656f0d339380a4600190565b505090565b307f00000000000000000000000000000000000000000000000000000000000000006001600160a01b03161480612131575b1561208a577f000000000000000000000000000000000000000000000000000000000000000090565b60405160208101907f8b73c3c69bb8fe3d512ecc4cf759cc79239f7b179b0ffacaa9a75d522b39400f82527f000000000000000000000000000000000000000000000000000000000000000060408201527f000000000000000000000000000000000000000000000000000000000000000060608201524660808201523060a082015260a0815260c0810181811067ffffffffffffffff821117611b8b5760405251902090565b507f00000000000000000000000000000000000000000000000000000000000000004614612061565b6001600160a01b031660008181527f5eff886ea0ce6ca488a3d6e336d6c0f75f46d19b42c06ce5ee98e42c96d256c7602052604081205490919060ff1615611fab578180526008602052604082208183526020526040822060ff19815416905533917ff6391f5c32d9c69d2a47ea670b442974b53935d1edc7fd64eb21e047a839171b8180a4600190565b906000918083526008602052604083209160018060a01b03169182845260205260ff60408420541660001461202a578083526008602052604083208284526020526040832060ff1981541690557ff6391f5c32d9c69d2a47ea670b442974b53935d1edc7fd64eb21e047a839171b339380a4600190565b916001600160a01b038084169283156123815716928315612368576000838152600b60205260409160ff8383205416612319578482528160205282822054908482106122e8575091808285602095887fddf252ad1be2c89b69c2b068fc378daa952ba7f163c4a11628f55a4df523b3ef98965282875203828220558781522082815401905551908152a3565b835163391434e360e21b81526001600160a01b03919091166004820152602481019190915260448101849052606490fd5b825162461bcd60e51b815260206004820152602260248201527f4d57473a2053656e646572206164647265737320697320626c61636b6c697374604482015261195960f21b6064820152608490fd5b60405163ec442f0560e01b815260006004820152602490fd5b604051634b637e8f60e11b815260006004820152602490fd5b6001600160a01b0390811691821561241457169182156123fb5760207f8c5be1e5ebec7d5bd14f71427d1e84f3dd0314c0f7b2291e5b200ac8c7c3b925918360005260018252604060002085600052825280604060002055604051908152a3565b604051634a1406b160e11b815260006004820152602490fd5b60405163e602df0560e01b815260006004820152602490fd5b60ff811461246b5760ff811690601f8211612459576040519161244f83611b6f565b8252602082015290565b604051632cd44ac360e21b8152600490fd5b5060405160055481600061247e83611b35565b8083529260209060019081811690811561250d57506001146124ac575b50506124a992500382611ba1565b90565b91509260056000527f036b6384b5eca791c62761152d0c79bb0604c104a5fb6f4eb0703f3154bb3db0936000925b8284106124f557506124a9945050508101602001388061249b565b855487850183015294850194869450928101926124da565b915050602092506124a994915060ff191682840152151560051b820101388061249b565b60ff81146125535760ff811690601f8211612459576040519161244f83611b6f565b5060405160065481600061256683611b35565b8083529260209060019081811690811561250d57506001146125905750506124a992500382611ba1565b91509260066000527ff652222313e28459528d920b65115c16c04f3efc82aaedc97be59f3f377c0d3f936000925b8284106125d957506124a9945050508101602001388061249b565b855487850183015294850194869450928101926125be565b91907f7fffffffffffffffffffffffffffffff5d576e7357a4501ddfe92f46681b20a0841161267557926020929160ff608095604051948552168484015260408301526060820152600092839182805260015afa156126695780516001600160a01b0381161561266057918190565b50809160019190565b604051903d90823e3d90fd5b50505060009160039190565b60048110156126f05780612693575050565b600181036126ad5760405163f645eedf60e01b8152600490fd5b600281036126ce5760405163fce698f760e01b815260048101839052602490fd5b6003146126d85750565b602490604051906335e2f38360e21b82526004820152fd5b634e487b7160e01b600052602160045260246000fdfef988e4fb62b8e14f4820fed03192306ddf4d7dbfa215595ba1c6ba4b76b369eea264697066735822122071bbf0ae59f692f9cc2c6ff0b0979b9dacb2fee3c8e2762a1965aa69b148dd1a64736f6c634300081800332f8788117e7eff1d82e926ec794901d17c78024a50270940304540a733656f0d",
  "linkReferences": {},
  "deployedLinkReferences": {}
}