{
  "_format": "hh-sol-artifact-1",
  "contractName": "MWGOrderBook",
  "sourceName": "contracts/MWGOrderBook.sol",
  "abi": [
    {
      "inputs": [
        {
          "internalType": "address",
          "name": "_mwgToken",
          "type": "address"
        },
        {
          "internalType": "address",
          "name": "_admin",
          "type": "address"
        }
      ],
      "stateMutability": "nonpayable",
      "type": "constructor"
    },
    {
      "inputs": [],
      "name": "AccessControlBadConfirmation",
      "type": "error"
    },
    {
      "inputs": [
        {
          "internalType": "address",
          "name": "account",
          "type": "address"
        },
        {
          "internalType": "bytes32",
          "name": "neededRole",
          "type": "bytes32"
        }
      ],
      "name": "AccessControlUnauthorizedAccount",
      "type": "error"
    },
    {
      "inputs": [],
      "name": "EnforcedPause",
      "type": "error"
    },
    {
      "inputs": [],
      "name": "ExpectedPause",
      "type": "error"
    },
    {
      "inputs": [],
      "name": "ReentrancyGuardReentrantCall",
      "type": "error"
    },
    {
      "anonymous": false,
      "inputs": [
        {
          "indexed": false,
          "internalType": "uint256",
          "name": "newFeePercentage",
          "type": "uint256"
        },
        {
          "indexed": false,
          "internalType": "address",
          "name": "newFeeRecipient",
          "type": "address"
        }
      ],
      "name": "FeeUpdated",
      "type": "event"
    },
    {
      "anonymous": false,
      "inputs": [
        {
          "indexed": false,
          "internalType": "uint256",
          "name": "minMWG",
          "type": "uint256"
        },
        {
          "indexed": false,
          "internalType": "uint256",
          "name": "minBNB",
          "type": "uint256"
        }
      ],
      "name": "MinimumAmountsUpdated",
      "type": "event"
    },
    {
      "anonymous": false,
      "inputs": [
        {
          "indexed": true,
          "internalType": "uint256",
          "name": "orderId",
          "type": "uint256"
        },
        {
          "indexed": true,
          "internalType": "address",
          "name": "user",
          "type": "address"
        },
        {
          "indexed": false,
          "internalType": "uint256",
          "name": "bnbRefund",
          "type": "uint256"
        },
        {
          "indexed": false,
          "internalType": "uint256",
          "name": "mwgRefund",
          "type": "uint256"
        }
      ],
      "name": "OrderCancelled",
      "type": "event"
    },
    {
      "anonymous": false,
      "inputs": [
        {
          "indexed": true,
          "internalType": "uint256",
          "name": "orderId",
          "type": "uint256"
        },
        {
          "indexed": true,
          "internalType": "address",
          "name": "user",
          "type": "address"
        },
        {
          "indexed": false,
          "internalType": "enum MWGOrderBook.OrderType",
          "name": "orderType",
          "type": "uint8"
        },
        {
          "indexed": false,
          "internalType": "uint256",
          "name": "mwgAmount",
          "type": "uint256"
        },
        {
          "indexed": false,
          "internalType": "uint256",
          "name": "bnbAmount",
          "type": "uint256"
        },
        {
          "indexed": false,
          "internalType": "uint256",
          "name": "price",
          "type": "uint256"
        },
        {
          "indexed": false,
          "internalType": "uint256",
          "name": "expiresAt",
          "type": "uint256"
        }
      ],
      "name": "OrderCreated",
      "type": "event"
    },
    {
      "anonymous": false,
      "inputs": [
        {
          "indexed": true,
          "internalType": "uint256",
          "name": "orderId",
          "type": "uint256"
        }
      ],
      "name": "OrderExpired",
      "type": "event"
    },
    {
      "anonymous": false,
      "inputs": [
        {
          "indexed": true,
          "internalType": "uint256",
          "name": "orderId",
          "type": "uint256"
        },
        {
          "indexed": true,
          "internalType": "uint256",
          "name": "fillId",
          "type": "uint256"
        },
        {
          "indexed": true,
          "internalType": "address",
          "name": "filler",
          "type": "address"
        },
        {
          "indexed": false,
          "internalType": "uint256",
          "name": "mwgAmount",
          "type": "uint256"
        },
        {
          "indexed": false,
          "internalType": "uint256",
          "name": "bnbAmount",
          "type": "uint256"
        },
        {
          "indexed": false,
          "internalType": "enum MWGOrderBook.OrderStatus",
          "name": "newStatus",
          "type": "uint8"
        }
      ],
      "name": "OrderFilled",
      "type": "event"
    },
    {
      "anonymous": false,
      "inputs": [
        {
          "indexed": false,
          "internalType": "address",
          "name": "account",
          "type": "address"
        }
      ],
      "name": "Paused",
      "type": "event"
    },
    {
      "anonymous": false,
      "inputs": [
        {
          "indexed": true,
          "internalType": "bytes32",
          "name": "role",
          "type": "bytes32"
        },
        {
          "indexed": true,
          "internalType": "bytes32",
          "name": "previousAdminRole",
          "type": "bytes32"
        },
        {
          "indexed": true,
          "internalType": "bytes32",
          "name": "newAdminRole",
          "type": "bytes32"
        }
      ],
      "name": "RoleAdminChanged",
      "type": "event"
    },
    {
      "anonymous": false,
      "inputs": [
        {
          "indexed": true,
          "internalType": "bytes32",
          "name": "role",
          "type": "bytes32"
        },
        {
          "indexed": true,
          "internalType": "address",
          "name": "account",
          "type": "address"
        },
        {
          "indexed": true,
          "internalType": "address",
          "name": "sender",
          "type": "address"
        }
      ],
      "name": "RoleGranted",
      "type": "event"
    },
    {
      "anonymous": false,
      "inputs": [
        {
          "indexed": true,
          "internalType": "bytes32",
          "name": "role",
          "type": "bytes32"
        },
        {
          "indexed": true,
          "internalType": "address",
          "name": "account",
          "type": "address"
        },
        {
          "indexed": true,
          "internalType": "address",
          "name": "sender",
          "type": "address"
        }
      ],
      "name": "RoleRevoked",
      "type": "event"
    },
    {
      "anonymous": false,
      "inputs": [
        {
          "indexed": false,
          "internalType": "address",
          "name": "account",
          "type": "address"
        }
      ],
      "name": "Unpaused",
      "type": "event"
    },
    {
      "anonymous": false,
      "inputs": [
        {
          "indexed": true,
          "internalType": "address",
          "name": "user",
          "type": "address"
        },
        {
          "indexed": false,
          "internalType": "uint256",
          "name": "amount",
          "type": "uint256"
        }
      ],
      "name": "WithdrawalClaimed",
      "type": "event"
    },
    {
      "inputs": [],
      "name": "ADMIN_ROLE",
      "outputs": [
        {
          "internalType": "bytes32",
          "name": "",
          "type": "bytes32"
        }
      ],
      "stateMutability": "view",
      "type": "function"
    },
    {
      "inputs": [],
      "name": "DEFAULT_ADMIN_ROLE",
      "outputs": [
        {
          "internalType": "bytes32",
          "name": "",
          "type": "bytes32"
        }
      ],
      "stateMutability": "view",
      "type": "function"
    },
    {
      "inputs": [],
      "name": "MAX_EXPIRY",
      "outputs": [
        {
          "internalType": "uint256",
          "name": "",
          "type": "uint256"
        }
      ],
      "stateMutability": "view",
      "type": "function"
    },
    {
      "inputs": [],
      "name": "PAUSE_ROLE",
      "outputs": [
        {
          "internalType": "bytes32",
          "name": "",
          "type": "bytes32"
        }
      ],
      "stateMutability": "view",
      "type": "function"
    },
    {
      "inputs": [
        {
          "internalType": "uint256",
          "name": "",
          "type": "uint256"
        }
      ],
      "name": "activeBuyOrders",
      "outputs": [
        {
          "internalType": "uint256",
          "name": "",
          "type": "uint256"
        }
      ],
      "stateMutability": "view",
      "type": "function"
    },
    {
      "inputs": [
        {
          "internalType": "uint256",
          "name": "",
          "type": "uint256"
        }
      ],
      "name": "activeSellOrders",
      "outputs": [
        {
          "internalType": "uint256",
          "name": "",
          "type": "uint256"
        }
      ],
      "stateMutability": "view",
      "type": "function"
    },
    {
      "inputs": [
        {
          "internalType": "uint256",
          "name": "orderId",
          "type": "uint256"
        }
      ],
      "name": "cancelOrder",
      "outputs": [],
      "stateMutability": "nonpayable",
      "type": "function"
    },
    {
      "inputs": [
        {
          "internalType": "uint256",
          "name": "orderId",
          "type": "uint256"
        }
      ],
      "name": "claimExpiredOrder",
      "outputs": [],
      "stateMutability": "nonpayable",
      "type": "function"
    },
    {
      "inputs": [
        {
          "internalType": "uint256",
          "name": "mwgAmount",
          "type": "uint256"
        },
        {
          "internalType": "uint256",
          "name": "pricePerMWG",
          "type": "uint256"
        },
        {
          "internalType": "uint256",
          "name": "expirySeconds",
          "type": "uint256"
        }
      ],
      "name": "createBuyOrder",
      "outputs": [
        {
          "internalType": "uint256",
          "name": "",
          "type": "uint256"
        }
      ],
      "stateMutability": "payable",
      "type": "function"
    },
    {
      "inputs": [
        {
          "internalType": "uint256",
          "name": "mwgAmount",
          "type": "uint256"
        },
        {
          "internalType": "uint256",
          "name": "pricePerMWG",
          "type": "uint256"
        },
        {
          "internalType": "uint256",
          "name": "expirySeconds",
          "type": "uint256"
        }
      ],
      "name": "createSellOrder",
      "outputs": [
        {
          "internalType": "uint256",
          "name": "",
          "type": "uint256"
        }
      ],
      "stateMutability": "nonpayable",
      "type": "function"
    },
    {
      "inputs": [
        {
          "internalType": "uint256",
          "name": "orderId",
          "type": "uint256"
        }
      ],
      "name": "emergencyCancelOrder",
      "outputs": [],
      "stateMutability": "nonpayable",
      "type": "function"
    },
    {
      "inputs": [],
      "name": "feePercentage",
      "outputs": [
        {
          "internalType": "uint256",
          "name": "",
          "type": "uint256"
        }
      ],
      "stateMutability": "view",
      "type": "function"
    },
    {
      "inputs": [],
      "name": "feeRecipient",
      "outputs": [
        {
          "internalType": "address",
          "name": "",
          "type": "address"
        }
      ],
      "stateMutability": "view",
      "type": "function"
    },
    {
      "inputs": [
        {
          "internalType": "uint256",
          "name": "orderId",
          "type": "uint256"
        },
        {
          "internalType": "uint256",
          "name": "mwgAmount",
          "type": "uint256"
        }
      ],
      "name": "fillBuyOrder",
      "outputs": [],
      "stateMutability": "nonpayable",
      "type": "function"
    },
    {
      "inputs": [
        {
          "internalType": "uint256",
          "name": "orderId",
          "type": "uint256"
        },
        {
          "internalType": "uint256",
          "name": "mwgAmount",
          "type": "uint256"
        }
      ],
      "name": "fillSellOrder",
      "outputs": [],
      "stateMutability": "payable",
      "type": "function"
    },
    {
      "inputs": [
        {
          "internalType": "uint256",
          "name": "offset",
          "type": "uint256"
        },
        {
          "internalType": "uint256",
          "name": "limit",
          "type": "uint256"
        }
      ],
      "name": "getActiveOrders",
      "outputs": [
        {
          "components": [
            {
              "internalType": "uint256",
              "name": "orderId",
              "type": "uint256"
            },
            {
              "internalType": "address",
              "name": "user",
              "type": "address"
            },
            {
              "internalType": "enum MWGOrderBook.OrderType",
              "name": "orderType",
              "type": "uint8"
            },
            {
              "internalType": "uint256",
              "name": "mwgAmount",
              "type": "uint256"
            },
            {
              "internalType": "uint256",
              "name": "bnbAmount",
              "type": "uint256"
            },
            {
              "internalType": "uint256",
              "name": "price",
              "type": "uint256"
            },
            {
              "internalType": "uint256",
              "name": "filled",
              "type": "uint256"
            },
            {
              "internalType": "uint256",
              "name": "remaining",
              "type": "uint256"
            },
            {
              "internalType": "enum MWGOrderBook.OrderStatus",
              "name": "status",
              "type": "uint8"
            },
            {
              "internalType": "uint256",
              "name": "createdAt",
              "type": "uint256"
            },
            {
              "internalType": "uint256",
              "name": "expiresAt",
              "type": "uint256"
            },
            {
              "internalType": "uint256",
              "name": "feeAtCreation",
              "type": "uint256"
            }
          ],
          "internalType": "struct MWGOrderBook.Order[]",
          "name": "buyOrders",
          "type": "tuple[]"
        },
        {
          "components": [
            {
              "internalType": "uint256",
              "name": "orderId",
              "type": "uint256"
            },
            {
              "internalType": "address",
              "name": "user",
              "type": "address"
            },
            {
              "internalType": "enum MWGOrderBook.OrderType",
              "name": "orderType",
              "type": "uint8"
            },
            {
              "internalType": "uint256",
              "name": "mwgAmount",
              "type": "uint256"
            },
            {
              "internalType": "uint256",
              "name": "bnbAmount",
              "type": "uint256"
            },
            {
              "internalType": "uint256",
              "name": "price",
              "type": "uint256"
            },
            {
              "internalType": "uint256",
              "name": "filled",
              "type": "uint256"
            },
            {
              "internalType": "uint256",
              "name": "remaining",
              "type": "uint256"
            },
            {
              "internalType": "enum MWGOrderBook.OrderStatus",
              "name": "status",
              "type": "uint8"
            },
            {
              "internalType": "uint256",
              "name": "createdAt",
              "type": "uint256"
            },
            {
              "internalType": "uint256",
              "name": "expiresAt",
              "type": "uint256"
            },
            {
              "internalType": "uint256",
              "name": "feeAtCreation",
              "type": "uint256"
            }
          ],
          "internalType": "struct MWGOrderBook.Order[]",
          "name": "sellOrders",
          "type": "tuple[]"
        },
        {
          "internalType": "uint256",
          "name": "totalBuyOrders",
          "type": "uint256"
        },
        {
          "internalType": "uint256",
          "name": "totalSellOrders",
          "type": "uint256"
        }
      ],
      "stateMutability": "view",
      "type": "function"
    },
    {
      "inputs": [],
      "name": "getBestBuyPrice",
      "outputs": [
        {
          "internalType": "uint256",
          "name": "bestPrice",
          "type": "uint256"
        }
      ],
      "stateMutability": "view",
      "type": "function"
    },
    {
      "inputs": [],
      "name": "getBestSellPrice",
      "outputs": [
        {
          "internalType": "uint256",
          "name": "bestPrice",
          "type": "uint256"
        }
      ],
      "stateMutability": "view",
      "type": "function"
    },
    {
      "inputs": [],
      "name": "getOrderBookStats",
      "outputs": [
        {
          "internalType": "uint256",
          "name": "totalOrders",
          "type": "uint256"
        },
        {
          "internalType": "uint256",
          "name": "activeBuyCount",
          "type": "uint256"
        },
        {
          "internalType": "uint256",
          "name": "activeSellCount",
          "type": "uint256"
        }
      ],
      "stateMutability": "view",
      "type": "function"
    },
    {
      "inputs": [
        {
          "internalType": "uint256",
          "name": "orderId",
          "type": "uint256"
        }
      ],
      "name": "getOrderFills",
      "outputs": [
        {
          "components": [
            {
              "internalType": "uint256",
              "name": "fillId",
              "type": "uint256"
            },
            {
              "internalType": "uint256",
              "name": "orderId",
              "type": "uint256"
            },
            {
              "internalType": "address",
              "name": "filler",
              "type": "address"
            },
            {
              "internalType": "uint256",
              "name": "mwgAmount",
              "type": "uint256"
            },
            {
              "internalType": "uint256",
              "name": "bnbAmount",
              "type": "uint256"
            },
            {
              "internalType": "uint256",
              "name": "timestamp",
              "type": "uint256"
            }
          ],
          "internalType": "struct MWGOrderBook.Fill[]",
          "name": "fills",
          "type": "tuple[]"
        }
      ],
      "stateMutability": "view",
      "type": "function"
    },
    {
      "inputs": [
        {
          "internalType": "address",
          "name": "user",
          "type": "address"
        }
      ],
      "name": "getPendingWithdrawal",
      "outputs": [
        {
          "internalType": "uint256",
          "name": "",
          "type": "uint256"
        }
      ],
      "stateMutability": "view",
      "type": "function"
    },
    {
      "inputs": [
        {
          "internalType": "bytes32",
          "name": "role",
          "type": "bytes32"
        }
      ],
      "name": "getRoleAdmin",
      "outputs": [
        {
          "internalType": "bytes32",
          "name": "",
          "type": "bytes32"
        }
      ],
      "stateMutability": "view",
      "type": "function"
    },
    {
      "inputs": [
        {
          "internalType": "address",
          "name": "user",
          "type": "address"
        }
      ],
      "name": "getUserOrders",
      "outputs": [
        {
          "components": [
            {
              "internalType": "uint256",
              "name": "orderId",
              "type": "uint256"
            },
            {
              "internalType": "address",
              "name": "user",
              "type": "address"
            },
            {
              "internalType": "enum MWGOrderBook.OrderType",
              "name": "orderType",
              "type": "uint8"
            },
            {
              "internalType": "uint256",
              "name": "mwgAmount",
              "type": "uint256"
            },
            {
              "internalType": "uint256",
              "name": "bnbAmount",
              "type": "uint256"
            },
            {
              "internalType": "uint256",
              "name": "price",
              "type": "uint256"
            },
            {
              "internalType": "uint256",
              "name": "filled",
              "type": "uint256"
            },
            {
              "internalType": "uint256",
              "name": "remaining",
              "type": "uint256"
            },
            {
              "internalType": "enum MWGOrderBook.OrderStatus",
              "name": "status",
              "type": "uint8"
            },
            {
              "internalType": "uint256",
              "name": "createdAt",
              "type": "uint256"
            },
            {
              "internalType": "uint256",
              "name": "expiresAt",
              "type": "uint256"
            },
            {
              "internalType": "uint256",
              "name": "feeAtCreation",
              "type": "uint256"
            }
          ],
          "internalType": "struct MWGOrderBook.Order[]",
          "name": "userOrdersList",
          "type": "tuple[]"
        }
      ],
      "stateMutability": "view",
      "type": "function"
    },
    {
      "inputs": [
        {
          "internalType": "bytes32",
          "name": "role",
          "type": "bytes32"
        },
        {
          "internalType": "address",
          "name": "account",
          "type": "address"
        }
      ],
      "name": "grantRole",
      "outputs": [],
      "stateMutability": "nonpayable",
      "type": "function"
    },
    {
      "inputs": [
        {
          "internalType": "bytes32",
          "name": "role",
          "type": "bytes32"
        },
        {
          "internalType": "address",
          "name": "account",
          "type": "address"
        }
      ],
      "name": "hasRole",
      "outputs": [
        {
          "internalType": "bool",
          "name": "",
          "type": "bool"
        }
      ],
      "stateMutability": "view",
      "type": "function"
    },
    {
      "inputs": [
        {
          "internalType": "uint256[]",
          "name": "orderIds",
          "type": "uint256[]"
        }
      ],
      "name": "markExpiredOrders",
      "outputs": [],
      "stateMutability": "nonpayable",
      "type": "function"
    },
    {
      "inputs": [],
      "name": "minBNBAmount",
      "outputs": [
        {
          "internalType": "uint256",
          "name": "",
          "type": "uint256"
        }
      ],
      "stateMutability": "view",
      "type": "function"
    },
    {
      "inputs": [],
      "name": "minMWGAmount",
      "outputs": [
        {
          "internalType": "uint256",
          "name": "",
          "type": "uint256"
        }
      ],
      "stateMutability": "view",
      "type": "function"
    },
    {
      "inputs": [],
      "name": "mwgToken",
      "outputs": [
        {
          "internalType": "contract IERC20",
          "name": "",
          "type": "address"
        }
      ],
      "stateMutability": "view",
      "type": "function"
    },
    {
      "inputs": [
        {
          "internalType": "uint256",
          "name": "",
          "type": "uint256"
        },
        {
          "internalType": "uint256",
          "name": "",
          "type": "uint256"
        }
      ],
      "name": "orderFills",
      "outputs": [
        {
          "internalType": "uint256",
          "name": "fillId",
          "type": "uint256"
        },
        {
          "internalType": "uint256",
          "name": "orderId",
          "type": "uint256"
        },
        {
          "internalType": "address",
          "name": "filler",
          "type": "address"
        },
        {
          "internalType": "uint256",
          "name": "mwgAmount",
          "type": "uint256"
        },
        {
          "internalType": "uint256",
          "name": "bnbAmount",
          "type": "uint256"
        },
        {
          "internalType": "uint256",
          "name": "timestamp",
          "type": "uint256"
        }
      ],
      "stateMutability": "view",
      "type": "function"
    },
    {
      "inputs": [
        {
          "internalType": "uint256",
          "name": "",
          "type": "uint256"
        }
      ],
      "name": "orders",
      "outputs": [
        {
          "internalType": "uint256",
          "name": "orderId",
          "type": "uint256"
        },
        {
          "internalType": "address",
          "name": "user",
          "type": "address"
        },
        {
          "internalType": "enum MWGOrderBook.OrderType",
          "name": "orderType",
          "type": "uint8"
        },
        {
          "internalType": "uint256",
          "name": "mwgAmount",
          "type": "uint256"
        },
        {
          "internalType": "uint256",
          "name": "bnbAmount",
          "type": "uint256"
        },
        {
          "internalType": "uint256",
          "name": "price",
          "type": "uint256"
        },
        {
          "internalType": "uint256",
          "name": "filled",
          "type": "uint256"
        },
        {
          "internalType": "uint256",
          "name": "remaining",
          "type": "uint256"
        },
        {
          "internalType": "enum MWGOrderBook.OrderStatus",
          "name": "status",
          "type": "uint8"
        },
        {
          "internalType": "uint256",
          "name": "createdAt",
          "type": "uint256"
        },
        {
          "internalType": "uint256",
          "name": "expiresAt",
          "type": "uint256"
        },
        {
          "internalType": "uint256",
          "name": "feeAtCreation",
          "type": "uint256"
        }
      ],
      "stateMutability": "view",
      "type": "function"
    },
    {
      "inputs": [],
      "name": "pause",
      "outputs": [],
      "stateMutability": "nonpayable",
      "type": "function"
    },
    {
      "inputs": [],
      "name": "paused",
      "outputs": [
        {
          "internalType": "bool",
          "name": "",
          "type": "bool"
        }
      ],
      "stateMutability": "view",
      "type": "function"
    },
    {
      "inputs": [
        {
          "internalType": "address",
          "name": "",
          "type": "address"
        }
      ],
      "name": "pendingWithdrawals",
      "outputs": [
        {
          "internalType": "uint256",
          "name": "",
          "type": "uint256"
        }
      ],
      "stateMutability": "view",
      "type": "function"
    },
    {
      "inputs": [
        {
          "internalType": "bytes32",
          "name": "role",
          "type": "bytes32"
        },
        {
          "internalType": "address",
          "name": "callerConfirmation",
          "type": "address"
        }
      ],
      "name": "renounceRole",
      "outputs": [],
      "stateMutability": "nonpayable",
      "type": "function"
    },
    {
      "inputs": [
        {
          "internalType": "bytes32",
          "name": "role",
          "type": "bytes32"
        },
        {
          "internalType": "address",
          "name": "account",
          "type": "address"
        }
      ],
      "name": "revokeRole",
      "outputs": [],
      "stateMutability": "nonpayable",
      "type": "function"
    },
    {
      "inputs": [
        {
          "internalType": "uint256",
          "name": "_feePercentage",
          "type": "uint256"
        },
        {
          "internalType": "address",
          "name": "_feeRecipient",
          "type": "address"
        }
      ],
      "name": "setFee",
      "outputs": [],
      "stateMutability": "nonpayable",
      "type": "function"
    },
    {
      "inputs": [
        {
          "internalType": "uint256",
          "name": "_minMWG",
          "type": "uint256"
        },
        {
          "internalType": "uint256",
          "name": "_minBNB",
          "type": "uint256"
        }
      ],
      "name": "setMinimumAmounts",
      "outputs": [],
      "stateMutability": "nonpayable",
      "type": "function"
    },
    {
      "inputs": [
        {
          "internalType": "bytes4",
          "name": "interfaceId",
          "type": "bytes4"
        }
      ],
      "name": "supportsInterface",
      "outputs": [
        {
          "internalType": "bool",
          "name": "",
          "type": "bool"
        }
      ],
      "stateMutability": "view",
      "type": "function"
    },
    {
      "inputs": [],
      "name": "unpause",
      "outputs": [],
      "stateMutability": "nonpayable",
      "type": "function"
    },
    {
      "inputs": [
        {
          "internalType": "address",
          "name": "",
          "type": "address"
        },
        {
          "internalType": "uint256",
          "name": "",
          "type": "uint256"
        }
      ],
      "name": "userOrders",
      "outputs": [
        {
          "internalType": "uint256",
          "name": "",
          "type": "uint256"
        }
      ],
      "stateMutability": "view",
      "type": "function"
    },
    {
      "inputs": [],
      "name": "withdraw",
      "outputs": [],
      "stateMutability": "nonpayable",
      "type": "function"
    },
    {
      "stateMutability": "payable",
      "type": "receive"
    }
  ],
  "bytecode": "0x60a060405268056bc75e2d63100000600455655af3107a400060055560006006553480156200002d57600080fd5b5060405162003fb338038062003fb383398101604081905262000050916200026e565b60016000556001600160a01b038216620000b15760405162461bcd60e51b815260206004820152601960248201527f496e76616c6964204d574720746f6b656e20616464726573730000000000000060448201526064015b60405180910390fd5b6001600160a01b038116620001095760405162461bcd60e51b815260206004820152601560248201527f496e76616c69642061646d696e206164647265737300000000000000000000006044820152606401620000a8565b6001600160a01b03828116608052600780546001600160a01b0319169183169190911790556200013b6000826200019e565b50620001687fa49807205ce4d355092ef5a8a18f56e8913cf4a201fbe287825b095693c21775826200019e565b50620001957f139c2898040ef16910dc9f44dc697df79363da767d8bc92f2e310312b816e46d826200019e565b505050620002a6565b60008281526002602090815260408083206001600160a01b038516845290915281205460ff16620002475760008381526002602090815260408083206001600160a01b03861684529091529020805460ff19166001179055620001fe3390565b6001600160a01b0316826001600160a01b0316847f2f8788117e7eff1d82e926ec794901d17c78024a50270940304540a733656f0d60405160405180910390a45060016200024b565b5060005b92915050565b80516001600160a01b03811681146200026957600080fd5b919050565b600080604083850312156200028257600080fd5b6200028d8362000251565b91506200029d6020840162000251565b90509250929050565b608051613cc7620002ec600039600081816108330152818161124e01528181611303015281816115f601528181611d19015281816120740152612d2f0152613cc76000f3fe6080604052600436106102555760003560e01c806375b238fc11610139578063a217fddf116100b6578063ca2c53611161007a578063ca2c536114610821578063d547741f14610855578063dd5c630814610875578063ec62ed2814610895578063f3f43703146108b5578063ffd4105b146108e257600080fd5b8063a217fddf14610702578063a85c38ef14610717578063b4f2e8b8146107bd578063b911d64b146107dd578063b96716901461080a57600080fd5b8063856652e9116100fd578063856652e91461065b5780638d5796d01461067b5780638fdfaf4f1461069b57806391d14854146106cc578063a001ecdd146106ec57600080fd5b806375b238fc1461059e5780637895e5a7146105c05780637c95cdc6146105e05780637ee8b2f8146106105780638456cb591461064657600080fd5b80633ccfd60b116101d25780634a329e33116101965780634a329e33146104a8578063514fcac71461050357806358481861146105235780635c975abb1461054357806363c69f081461055b5780637332035f1461058857600080fd5b80633ccfd60b146104065780633f4ba83a1461041b578063443ffbe314610430578063469048401461045057806347c76e801461048857600080fd5b80632f2ff15d116102195780632f2ff15d1461035c578063357f1a7e1461037c57806336568abe14610392578063389ed267146103b25780633a219c29146103e657600080fd5b806301ffc9a7146102ac578063031a8bd7146102e157806303bb8398146103045780631659891414610317578063248a9ca31461032c57600080fd5b366102a75760405162461bcd60e51b815260206004820152601c60248201527f446972656374207472616e7366657273206e6f7420616c6c6f7765640000000060448201526064015b60405180910390fd5b600080fd5b3480156102b857600080fd5b506102cc6102c73660046136c9565b6108f7565b60405190151581526020015b60405180910390f35b3480156102ed57600080fd5b506102f661092e565b6040519081526020016102d8565b6102f66103123660046136f3565b610a96565b61032a61032536600461371f565b610da1565b005b34801561033857600080fd5b506102f6610347366004613741565b60009081526002602052604090206001015490565b34801561036857600080fd5b5061032a610377366004613776565b6113ff565b34801561038857600080fd5b506102f660055481565b34801561039e57600080fd5b5061032a6103ad366004613776565b61142a565b3480156103be57600080fd5b506102f67f139c2898040ef16910dc9f44dc697df79363da767d8bc92f2e310312b816e46d81565b3480156103f257600080fd5b506102f66104013660046136f3565b611462565b34801561041257600080fd5b5061032a6117bb565b34801561042757600080fd5b5061032a6118fb565b34801561043c57600080fd5b5061032a61044b3660046137a2565b611930565b34801561045c57600080fd5b50600754610470906001600160a01b031681565b6040516001600160a01b0390911681526020016102d8565b34801561049457600080fd5b5061032a6104a3366004613741565b611ae1565b3480156104b457600080fd5b506104c86104c336600461371f565b611dd5565b6040805196875260208701959095526001600160a01b03909316938501939093526060840152608083019190915260a082015260c0016102d8565b34801561050f57600080fd5b5061032a61051e366004613741565b611e32565b34801561052f57600080fd5b5061032a61053e36600461371f565b612136565b34801561054f57600080fd5b5060015460ff166102cc565b34801561056757600080fd5b5061057b610576366004613817565b61221b565b6040516102d8919061393a565b34801561059457600080fd5b506102f660045481565b3480156105aa57600080fd5b506102f6600080516020613c7283398151915281565b3480156105cc57600080fd5b506102f66105db366004613741565b61241e565b3480156105ec57600080fd5b506106006105fb36600461371f565b61243f565b6040516102d8949392919061394d565b34801561061c57600080fd5b506102f661062b366004613817565b6001600160a01b031660009081526008602052604090205490565b34801561065257600080fd5b5061032a612853565b34801561066757600080fd5b506102f6610676366004613986565b612885565b34801561068757600080fd5b5061032a61069636600461371f565b6128b6565b3480156106a757600080fd5b50600354600b54600c54604080519384526020840192909252908201526060016102d8565b3480156106d857600080fd5b506102cc6106e7366004613776565b612e1d565b3480156106f857600080fd5b506102f660065481565b34801561070e57600080fd5b506102f6600081565b34801561072357600080fd5b506107a5610732366004613741565b600960208190526000918252604090912080546001820154600283015460038401546004850154600586015460068701546007880154600889015499890154600a9099015497996001600160a01b03881699600160a01b90980460ff90811699979896979596949593949216929091908c565b6040516102d89c9b9a999897969594939291906139b0565b3480156107c957600080fd5b5061032a6107d8366004613776565b612e48565b3480156107e957600080fd5b506107fd6107f8366004613741565b612f53565b6040516102d89190613a26565b34801561081657600080fd5b506102f662278d0081565b34801561082d57600080fd5b506104707f000000000000000000000000000000000000000000000000000000000000000081565b34801561086157600080fd5b5061032a610870366004613776565b613004565b34801561088157600080fd5b5061032a610890366004613741565b613029565b3480156108a157600080fd5b506102f66108b0366004613741565b6131f1565b3480156108c157600080fd5b506102f66108d0366004613817565b60086020526000908152604090205481565b3480156108ee57600080fd5b506102f6613201565b60006001600160e01b03198216637965db0b60e01b148061092857506301ffc9a760e01b6001600160e01b03198316145b92915050565b600c5460009081036109405750600090565b5060001960005b600c54811015610a8457600060096000600c848154811061096a5761096a613aa7565b600091825260208083209091015483528281019390935260409182019020815161018081018352815481526001808301546001600160a01b038116958301959095529093919284019160ff600160a01b90910416908111156109ce576109ce613832565b60018111156109df576109df613832565b81526002820154602082015260038201546040820152600480830154606083015260058301546080830152600683015460a0830152600783015460c09092019160ff1690811115610a3257610a32613832565b6004811115610a4357610a43613832565b81526020016008820154815260200160098201548152602001600a820154815250509050828160a001511015610a7b578060a0015192505b50600101610947565b6000198203610a9257600091505b5090565b6000610aa0613342565b610aa861336c565b600454841015610af55760405162461bcd60e51b81526020600482015260186024820152774d574720616d6f756e742062656c6f77206d696e696d756d60401b604482015260640161029e565b60008311610b455760405162461bcd60e51b815260206004820152601c60248201527f5072696365206d7573742062652067726561746572207468616e203000000000604482015260640161029e565b600082118015610b58575062278d008211155b610b9a5760405162461bcd60e51b8152602060048201526013602482015272496e76616c6964206578706972792074696d6560681b604482015260640161029e565b6000670de0b6b3a7640000610baf8587613ad3565b610bb99190613aea565b9050600554811015610c085760405162461bcd60e51b8152602060048201526018602482015277424e4220616d6f756e742062656c6f77206d696e696d756d60401b604482015260640161029e565b803414610c575760405162461bcd60e51b815260206004820152601960248201527f496e636f727265637420424e4220616d6f756e742073656e7400000000000000604482015260640161029e565b6000600360008154610c6890613b0c565b918290555060008181526009602052604081208281556001810180546001600160a81b0319163360ff60a01b191617905560028101899055600381018590556004810188905560058101919091556006810188905560078101805460ff19169055426008820181905591925090610ce0908690613b25565b60098201908155600654600a8084019190915533600081815260209283526040808220805460018181018355918452948320909401879055600b8054948501815582527f0175b7a638427703f0dbe7bb9bbf987a2551717b34e79f33b5b1008d1fa01db990930186905592549151909285927ff07a8480615bbc483de2809dd8f5fc302af8e269a71d0d31d0bb008984a018bd92610d8492918d918a918e91613b38565b60405180910390a350915050610d9a6001600055565b9392505050565b610da9613342565b610db161336c565b60008281526009602052604081208054909103610de05760405162461bcd60e51b815260040161029e90613b68565b60018082810154600160a01b900460ff1690811115610e0157610e01613832565b14610e415760405162461bcd60e51b815260206004820152601060248201526f2737ba10309039b2b6361037b93232b960811b604482015260640161029e565b6000600782015460ff166004811115610e5c57610e5c613832565b1480610e8057506002600782015460ff166004811115610e7e57610e7e613832565b145b610e9c5760405162461bcd60e51b815260040161029e90613b96565b80600901544210610edf5760405162461bcd60e51b815260206004820152600d60248201526c13dc99195c88195e1c1a5c9959609a1b604482015260640161029e565b60018101546001600160a01b03163303610f335760405162461bcd60e51b815260206004820152601560248201527421b0b73737ba103334b6361037bbb71037b93232b960591b604482015260640161029e565b60008211610f835760405162461bcd60e51b815260206004820152601d60248201527f416d6f756e74206d7573742062652067726561746572207468616e2030000000604482015260640161029e565b8060060154821115610fd25760405162461bcd60e51b8152602060048201526018602482015277416d6f756e7420657863656564732072656d61696e696e6760401b604482015260640161029e565b6000670de0b6b3a7640000826004015484610fed9190613ad3565b610ff79190613aea565b9050600081116110495760405162461bcd60e51b815260206004820152601a60248201527f46696c6c20616d6f756e7420726f756e647320746f207a65726f000000000000604482015260640161029e565b80341461108f5760405162461bcd60e51b8152602060048201526014602482015273125b98dbdc9c9958dd0810939088185b5bdd5b9d60621b604482015260640161029e565b600061271083600a0154856110a49190613ad3565b6110ae9190613aea565b905060006110bc8286613bc0565b9050848460050160008282546110d29190613b25565b92505081905550848460060160008282546110ed9190613bc0565b909155505060068401546000036111205760078401805460ff1916600190811790915561111b908790613390565b611130565b60078401805460ff191660021790555b6000600e6000815461114190613b0c565b91829055506000888152600d60209081526040808320815160c0810183528581528084018d815233828501818152606084018f8152608085018e81524260a08701908152875460018082018a55988c5299909a209551600690990290950197885592519487019490945592516002860180546001600160a01b0319166001600160a01b03909216919091179055516003850155516004840155925160059092019190915560078801549051929350909183918a917f77329305bbed24a80cf83c5846a2bbce48b2d18a9fe6715073b181830f58cd369161122a918c918b9160ff90911690613bd3565b60405180910390a460405163a9059cbb60e01b8152336004820152602481018390527f00000000000000000000000000000000000000000000000000000000000000006001600160a01b03169063a9059cbb906044016020604051808303816000875af115801561129f573d6000803e3d6000fd5b505050506040513d601f19601f820116820180604052508101906112c39190613bf6565b6112df5760405162461bcd60e51b815260040161029e90613c18565b82156113ba5760405163a9059cbb60e01b815261dead6004820152602481018490527f00000000000000000000000000000000000000000000000000000000000000006001600160a01b03169063a9059cbb906044016020604051808303816000875af1158015611354573d6000803e3d6000fd5b505050506040513d601f19601f820116820180604052508101906113789190613bf6565b6113ba5760405162461bcd60e51b81526020600482015260136024820152721355d1c819995948189d5c9b8819985a5b1959606a1b604482015260640161029e565b60018501546001600160a01b0316600090815260086020526040812080548692906113e6908490613b25565b90915550506001600055506113fb9350505050565b5050565b60008281526002602052604090206001015461141a81613463565b611424838361346d565b50505050565b6001600160a01b03811633146114535760405163334bd91960e11b815260040160405180910390fd5b61145d8282613501565b505050565b600061146c613342565b61147461336c565b6004548410156114c15760405162461bcd60e51b81526020600482015260186024820152774d574720616d6f756e742062656c6f77206d696e696d756d60401b604482015260640161029e565b600083116115115760405162461bcd60e51b815260206004820152601c60248201527f5072696365206d7573742062652067726561746572207468616e203000000000604482015260640161029e565b600082118015611524575062278d008211155b6115665760405162461bcd60e51b8152602060048201526013602482015272496e76616c6964206578706972792074696d6560681b604482015260640161029e565b6000670de0b6b3a764000061157b8587613ad3565b6115859190613aea565b90506005548110156115d45760405162461bcd60e51b8152602060048201526018602482015277424e4220616d6f756e742062656c6f77206d696e696d756d60401b604482015260640161029e565b6040516323b872dd60e01b8152336004820152306024820152604481018690527f00000000000000000000000000000000000000000000000000000000000000006001600160a01b0316906323b872dd906064016020604051808303816000875af1158015611647573d6000803e3d6000fd5b505050506040513d601f19601f8201168201806040525081019061166b9190613bf6565b6116875760405162461bcd60e51b815260040161029e90613c18565b600060036000815461169890613b0c565b91829055506000818152600960205260408120828155600181018054600160a01b6001600160a81b031990911660ff60a01b1933161717905560028101899055600381018590556004810188905560058101919091556006810188905560078101805460ff19169055426008820181905591925090611718908690613b25565b60098201908155600654600a8084019190915533600081815260209283526040808220805460018181018355918452948320909401879055600c8054808601825592527fdf6966c971051c3d54ec59162606531493a51404a002842f56009d7e5cf4a8c790910186905592549251909285927ff07a8480615bbc483de2809dd8f5fc302af8e269a71d0d31d0bb008984a018bd92610d84928d918a918e91613b38565b6117c3613342565b33600090815260086020526040902054806118195760405162461bcd60e51b81526020600482015260166024820152754e6f2070656e64696e67207769746864726177616c7360501b604482015260640161029e565b336000818152600860205260408082208290555190919083908381818185875af1925050503d806000811461186a576040519150601f19603f3d011682016040523d82523d6000602084013e61186f565b606091505b50509050806118b85760405162461bcd60e51b8152602060048201526015602482015274109390881dda5d1a191c985dd85b0819985a5b1959605a1b604482015260640161029e565b60405182815233907fd3f990ddd0f1a820ca21d6f29136b25c504220122117b21de9ede5602b99c5869060200160405180910390a250506118f96001600055565b565b7f139c2898040ef16910dc9f44dc697df79363da767d8bc92f2e310312b816e46d61192581613463565b61192d61356e565b50565b60005b8181101561145d57600083838381811061194f5761194f613aa7565b6020908102929092013560008181526009909352604090922080549293509115801591506119b757506000600782015460ff16600481111561199357611993613832565b14806119b757506002600782015460ff1660048111156119b5576119b5613832565b145b80156119c7575080600901544210155b15611ad75760018101546001600160a01b03163314806119f7575060098101546119f390610e10613b25565b4210155b611a565760405162461bcd60e51b815260206004820152602a60248201527f57616974203120686f757220616674657220657870697279206f72206265206f604482015269393232b91037bbb732b960b11b606482015260840161029e565b600781018054600460ff19909116179055600180820154600091600160a01b90910460ff1690811115611a8b57611a8b613832565b03611aa057611a9b826000613390565b611aab565b611aab826001613390565b60405182907f1ad308dc7017610c82d08084545f7176df5e2f08f078c3c8f8926cd7e555551490600090a25b5050600101611933565b611ae9613342565b600080516020613c72833981519152611b0181613463565b60008281526009602052604081208054909103611b305760405162461bcd60e51b815260040161029e90613b68565b6000600782015460ff166004811115611b4b57611b4b613832565b1480611b6f57506002600782015460ff166004811115611b6d57611b6d613832565b145b611b8b5760405162461bcd60e51b815260040161029e90613b96565b600181015460009081906001600160a01b031681600185810154600160a01b900460ff1690811115611bbf57611bbf613832565b03611bf257670de0b6b3a764000084600401548560060154611be19190613ad3565b611beb9190613aea565b9250611bfa565b836006015491505b60078401805460ff1916600317905560006006850181905560018086015460ff600160a01b9091041690811115611c3357611c33613832565b03611c4857611c43866000613390565b611c53565b611c53866001613390565b60408051848152602081018490526001600160a01b0383169188917f8cd7e382eb42bcc84841dacd15adda3bdd77aefce75edd49238bd47995b1f968910160405180910390a36000600185810154600160a01b900460ff1690811115611cbb57611cbb613832565b03611cf3576001600160a01b03811660009081526008602052604081208054859290611ce8908490613b25565b90915550611dc69050565b60405163a9059cbb60e01b81526001600160a01b038281166004830152602482018490527f0000000000000000000000000000000000000000000000000000000000000000169063a9059cbb906044016020604051808303816000875af1158015611d62573d6000803e3d6000fd5b505050506040513d601f19601f82011682018060405250810190611d869190613bf6565b611dc65760405162461bcd60e51b81526020600482015260116024820152701355d1c81c99599d5b990819985a5b1959607a1b604482015260640161029e565b505050505061192d6001600055565b600d6020528160005260406000208181548110611df157600080fd5b60009182526020909120600690910201805460018201546002830154600384015460048501546005909501549396509194506001600160a01b031692909186565b611e3a613342565b60008181526009602052604081208054909103611e695760405162461bcd60e51b815260040161029e90613b68565b60018101546001600160a01b03163314611eb75760405162461bcd60e51b815260206004820152600f60248201526e2737ba1037b93232b91037bbb732b960891b604482015260640161029e565b6000600782015460ff166004811115611ed257611ed2613832565b1480611ef657506002600782015460ff166004811115611ef457611ef4613832565b145b611f125760405162461bcd60e51b815260040161029e90613b96565b60008080600184810154600160a01b900460ff1690811115611f3657611f36613832565b03611f6957670de0b6b3a764000083600401548460060154611f589190613ad3565b611f629190613aea565b9150611f70565b5060068201545b60078301805460ff1916600317905560006006840181905560018085015460ff600160a01b9091041690811115611fa957611fa9613832565b03611fbe57611fb9846000613390565b611fc9565b611fc9846001613390565b6040805183815260208101839052339186917f8cd7e382eb42bcc84841dacd15adda3bdd77aefce75edd49238bd47995b1f96891015b60405180910390a36000600184810154600160a01b900460ff169081111561202957612029613832565b0361205857336000908152600860205260408120805484929061204d908490613b25565b909155506121299050565b60405163a9059cbb60e01b8152336004820152602481018290527f00000000000000000000000000000000000000000000000000000000000000006001600160a01b03169063a9059cbb906044016020604051808303816000875af11580156120c5573d6000803e3d6000fd5b505050506040513d601f19601f820116820180604052508101906120e99190613bf6565b6121295760405162461bcd60e51b81526020600482015260116024820152701355d1c81c99599d5b990819985a5b1959607a1b604482015260640161029e565b50505061192d6001600055565b600080516020613c7283398151915261214e81613463565b600083116121905760405162461bcd60e51b815260206004820152600f60248201526e496e76616c6964206d696e204d574760881b604482015260640161029e565b600082116121d25760405162461bcd60e51b815260206004820152600f60248201526e24b73b30b634b21036b4b71021272160891b604482015260640161029e565b6004839055600582905560408051848152602081018490527f38f34495dfadde4da575f797bc45e1e7ee4a3ccdad5a5d221b53b0b54de8c70691015b60405180910390a1505050565b6001600160a01b0381166000908152600a6020908152604080832080548251818502810185019093528083526060949383018282801561227a57602002820191906000526020600020905b815481526020019060010190808311612266575b50505050509050805167ffffffffffffffff81111561229b5761229b613c45565b6040519080825280602002602001820160405280156122d457816020015b6122c1613657565b8152602001906001900390816122b95790505b50915060005b815181101561241757600960008383815181106122f9576122f9613aa7565b6020908102919091018101518252818101929092526040908101600020815161018081018352815481526001808301546001600160a01b0381169583019590955290939192840191600160a01b900460ff169081111561235b5761235b613832565b600181111561236c5761236c613832565b81526002820154602082015260038201546040820152600480830154606083015260058301546080830152600683015460a0830152600783015460c09092019160ff16908111156123bf576123bf613832565b60048111156123d0576123d0613832565b81526020016008820154815260200160098201548152602001600a8201548152505083828151811061240457612404613aa7565b60209081029190910101526001016122da565b5050919050565b600c818154811061242e57600080fd5b600091825260209091200154905081565b60608060008060648511156124965760405162461bcd60e51b815260206004820152601860248201527f4c696d697420746f6f206869676820286d617820313030290000000000000000604482015260640161029e565b5050600b54600c546000828710156124cd57826124b38789613b25565b116124be57856124d0565b6124c88784613bc0565b6124d0565b60005b905060008288101561250157826124e7888a613b25565b116124f25786612504565b6124fc8884613bc0565b612504565b60005b90508167ffffffffffffffff81111561251f5761251f613c45565b60405190808252806020026020018201604052801561255857816020015b612545613657565b81526020019060019003908161253d5790505b50955060005b828110156126a65760096000600b612576848d613b25565b8154811061258657612586613aa7565b600091825260208083209091015483528281019390935260409182019020815161018081018352815481526001808301546001600160a01b038116958301959095529093919284019160ff600160a01b90910416908111156125ea576125ea613832565b60018111156125fb576125fb613832565b81526002820154602082015260038201546040820152600480830154606083015260058301546080830152600683015460a0830152600783015460c09092019160ff169081111561264e5761264e613832565b600481111561265f5761265f613832565b81526020016008820154815260200160098201548152602001600a8201548152505087828151811061269357612693613aa7565b602090810291909101015260010161255e565b508067ffffffffffffffff8111156126c0576126c0613c45565b6040519080825280602002602001820160405280156126f957816020015b6126e6613657565b8152602001906001900390816126de5790505b50945060005b818110156128475760096000600c612717848d613b25565b8154811061272757612727613aa7565b600091825260208083209091015483528281019390935260409182019020815161018081018352815481526001808301546001600160a01b038116958301959095529093919284019160ff600160a01b909104169081111561278b5761278b613832565b600181111561279c5761279c613832565b81526002820154602082015260038201546040820152600480830154606083015260058301546080830152600683015460a0830152600783015460c09092019160ff16908111156127ef576127ef613832565b600481111561280057612800613832565b81526020016008820154815260200160098201548152602001600a8201548152505086828151811061283457612834613aa7565b60209081029190910101526001016126ff565b50505092959194509250565b7f139c2898040ef16910dc9f44dc697df79363da767d8bc92f2e310312b816e46d61287d81613463565b61192d6135c0565b600a60205281600052604060002081815481106128a157600080fd5b90600052602060002001600091509150505481565b6128be613342565b6128c661336c565b600082815260096020526040812080549091036128f55760405162461bcd60e51b815260040161029e90613b68565b6000600182810154600160a01b900460ff169081111561291757612917613832565b146129565760405162461bcd60e51b815260206004820152600f60248201526e2737ba103090313abc9037b93232b960891b604482015260640161029e565b6000600782015460ff16600481111561297157612971613832565b148061299557506002600782015460ff16600481111561299357612993613832565b145b6129b15760405162461bcd60e51b815260040161029e90613b96565b806009015442106129f45760405162461bcd60e51b815260206004820152600d60248201526c13dc99195c88195e1c1a5c9959609a1b604482015260640161029e565b60018101546001600160a01b03163303612a485760405162461bcd60e51b815260206004820152601560248201527421b0b73737ba103334b6361037bbb71037b93232b960591b604482015260640161029e565b60008211612a985760405162461bcd60e51b815260206004820152601d60248201527f416d6f756e74206d7573742062652067726561746572207468616e2030000000604482015260640161029e565b8060060154821115612ae75760405162461bcd60e51b8152602060048201526018602482015277416d6f756e7420657863656564732072656d61696e696e6760401b604482015260640161029e565b6000670de0b6b3a7640000826004015484612b029190613ad3565b612b0c9190613aea565b905060008111612b5e5760405162461bcd60e51b815260206004820152601a60248201527f46696c6c20616d6f756e7420726f756e647320746f207a65726f000000000000604482015260640161029e565b600061271083600a015483612b739190613ad3565b612b7d9190613aea565b90506000612b8b8284613bc0565b905084846005016000828254612ba19190613b25565b9250508190555084846006016000828254612bbc9190613bc0565b90915550506006840154600003612bec5760078401805460ff19166001179055612be7866000613390565b612bfc565b60078401805460ff191660021790555b6000600e60008154612c0d90613b0c565b91829055506000888152600d60209081526040808320815160c0810183528581528084018d815233828501818152606084018f8152608085018e81524260a08701908152875460018082018a55988c5299909a209551600690990290950197885592519487019490945592516002860180546001600160a01b0319166001600160a01b03909216919091179055516003850155516004840155925160059092019190915560078801549051929350909183918a917f77329305bbed24a80cf83c5846a2bbce48b2d18a9fe6715073b181830f58cd3691612cf6918c918b9160ff90911690613bd3565b60405180910390a460018501546040516323b872dd60e01b81523360048201526001600160a01b039182166024820152604481018890527f0000000000000000000000000000000000000000000000000000000000000000909116906323b872dd906064016020604051808303816000875af1158015612d7a573d6000803e3d6000fd5b505050506040513d601f19601f82011682018060405250810190612d9e9190613bf6565b612dba5760405162461bcd60e51b815260040161029e90613c18565b3360009081526008602052604081208054849290612dd9908490613b25565b90915550508215612e0e576007546001600160a01b0316600090815260086020526040812080548592906113e6908490613b25565b50505050506113fb6001600055565b60009182526002602090815260408084206001600160a01b0393909316845291905290205460ff1690565b600080516020613c72833981519152612e6081613463565b6103e8831115612eab5760405162461bcd60e51b815260206004820152601660248201527546656520746f6f206869676820286d6178203130252960501b604482015260640161029e565b6001600160a01b038216612ef95760405162461bcd60e51b8152602060048201526015602482015274125b9d985b1a5908199959481c9958da5c1a595b9d605a1b604482015260640161029e565b6006839055600780546001600160a01b0319166001600160a01b0384169081179091556040805185815260208101929092527f7cfad8b150be9751a5386cc4e0f549618032ff63d14fab4f77cd4b0aaaedc242910161220e565b6060600d6000838152602001908152602001600020805480602002602001604051908101604052809291908181526020016000905b82821015612ff95760008481526020908190206040805160c08101825260068602909201805483526001808201548486015260028201546001600160a01b03169284019290925260038101546060840152600481015460808401526005015460a08301529083529092019101612f88565b505050509050919050565b60008281526002602052604090206001015461301f81613463565b6114248383613501565b613031613342565b600081815260096020526040812080549091036130605760405162461bcd60e51b815260040161029e90613b68565b60018101546001600160a01b031633146130ae5760405162461bcd60e51b815260206004820152600f60248201526e2737ba1037b93232b91037bbb732b960891b604482015260640161029e565b6004600782015460ff1660048111156130c9576130c9613832565b1461310a5760405162461bcd60e51b815260206004820152601160248201527013dc99195c881b9bdd08195e1c1a5c9959607a1b604482015260640161029e565b60008160060154116131525760405162461bcd60e51b81526020600482015260116024820152704e6f2066756e647320746f20636c61696d60781b604482015260640161029e565b60008080600184810154600160a01b900460ff169081111561317657613176613832565b036131a957670de0b6b3a7640000836004015484600601546131989190613ad3565b6131a29190613aea565b91506131b0565b5060068201545b600060068401556040805183815260208101839052339186917f8cd7e382eb42bcc84841dacd15adda3bdd77aefce75edd49238bd47995b1f9689101611fff565b600b818154811061242e57600080fd5b6000805b600b54811015610a9257600060096000600b848154811061322857613228613aa7565b600091825260208083209091015483528281019390935260409182019020815161018081018352815481526001808301546001600160a01b038116958301959095529093919284019160ff600160a01b909104169081111561328c5761328c613832565b600181111561329d5761329d613832565b81526002820154602082015260038201546040820152600480830154606083015260058301546080830152600683015460a0830152600783015460c09092019160ff16908111156132f0576132f0613832565b600481111561330157613301613832565b81526020016008820154815260200160098201548152602001600a820154815250509050828160a001511115613339578060a0015192505b50600101613205565b60026000540361336557604051633ee5aeb560e01b815260040160405180910390fd5b6002600055565b60015460ff16156118f95760405163d93c066560e01b815260040160405180910390fd5b6000808260018111156133a5576133a5613832565b146133b157600c6133b4565b600b5b905060005b815481101561142457838282815481106133d5576133d5613aa7565b90600052602060002001540361345b57815482906133f590600190613bc0565b8154811061340557613405613aa7565b906000526020600020015482828154811061342257613422613aa7565b90600052602060002001819055508180548061344057613440613c5b565b60019003818190600052602060002001600090559055611424565b6001016133b9565b61192d81336135fb565b60006134798383612e1d565b6134f95760008381526002602090815260408083206001600160a01b03861684529091529020805460ff191660011790556134b13390565b6001600160a01b0316826001600160a01b0316847f2f8788117e7eff1d82e926ec794901d17c78024a50270940304540a733656f0d60405160405180910390a4506001610928565b506000610928565b600061350d8383612e1d565b156134f95760008381526002602090815260408083206001600160a01b0386168085529252808320805460ff1916905551339286917ff6391f5c32d9c69d2a47ea670b442974b53935d1edc7fd64eb21e047a839171b9190a4506001610928565b613576613634565b6001805460ff191690557f5db9ee0a495bf2e6ff9c91a7834c1ba4fdd244a5e8aa4e537bd38aeae4b073aa335b6040516001600160a01b03909116815260200160405180910390a1565b6135c861336c565b6001805460ff1916811790557f62e78cea01bee320cd4e420270b5ea74000d11b0c9f74754ebdbfc544b05a258336135a3565b6136058282612e1d565b6113fb5760405163e2517d3f60e01b81526001600160a01b03821660048201526024810183905260440161029e565b60015460ff166118f957604051638dfc202b60e01b815260040160405180910390fd5b6040805161018081018252600080825260208201819052909182019081526020016000815260200160008152602001600081526020016000815260200160008152602001600060048111156136ae576136ae613832565b81526020016000815260200160008152602001600081525090565b6000602082840312156136db57600080fd5b81356001600160e01b031981168114610d9a57600080fd5b60008060006060848603121561370857600080fd5b505081359360208301359350604090920135919050565b6000806040838503121561373257600080fd5b50508035926020909101359150565b60006020828403121561375357600080fd5b5035919050565b80356001600160a01b038116811461377157600080fd5b919050565b6000806040838503121561378957600080fd5b823591506137996020840161375a565b90509250929050565b600080602083850312156137b557600080fd5b823567ffffffffffffffff808211156137cd57600080fd5b818501915085601f8301126137e157600080fd5b8135818111156137f057600080fd5b8660208260051b850101111561380557600080fd5b60209290920196919550909350505050565b60006020828403121561382957600080fd5b610d9a8261375a565b634e487b7160e01b600052602160045260246000fd5b6002811061385857613858613832565b9052565b6005811061385857613858613832565b60008151808452602080850194506020840160005b8381101561392f57815180518852838101516001600160a01b0316848901526040808201516138b2828b0182613848565b5050606081810151908901526080808201519089015260a0808201519089015260c0808201519089015260e08082015190890152610100808201516138f9828b018261385c565b50506101208181015190890152610140808201519089015261016090810151908801526101809096019590820190600101613881565b509495945050505050565b602081526000610d9a602083018461386c565b608081526000613960608083018761386c565b8281036020840152613972818761386c565b604084019590955250506060015292915050565b6000806040838503121561399957600080fd5b6139a28361375a565b946020939093013593505050565b8c81526001600160a01b038c16602082015261018081016139d4604083018d613848565b8a60608301528960808301528860a08301528760c08301528660e0830152613a0061010083018761385c565b8461012083015283610140830152826101608301529d9c50505050505050505050505050565b602080825282518282018190526000919060409081850190868401855b82811015613a9a578151805185528681015187860152858101516001600160a01b031686860152606080820151908601526080808201519086015260a0908101519085015260c09093019290850190600101613a43565b5091979650505050505050565b634e487b7160e01b600052603260045260246000fd5b634e487b7160e01b600052601160045260246000fd5b808202811582820484141761092857610928613abd565b600082613b0757634e487b7160e01b600052601260045260246000fd5b500490565b600060018201613b1e57613b1e613abd565b5060010190565b8082018082111561092857610928613abd565b60a08101613b468288613848565b8560208301528460408301528360608301528260808301529695505050505050565b60208082526014908201527313dc99195c88191bd95cc81b9bdd08195e1a5cdd60621b604082015260600190565b60208082526010908201526f4f72646572206e6f742061637469766560801b604082015260600190565b8181038181111561092857610928613abd565b8381526020810183905260608101613bee604083018461385c565b949350505050565b600060208284031215613c0857600080fd5b81518015158114610d9a57600080fd5b6020808252601390820152721355d1c81d1c985b9cd9995c8819985a5b1959606a1b604082015260600190565b634e487b7160e01b600052604160045260246000fd5b634e487b7160e01b600052603160045260246000fdfea49807205ce4d355092ef5a8a18f56e8913cf4a201fbe287825b095693c21775a26469706673582212207363e49a767446ba9e0e5c5a5f5c9a2e477935d8d9d1a330c90cb45a9567212c64736f6c63430008180033",
  "linkReferences": {},
  "deployedLinkReferences": {}
}