{
  "_format": "hh-sol-artifact-1",
  "contractName": "PartnerVault",
  "sourceName": "contracts/PartnerVault.sol",
  "abi": [
    {
      "inputs": [
        {
          "internalType": "address",
          "name": "_token",
          "type": "address"
        }
      ],
      "stateMutability": "nonpayable",
      "type": "constructor"
    },
    {
      "inputs": [],
      "name": "AccessControlBadConfirmation",
      "type": "error"
    },
    {
      "inputs": [
        {
          "internalType": "address",
          "name": "account",
          "type": "address"
        },
        {
          "internalType": "bytes32",
          "name": "neededRole",
          "type": "bytes32"
        }
      ],
      "name": "AccessControlUnauthorizedAccount",
      "type": "error"
    },
    {
      "inputs": [],
      "name": "EnforcedPause",
      "type": "error"
    },
    {
      "inputs": [],
      "name": "ExpectedPause",
      "type": "error"
    },
    {
      "inputs": [],
      "name": "ReentrancyGuardReentrantCall",
      "type": "error"
    },
    {
      "anonymous": false,
      "inputs": [
        {
          "indexed": true,
          "internalType": "address",
          "name": "partner",
          "type": "address"
        },
        {
          "indexed": false,
          "internalType": "uint256",
          "name": "amount",
          "type": "uint256"
        },
        {
          "indexed": false,
          "internalType": "uint256",
          "name": "timestamp",
          "type": "uint256"
        }
      ],
      "name": "PartnerAllocated",
      "type": "event"
    },
    {
      "anonymous": false,
      "inputs": [
        {
          "indexed": true,
          "internalType": "address",
          "name": "partner",
          "type": "address"
        },
        {
          "indexed": false,
          "internalType": "uint256",
          "name": "amount",
          "type": "uint256"
        },
        {
          "indexed": false,
          "internalType": "uint256",
          "name": "timestamp",
          "type": "uint256"
        }
      ],
      "name": "PartnerWithdrawn",
      "type": "event"
    },
    {
      "anonymous": false,
      "inputs": [
        {
          "indexed": false,
          "internalType": "address",
          "name": "account",
          "type": "address"
        }
      ],
      "name": "Paused",
      "type": "event"
    },
    {
      "anonymous": false,
      "inputs": [
        {
          "indexed": true,
          "internalType": "bytes32",
          "name": "role",
          "type": "bytes32"
        },
        {
          "indexed": true,
          "internalType": "bytes32",
          "name": "previousAdminRole",
          "type": "bytes32"
        },
        {
          "indexed": true,
          "internalType": "bytes32",
          "name": "newAdminRole",
          "type": "bytes32"
        }
      ],
      "name": "RoleAdminChanged",
      "type": "event"
    },
    {
      "anonymous": false,
      "inputs": [
        {
          "indexed": true,
          "internalType": "bytes32",
          "name": "role",
          "type": "bytes32"
        },
        {
          "indexed": true,
          "internalType": "address",
          "name": "account",
          "type": "address"
        },
        {
          "indexed": true,
          "internalType": "address",
          "name": "sender",
          "type": "address"
        }
      ],
      "name": "RoleGranted",
      "type": "event"
    },
    {
      "anonymous": false,
      "inputs": [
        {
          "indexed": true,
          "internalType": "bytes32",
          "name": "role",
          "type": "bytes32"
        },
        {
          "indexed": true,
          "internalType": "address",
          "name": "account",
          "type": "address"
        },
        {
          "indexed": true,
          "internalType": "address",
          "name": "sender",
          "type": "address"
        }
      ],
      "name": "RoleRevoked",
      "type": "event"
    },
    {
      "anonymous": false,
      "inputs": [
        {
          "indexed": false,
          "internalType": "address",
          "name": "account",
          "type": "address"
        }
      ],
      "name": "Unpaused",
      "type": "event"
    },
    {
      "inputs": [],
      "name": "ADMIN_ROLE",
      "outputs": [
        {
          "internalType": "bytes32",
          "name": "",
          "type": "bytes32"
        }
      ],
      "stateMutability": "view",
      "type": "function"
    },
    {
      "inputs": [],
      "name": "DEFAULT_ADMIN_ROLE",
      "outputs": [
        {
          "internalType": "bytes32",
          "name": "",
          "type": "bytes32"
        }
      ],
      "stateMutability": "view",
      "type": "function"
    },
    {
      "inputs": [],
      "name": "LOCKUP_PERIOD",
      "outputs": [
        {
          "internalType": "uint256",
          "name": "",
          "type": "uint256"
        }
      ],
      "stateMutability": "view",
      "type": "function"
    },
    {
      "inputs": [
        {
          "internalType": "address",
          "name": "partner",
          "type": "address"
        },
        {
          "internalType": "uint256",
          "name": "amount",
          "type": "uint256"
        }
      ],
      "name": "allocateToPartner",
      "outputs": [],
      "stateMutability": "nonpayable",
      "type": "function"
    },
    {
      "inputs": [
        {
          "internalType": "address",
          "name": "partner",
          "type": "address"
        }
      ],
      "name": "emergencyWithdraw",
      "outputs": [],
      "stateMutability": "nonpayable",
      "type": "function"
    },
    {
      "inputs": [
        {
          "internalType": "address",
          "name": "partner",
          "type": "address"
        }
      ],
      "name": "getPartnerAllocation",
      "outputs": [
        {
          "internalType": "uint256",
          "name": "amount",
          "type": "uint256"
        },
        {
          "internalType": "uint256",
          "name": "allocatedAt",
          "type": "uint256"
        },
        {
          "internalType": "bool",
          "name": "withdrawn",
          "type": "bool"
        },
        {
          "internalType": "uint256",
          "name": "withdrawableAt",
          "type": "uint256"
        }
      ],
      "stateMutability": "view",
      "type": "function"
    },
    {
      "inputs": [
        {
          "internalType": "bytes32",
          "name": "role",
          "type": "bytes32"
        }
      ],
      "name": "getRoleAdmin",
      "outputs": [
        {
          "internalType": "bytes32",
          "name": "",
          "type": "bytes32"
        }
      ],
      "stateMutability": "view",
      "type": "function"
    },
    {
      "inputs": [],
      "name": "getTotalAllocated",
      "outputs": [
        {
          "internalType": "uint256",
          "name": "",
          "type": "uint256"
        }
      ],
      "stateMutability": "view",
      "type": "function"
    },
    {
      "inputs": [],
      "name": "getVaultBalance",
      "outputs": [
        {
          "internalType": "uint256",
          "name": "",
          "type": "uint256"
        }
      ],
      "stateMutability": "view",
      "type": "function"
    },
    {
      "inputs": [
        {
          "internalType": "address",
          "name": "partner",
          "type": "address"
        }
      ],
      "name": "getWithdrawableAmount",
      "outputs": [
        {
          "internalType": "uint256",
          "name": "",
          "type": "uint256"
        }
      ],
      "stateMutability": "view",
      "type": "function"
    },
    {
      "inputs": [
        {
          "internalType": "bytes32",
          "name": "role",
          "type": "bytes32"
        },
        {
          "internalType": "address",
          "name": "account",
          "type": "address"
        }
      ],
      "name": "grantRole",
      "outputs": [],
      "stateMutability": "nonpayable",
      "type": "function"
    },
    {
      "inputs": [
        {
          "internalType": "bytes32",
          "name": "role",
          "type": "bytes32"
        },
        {
          "internalType": "address",
          "name": "account",
          "type": "address"
        }
      ],
      "name": "hasRole",
      "outputs": [
        {
          "internalType": "bool",
          "name": "",
          "type": "bool"
        }
      ],
      "stateMutability": "view",
      "type": "function"
    },
    {
      "inputs": [
        {
          "internalType": "address",
          "name": "",
          "type": "address"
        }
      ],
      "name": "partnerAllocations",
      "outputs": [
        {
          "internalType": "uint256",
          "name": "amount",
          "type": "uint256"
        },
        {
          "internalType": "uint256",
          "name": "allocatedAt",
          "type": "uint256"
        },
        {
          "internalType": "bool",
          "name": "withdrawn",
          "type": "bool"
        }
      ],
      "stateMutability": "view",
      "type": "function"
    },
    {
      "inputs": [],
      "name": "pause",
      "outputs": [],
      "stateMutability": "nonpayable",
      "type": "function"
    },
    {
      "inputs": [],
      "name": "paused",
      "outputs": [
        {
          "internalType": "bool",
          "name": "",
          "type": "bool"
        }
      ],
      "stateMutability": "view",
      "type": "function"
    },
    {
      "inputs": [
        {
          "internalType": "bytes32",
          "name": "role",
          "type": "bytes32"
        },
        {
          "internalType": "address",
          "name": "callerConfirmation",
          "type": "address"
        }
      ],
      "name": "renounceRole",
      "outputs": [],
      "stateMutability": "nonpayable",
      "type": "function"
    },
    {
      "inputs": [
        {
          "internalType": "bytes32",
          "name": "role",
          "type": "bytes32"
        },
        {
          "internalType": "address",
          "name": "account",
          "type": "address"
        }
      ],
      "name": "revokeRole",
      "outputs": [],
      "stateMutability": "nonpayable",
      "type": "function"
    },
    {
      "inputs": [
        {
          "internalType": "bytes4",
          "name": "interfaceId",
          "type": "bytes4"
        }
      ],
      "name": "supportsInterface",
      "outputs": [
        {
          "internalType": "bool",
          "name": "",
          "type": "bool"
        }
      ],
      "stateMutability": "view",
      "type": "function"
    },
    {
      "inputs": [],
      "name": "token",
      "outputs": [
        {
          "internalType": "contract IERC20",
          "name": "",
          "type": "address"
        }
      ],
      "stateMutability": "view",
      "type": "function"
    },
    {
      "inputs": [],
      "name": "totalAllocated",
      "outputs": [
        {
          "internalType": "uint256",
          "name": "",
          "type": "uint256"
        }
      ],
      "stateMutability": "view",
      "type": "function"
    },
    {
      "inputs": [],
      "name": "unpause",
      "outputs": [],
      "stateMutability": "nonpayable",
      "type": "function"
    },
    {
      "inputs": [],
      "name": "withdraw",
      "outputs": [],
      "stateMutability": "nonpayable",
      "type": "function"
    }
  ],
  "bytecode": "0x60a0346100e457601f6111d738819003918201601f19168301916001600160401b038311848410176100e9578084926020946040528339810103126100e457516001600160a01b038116908190036100e45760018055801561009f57608052610067336100ff565b506100713361017d565b50604051610f99908161021e823960805181818161012a015281816101b80152818161054f015261073f0152f35b60405162461bcd60e51b815260206004820152601560248201527f496e76616c696420746f6b656e206164647265737300000000000000000000006044820152606490fd5b600080fd5b634e487b7160e01b600052604160045260246000fd5b6001600160a01b031660008181527fad3228b676f7d3cd4284a5443f17f1962b36e491b30a40b2405849e597ba5fb5602052604081205490919060ff1661017957818052816020526040822081835260205260408220600160ff1982541617905533916000805160206111b78339815191528180a4600190565b5090565b6001600160a01b031660008181527f7d7ffb7a348e1c6a02869081a26547b49160dd3df72d1d75a570eb9b698292ec60205260408120549091907fa49807205ce4d355092ef5a8a18f56e8913cf4a201fbe287825b095693c217759060ff1661021857808352826020526040832082845260205260408320600160ff198254161790556000805160206111b7833981519152339380a4600190565b50509056fe608060408181526004918236101561001657600080fd5b600092833560e01c91826301ffc9a714610b9357508163248a9ca314610b695781632f2ff15d14610b3f57816336568abe14610af95781633889a810146109435781633ccfd60b146106b45781633f4ba83a1461065c57816345f7f249146104495781635c975abb146106385781636ff1c9bc146104a257816375b238fc1461046757816382299a5c146104495781638456cb59146103ee57816391d14854146103a8578163a217fddf1461038d578163b1e58bbb146102f3578163d3e46a831461029e578163d547741f1461025f578163ec16d07614610240578163ed12e8ef1461018957508063f67771751461015d5763fc0c546a1461011757600080fd5b34610159578160031936011261015957517f00000000000000000000000000000000000000000000000000000000000000006001600160a01b03168152602090f35b5080fd5b50346101595760203660031901126101595760209061018261017d610c01565b610d05565b9051908152f35b9190503461022a578260031936011261022a5780516370a0823160e01b815230928101929092526020826024817f00000000000000000000000000000000000000000000000000000000000000006001600160a01b03165afa9182156102365783926101fa575b6020838351908152f35b9091506020813d60201161022e575b8161021660209383610c49565b8101031261022a57602092505190386101f0565b8280fd5b3d9150610209565b81513d85823e3d90fd5b505034610159578160031936011261015957602090516305a39a808152f35b9190503461022a578060031936011261022a5761029a91356102956001610284610be6565b938387528660205286200154610e12565b610eb1565b5080f35b5050346101595760203660031901126101595760609181906001600160a01b036102c6610c01565b1681526003602052209081549160ff60026001830154920154169082519384526020840152151590820152f35b82843461038a57602036600319011261038a576001600160a01b03610316610c01565b1681526003602052818120918080519361032f85610c17565b80549485815260ff6002600184015493846020850152015416151593849101526305a39a80810193848211610377575060809550815194855260208501528301526060820152f35b634e487b7160e01b815260118752602490fd5b80fd5b50503461015957816003193601126101595751908152602090f35b90503461022a578160031936011261022a578160209360ff926103c9610be6565b903582528186528282206001600160a01b039091168252855220549151911615158152f35b50503461015957816003193601126101595760207f62e78cea01bee320cd4e420270b5ea74000d11b0c9f74754ebdbfc544b05a2589161042c610d98565b610434610f26565b600160ff19600254161760025551338152a180f35b90503461022a578260031936011261022a5760209250549051908152f35b505034610159578160031936011261015957602090517fa49807205ce4d355092ef5a8a18f56e8913cf4a201fbe287825b095693c217758152f35b9190503461022a57602080600319360112610634576104bf610c01565b926104c8610d98565b6104d0610f44565b60018060a01b039061054b838387169687895260038252868920948554916104f9831515610c6b565b600287016001815461050e60ff821615610cad565b60ff1916179055885163a9059cbb60e01b81526001600160a01b03909116868201908152602081019390935293849283918c918391604090910190565b03927f0000000000000000000000000000000000000000000000000000000000000000165af190811561062a5787916105fd575b50156105ba5750907fdba1a4a1654e4634d5a418fca6ea2f75e69af7a9a2ad34389dcb7aae571ceeb79291549082519182524290820152a280f35b835162461bcd60e51b8152908101839052601960248201527f456d657267656e6379207472616e73666572206661696c6564000000000000006044820152606490fd5b61061d9150843d8611610623575b6106158183610c49565b810190610ced565b3861057f565b503d61060b565b85513d89823e3d90fd5b8380fd5b50503461015957816003193601126101595760209060ff6002541690519015158152f35b50503461015957816003193601126101595760207f5db9ee0a495bf2e6ff9c91a7834c1ba4fdd244a5e8aa4e537bd38aeae4b073aa9161069a610d98565b6106a2610f44565b60ff196002541660025551338152a180f35b90503461022a578260031936011261022a57600191600283541461093657600283556106de610f26565b338452602091600383528185209081546106f9811515610c6b565b60028301805461070c60ff821615610cad565b878501546305a39a8081018091116109235742106108e05760ff19168717905583516370a0823160e01b815230838201527f00000000000000000000000000000000000000000000000000000000000000006001600160a01b031691908681602481865afa9081156108d6579082918a916108a1575b501061085e57845163a9059cbb60e01b815233848201908152602081019290925291869183919082908b90829060400103925af1908115610854578791610837575b50156108025750907fdba1a4a1654e4634d5a418fca6ea2f75e69af7a9a2ad34389dcb7aae571ceeb7915492815193845242908401523392a2805580f35b825162461bcd60e51b8152908101849052600f60248201526e151c985b9cd9995c8819985a5b1959608a1b6044820152606490fd5b61084e9150853d8711610623576106158183610c49565b386107c4565b84513d89823e3d90fd5b845162461bcd60e51b8152808401879052601a60248201527f496e73756666696369656e74207661756c742062616c616e63650000000000006044820152606490fd5b809250888092503d83116108cf575b6108ba8183610c49565b810103126108cb5781905138610782565b8880fd5b503d6108b0565b86513d8b823e3d90fd5b855162461bcd60e51b8152808501889052601760248201527f4c6f636b757020706572696f64206e6f7420656e6465640000000000000000006044820152606490fd5b634e487b7160e01b8a526011855260248afd5b51633ee5aeb560e01b8152fd5b83833461015957806003193601126101595761095d610c01565b906024359161096a610d98565b610972610f26565b6001600160a01b0316918215610ab6578015610a7357828452600360205281842054610a305781516109a381610c17565b8181526002602082019142835284810192878452868852600360205285882091518255516001820155019051151560ff801983541691161790558454818101809111610a1d577ffb169e052dab2fffd25a56221dae3275ceddb4ea261122c085b5301b20d5caa9939495558151908152426020820152a280f35b634e487b7160e01b855260118652602485fd5b815162461bcd60e51b8152602081870152601960248201527f506172746e657220616c726561647920616c6c6f6361746564000000000000006044820152606490fd5b815162461bcd60e51b8152602081870152601d60248201527f416d6f756e74206d7573742062652067726561746572207468616e20300000006044820152606490fd5b815162461bcd60e51b8152602081870152601760248201527f496e76616c696420706172746e657220616464726573730000000000000000006044820152606490fd5b838334610159578060031936011261015957610b13610be6565b90336001600160a01b03831603610b30575061029a919235610eb1565b5163334bd91960e11b81528390fd5b9190503461022a578060031936011261022a5761029a9135610b646001610284610be6565b610e38565b90503461022a57602036600319011261022a57816020936001923581528085522001549051908152f35b84913461022a57602036600319011261022a573563ffffffff60e01b811680910361022a5760209250637965db0b60e01b8114908115610bd5575b5015158152f35b6301ffc9a760e01b14905083610bce565b602435906001600160a01b0382168203610bfc57565b600080fd5b600435906001600160a01b0382168203610bfc57565b6060810190811067ffffffffffffffff821117610c3357604052565b634e487b7160e01b600052604160045260246000fd5b90601f8019910116810190811067ffffffffffffffff821117610c3357604052565b15610c7257565b60405162461bcd60e51b8152602060048201526013602482015272139bc8185b1b1bd8d85d1a5bdb88199bdd5b99606a1b6044820152606490fd5b15610cb457565b60405162461bcd60e51b815260206004820152601160248201527020b63932b0b23c903bb4ba34323930bbb760791b6044820152606490fd5b90816020910312610bfc57518015158103610bfc5790565b6001600160a01b0316600090815260036020526040808220905190610d2982610c17565b805480835260ff600260018401549384602087015201541615159081604085015215908115610d90575b50610d8b576305a39a808101809111610d7757421015610d71575090565b90505190565b634e487b7160e01b83526011600452602483fd5b505090565b905038610d53565b3360009081527f7d7ffb7a348e1c6a02869081a26547b49160dd3df72d1d75a570eb9b698292ec60205260409020547fa49807205ce4d355092ef5a8a18f56e8913cf4a201fbe287825b095693c217759060ff1615610df45750565b6044906040519063e2517d3f60e01b82523360048301526024820152fd5b80600052600060205260406000203360005260205260ff6040600020541615610df45750565b9060009180835282602052604083209160018060a01b03169182845260205260ff60408420541615600014610d8b57808352826020526040832082845260205260408320600160ff198254161790557f2f8788117e7eff1d82e926ec794901d17c78024a50270940304540a733656f0d339380a4600190565b9060009180835282602052604083209160018060a01b03169182845260205260ff604084205416600014610d8b5780835282602052604083208284526020526040832060ff1981541690557ff6391f5c32d9c69d2a47ea670b442974b53935d1edc7fd64eb21e047a839171b339380a4600190565b60ff60025416610f3257565b60405163d93c066560e01b8152600490fd5b60ff6002541615610f5157565b604051638dfc202b60e01b8152600490fdfea2646970667358221220bec7000b0c6291471ff598f5eadb61f97259ff537f70e232124819840777c9a264736f6c634300081800332f8788117e7eff1d82e926ec794901d17c78024a50270940304540a733656f0d",
  "linkReferences": {},
  "deployedLinkReferences": {}
}